{
  "_format": "hh-sol-artifact-1",
  "contractName": "SpacePiratesQuestRedeem",
  "sourceName": "contracts/SpacePiratesQuestRedeem.sol",
  "abi": [
    {
      "inputs": [
        {
          "internalType": "contract SpacePiratesTokens",
          "name": "_tokenContract",
          "type": "address"
        }
      ],
      "stateMutability": "nonpayable",
      "type": "constructor"
    },
    {
      "anonymous": false,
      "inputs": [
        {
          "indexed": true,
          "internalType": "address",
          "name": "previousOwner",
          "type": "address"
        },
        {
          "indexed": true,
          "internalType": "address",
          "name": "newOwner",
          "type": "address"
        }
      ],
      "name": "OwnershipTransferred",
      "type": "event"
    },
    {
      "anonymous": false,
      "inputs": [
        {
          "indexed": false,
          "internalType": "address",
          "name": "account",
          "type": "address"
        }
      ],
      "name": "Paused",
      "type": "event"
    },
    {
      "anonymous": false,
      "inputs": [
        {
          "indexed": true,
          "internalType": "address",
          "name": "receiver",
          "type": "address"
        },
        {
          "indexed": false,
          "internalType": "string",
          "name": "questName",
          "type": "string"
        },
        {
          "indexed": false,
          "internalType": "uint256[]",
          "name": "ids",
          "type": "uint256[]"
        },
        {
          "indexed": false,
          "internalType": "uint256[]",
          "name": "amounts",
          "type": "uint256[]"
        }
      ],
      "name": "QuestClaim",
      "type": "event"
    },
    {
      "anonymous": false,
      "inputs": [
        {
          "indexed": false,
          "internalType": "address",
          "name": "account",
          "type": "address"
        }
      ],
      "name": "Unpaused",
      "type": "event"
    },
    {
      "anonymous": false,
      "inputs": [
        {
          "indexed": false,
          "internalType": "address",
          "name": "_addr",
          "type": "address"
        }
      ],
      "name": "UpdateVerifier",
      "type": "event"
    },
    {
      "inputs": [
        {
          "internalType": "string",
          "name": "questName",
          "type": "string"
        },
        {
          "internalType": "uint256[]",
          "name": "ids",
          "type": "uint256[]"
        },
        {
          "internalType": "uint256[]",
          "name": "amounts",
          "type": "uint256[]"
        },
        {
          "internalType": "bytes",
          "name": "signature",
          "type": "bytes"
        }
      ],
      "name": "claimQuest",
      "outputs": [],
      "stateMutability": "nonpayable",
      "type": "function"
    },
    {
      "inputs": [],
      "name": "owner",
      "outputs": [
        {
          "internalType": "address",
          "name": "",
          "type": "address"
        }
      ],
      "stateMutability": "view",
      "type": "function"
    },
    {
      "inputs": [],
      "name": "pause",
      "outputs": [],
      "stateMutability": "nonpayable",
      "type": "function"
    },
    {
      "inputs": [],
      "name": "paused",
      "outputs": [
        {
          "internalType": "bool",
          "name": "",
          "type": "bool"
        }
      ],
      "stateMutability": "view",
      "type": "function"
    },
    {
      "inputs": [],
      "name": "renounceOwnership",
      "outputs": [],
      "stateMutability": "nonpayable",
      "type": "function"
    },
    {
      "inputs": [
        {
          "internalType": "string",
          "name": "questName",
          "type": "string"
        },
        {
          "internalType": "uint256[]",
          "name": "ids",
          "type": "uint256[]"
        },
        {
          "internalType": "uint256[]",
          "name": "amounts",
          "type": "uint256[]"
        },
        {
          "internalType": "bytes",
          "name": "signature",
          "type": "bytes"
        }
      ],
      "name": "signatureVerification",
      "outputs": [
        {
          "internalType": "bool",
          "name": "",
          "type": "bool"
        }
      ],
      "stateMutability": "view",
      "type": "function"
    },
    {
      "inputs": [],
      "name": "tokenContract",
      "outputs": [
        {
          "internalType": "contract SpacePiratesTokens",
          "name": "",
          "type": "address"
        }
      ],
      "stateMutability": "view",
      "type": "function"
    },
    {
      "inputs": [
        {
          "internalType": "address",
          "name": "newOwner",
          "type": "address"
        }
      ],
      "name": "transferOwnership",
      "outputs": [],
      "stateMutability": "nonpayable",
      "type": "function"
    },
    {
      "inputs": [],
      "name": "unpause",
      "outputs": [],
      "stateMutability": "nonpayable",
      "type": "function"
    },
    {
      "inputs": [
        {
          "internalType": "address",
          "name": "_addr",
          "type": "address"
        }
      ],
      "name": "updateVerifier",
      "outputs": [],
      "stateMutability": "nonpayable",
      "type": "function"
    },
    {
      "inputs": [],
      "name": "verifier",
      "outputs": [
        {
          "internalType": "address",
          "name": "",
          "type": "address"
        }
      ],
      "stateMutability": "view",
      "type": "function"
    }
  ],
  "bytecode": "0x61016060405234801561001157600080fd5b5060405161119938038061119983398101604081905261003091610190565b6040518060400160405280600d81526020016c5370616365205069726174657360981b815250604051806040016040528060018152602001603160f81b81525061008661008161013c60201b60201c565b610140565b815160209283012081519183019190912060e08290526101008190524660a0818152604080517f8b73c3c69bb8fe3d512ecc4cf759cc79239f7b179b0ffacaa9a75d522b39400f81880181905281830196909652606081810195909552608080820194909452308184018190528251808303909401845260c091820190925282519290960191909120909152811b909252610120526000805460ff60a01b191690551b6001600160601b031916610140526101be565b3390565b600080546001600160a01b038381166001600160a01b0319831681178455604051919092169283917f8be0079c531659141344cd1fd0a4f28419497f9722a3daafe3b4186f6b6457e09190a35050565b6000602082840312156101a1578081fd5b81516001600160a01b03811681146101b7578182fd5b9392505050565b60805160a05160c05160601c60e05161010051610120516101405160601c610f746102256000396000818161010001526102e801526000610b3e01526000610b8d01526000610b6801526000610ac101526000610aeb01526000610b150152610f746000f3fe608060405234801561001057600080fd5b50600436106100a95760003560e01c8063715018a611610071578063715018a6146101405780637607c5a7146101485780638456cb591461015b5780638da5cb5b1461016357806397fc007c14610174578063f2fde38b1461018757600080fd5b80632b7ac3f3146100ae57806339909c7c146100de5780633f4ba83a146100f357806355a373d6146100fb5780635c975abb14610122575b600080fd5b6001546100c1906001600160a01b031681565b6040516001600160a01b0390911681526020015b60405180910390f35b6100f16100ec366004610d79565b61019a565b005b6100f16103ac565b6100c17f000000000000000000000000000000000000000000000000000000000000000081565b600054600160a01b900460ff165b60405190151581526020016100d5565b6100f16103be565b610130610156366004610d79565b6103d0565b6100f161044c565b6000546001600160a01b03166100c1565b6100f1610182366004610d4b565b61045c565b6100f1610195366004610d4b565b6104b8565b6101a2610531565b600282826040516101b4929190610e96565b9081526040519081900360200190205460ff16156102305760405162461bcd60e51b815260206004820152602e60248201527f537061636550697261746573517565737452656465656d3a207175657374206160448201526d1b1c9958591e4818db185a5b595960921b60648201526084015b60405180910390fd5b61024088888888888888886103d0565b61029f5760405162461bcd60e51b815260206004820152602a60248201527f537061636550697261746573517565737452656465656d3a20696e76616c6964604482015269207369676e617475726560b01b6064820152608401610227565b6001600283836040516102b3929190610e96565b908152604051908190036020018120805492151560ff199093169290921790915563d81d0a1560e01b81526001600160a01b037f0000000000000000000000000000000000000000000000000000000000000000169063d81d0a15906103259033908a908a908a908a90600401610ea6565b600060405180830381600087803b15801561033f57600080fd5b505af1158015610353573d6000803e3d6000fd5b50505050336001600160a01b03167f1625ee4faf048744cde9f17f74778ffb12c591b5579f98a734490619227ba1cd89898989898960405161039a96959493929190610ede565b60405180910390a25050505050505050565b6103b461057e565b6103bc6105d8565b565b6103c661057e565b6103bc600061062d565b6000806103e28a8a8a8a8a8a3361067d565b600154604080516020601f88018190048102820181019092528681529293506001600160a01b039091169161043491849190889088908190840183828082843760009201919091525061076292505050565b6001600160a01b0316149a9950505050505050505050565b61045461057e565b6103bc610786565b61046461057e565b600180546001600160a01b0319166001600160a01b0383169081179091556040519081527f99561e700fd3015a2ccffc45ee5246e31fa07462e393902c82b6f920da9576279060200160405180910390a150565b6104c061057e565b6001600160a01b0381166105255760405162461bcd60e51b815260206004820152602660248201527f4f776e61626c653a206e6577206f776e657220697320746865207a65726f206160448201526564647265737360d01b6064820152608401610227565b61052e8161062d565b50565b600054600160a01b900460ff16156103bc5760405162461bcd60e51b815260206004820152601060248201526f14185d5cd8589b194e881c185d5cd95960821b6044820152606401610227565b6000546001600160a01b031633146103bc5760405162461bcd60e51b815260206004820181905260248201527f4f776e61626c653a2063616c6c6572206973206e6f7420746865206f776e65726044820152606401610227565b6105e06107c9565b6000805460ff60a01b191690557f5db9ee0a495bf2e6ff9c91a7834c1ba4fdd244a5e8aa4e537bd38aeae4b073aa335b6040516001600160a01b03909116815260200160405180910390a1565b600080546001600160a01b038381166001600160a01b0319831681178455604051919092169283917f8be0079c531659141344cd1fd0a4f28419497f9722a3daafe3b4186f6b6457e09190a35050565b60006107567f3d0b180452b5c323f7575f297332353f14a157752f5bf48f22427d9fcd9f3c4089896040516106b3929190610e96565b604051809103902088886040516020016106ce929190610e6c565b6040516020818303038152906040528051906020012087876040516020016106f7929190610e6c565b60408051601f19818403018152828252805160209182012090830195909552810192909252606082015260808101919091526001600160a01b03841660a082015260c00160405160208183030381529060405280519060200120610819565b98975050505050505050565b6000806000610771858561086d565b9150915061077e816108b3565b509392505050565b61078e610531565b6000805460ff60a01b1916600160a01b1790557f62e78cea01bee320cd4e420270b5ea74000d11b0c9f74754ebdbfc544b05a2586106103390565b600054600160a01b900460ff166103bc5760405162461bcd60e51b815260206004820152601460248201527314185d5cd8589b194e881b9bdd081c185d5cd95960621b6044820152606401610227565b6000610867610826610ab4565b8360405161190160f01b6020820152602281018390526042810182905260009060620160405160208183030381529060405280519060200120905092915050565b92915050565b6000808251604114156108a45760208301516040840151606085015160001a61089887828585610bdb565b945094505050506108ac565b506000905060025b9250929050565b60008160048111156108d557634e487b7160e01b600052602160045260246000fd5b14156108de5750565b600181600481111561090057634e487b7160e01b600052602160045260246000fd5b141561094e5760405162461bcd60e51b815260206004820152601860248201527f45434453413a20696e76616c6964207369676e617475726500000000000000006044820152606401610227565b600281600481111561097057634e487b7160e01b600052602160045260246000fd5b14156109be5760405162461bcd60e51b815260206004820152601f60248201527f45434453413a20696e76616c6964207369676e6174757265206c656e677468006044820152606401610227565b60038160048111156109e057634e487b7160e01b600052602160045260246000fd5b1415610a395760405162461bcd60e51b815260206004820152602260248201527f45434453413a20696e76616c6964207369676e6174757265202773272076616c604482015261756560f01b6064820152608401610227565b6004816004811115610a5b57634e487b7160e01b600052602160045260246000fd5b141561052e5760405162461bcd60e51b815260206004820152602260248201527f45434453413a20696e76616c6964207369676e6174757265202776272076616c604482015261756560f01b6064820152608401610227565b6000306001600160a01b037f000000000000000000000000000000000000000000000000000000000000000016148015610b0d57507f000000000000000000000000000000000000000000000000000000000000000046145b15610b3757507f000000000000000000000000000000000000000000000000000000000000000090565b50604080517f00000000000000000000000000000000000000000000000000000000000000006020808301919091527f0000000000000000000000000000000000000000000000000000000000000000828401527f000000000000000000000000000000000000000000000000000000000000000060608301524660808301523060a0808401919091528351808403909101815260c0909201909252805191012090565b6000807f7fffffffffffffffffffffffffffffff5d576e7357a4501ddfe92f46681b20a0831115610c125750600090506003610cbf565b8460ff16601b14158015610c2a57508460ff16601c14155b15610c3b5750600090506004610cbf565b6040805160008082526020820180845289905260ff881692820192909252606081018690526080810185905260019060a0016020604051602081039080840390855afa158015610c8f573d6000803e3d6000fd5b5050604051601f1901519150506001600160a01b038116610cb857600060019250925050610cbf565b9150600090505b94509492505050565b60008083601f840112610cd9578182fd5b50813567ffffffffffffffff811115610cf0578182fd5b6020830191508360208260051b85010111156108ac57600080fd5b60008083601f840112610d1c578182fd5b50813567ffffffffffffffff811115610d33578182fd5b6020830191508360208285010111156108ac57600080fd5b600060208284031215610d5c578081fd5b81356001600160a01b0381168114610d72578182fd5b9392505050565b6000806000806000806000806080898b031215610d94578384fd5b883567ffffffffffffffff80821115610dab578586fd5b610db78c838d01610d0b565b909a50985060208b0135915080821115610dcf578586fd5b610ddb8c838d01610cc8565b909850965060408b0135915080821115610df3578586fd5b610dff8c838d01610cc8565b909650945060608b0135915080821115610e17578384fd5b50610e248b828c01610d0b565b999c989b5096995094979396929594505050565b81835260006001600160fb1b03831115610e50578081fd5b8260051b80836020870137939093016020019283525090919050565b60006001600160fb1b03831115610e81578081fd5b8260051b808584379190910190815292915050565b8183823760009101908152919050565b6001600160a01b0386168152606060208201819052600090610ecb9083018688610e38565b8281036040840152610756818587610e38565b606081528560608201528587608083013760008060808884010152601f19601f88011682016080838203016020840152610f1c608082018789610e38565b90508281036040840152610f31818587610e38565b999850505050505050505056fea264697066735822122043f9cd8b1855cff43e688cb685a274ec10913203add00aa342d4b7f83be161b364736f6c63430008040033",
  "linkReferences": {},
  "deployedLinkReferences": {}
}