{
  "_format": "hh-sol-artifact-1",
  "contractName": "SpacePiratesWrapper",
  "sourceName": "contracts/SpacePiratesWrapper.sol",
  "abi": [
    {
      "inputs": [
        {
          "internalType": "contract SpacePiratesTokens",
          "name": "_tokenContract",
          "type": "address"
        }
      ],
      "stateMutability": "nonpayable",
      "type": "constructor"
    },
    {
      "anonymous": false,
      "inputs": [
        {
          "indexed": true,
          "internalType": "address",
          "name": "_erc20contract",
          "type": "address"
        },
        {
          "indexed": false,
          "internalType": "uint256",
          "name": "id",
          "type": "uint256"
        }
      ],
      "name": "ERC20Added",
      "type": "event"
    },
    {
      "anonymous": false,
      "inputs": [
        {
          "indexed": true,
          "internalType": "address",
          "name": "from",
          "type": "address"
        },
        {
          "indexed": true,
          "internalType": "address",
          "name": "to",
          "type": "address"
        },
        {
          "indexed": true,
          "internalType": "address",
          "name": "_erc20contract",
          "type": "address"
        },
        {
          "indexed": false,
          "internalType": "uint256",
          "name": "id",
          "type": "uint256"
        },
        {
          "indexed": false,
          "internalType": "uint256",
          "name": "amount",
          "type": "uint256"
        }
      ],
      "name": "ERC20Deposited",
      "type": "event"
    },
    {
      "anonymous": false,
      "inputs": [
        {
          "indexed": true,
          "internalType": "address",
          "name": "from",
          "type": "address"
        },
        {
          "indexed": true,
          "internalType": "address",
          "name": "to",
          "type": "address"
        },
        {
          "indexed": true,
          "internalType": "address",
          "name": "_erc20contract",
          "type": "address"
        },
        {
          "indexed": false,
          "internalType": "uint256",
          "name": "id",
          "type": "uint256"
        },
        {
          "indexed": false,
          "internalType": "uint256",
          "name": "amount",
          "type": "uint256"
        }
      ],
      "name": "ERC20Withdrawn",
      "type": "event"
    },
    {
      "anonymous": false,
      "inputs": [
        {
          "indexed": true,
          "internalType": "address",
          "name": "from",
          "type": "address"
        },
        {
          "indexed": true,
          "internalType": "address",
          "name": "to",
          "type": "address"
        },
        {
          "indexed": true,
          "internalType": "uint256",
          "name": "id",
          "type": "uint256"
        },
        {
          "indexed": false,
          "internalType": "uint256",
          "name": "amount",
          "type": "uint256"
        }
      ],
      "name": "ETHDeposited",
      "type": "event"
    },
    {
      "anonymous": false,
      "inputs": [
        {
          "indexed": true,
          "internalType": "address",
          "name": "from",
          "type": "address"
        },
        {
          "indexed": true,
          "internalType": "address",
          "name": "to",
          "type": "address"
        },
        {
          "indexed": true,
          "internalType": "uint256",
          "name": "id",
          "type": "uint256"
        },
        {
          "indexed": false,
          "internalType": "uint256",
          "name": "amount",
          "type": "uint256"
        }
      ],
      "name": "ETHWithdrawn",
      "type": "event"
    },
    {
      "anonymous": false,
      "inputs": [
        {
          "indexed": true,
          "internalType": "address",
          "name": "previousOwner",
          "type": "address"
        },
        {
          "indexed": true,
          "internalType": "address",
          "name": "newOwner",
          "type": "address"
        }
      ],
      "name": "OwnershipTransferred",
      "type": "event"
    },
    {
      "anonymous": false,
      "inputs": [
        {
          "indexed": false,
          "internalType": "address",
          "name": "feeAddress",
          "type": "address"
        }
      ],
      "name": "SetFeeAddress",
      "type": "event"
    },
    {
      "anonymous": false,
      "inputs": [
        {
          "indexed": false,
          "internalType": "uint256",
          "name": "feeBasePoint",
          "type": "uint256"
        }
      ],
      "name": "SetFeeBasePoint",
      "type": "event"
    },
    {
      "inputs": [
        {
          "internalType": "address",
          "name": "_erc20Contract",
          "type": "address"
        }
      ],
      "name": "addERC20",
      "outputs": [
        {
          "internalType": "uint256",
          "name": "id",
          "type": "uint256"
        }
      ],
      "stateMutability": "nonpayable",
      "type": "function"
    },
    {
      "inputs": [
        {
          "internalType": "address",
          "name": "_addr",
          "type": "address"
        },
        {
          "internalType": "uint256",
          "name": "_amount",
          "type": "uint256"
        }
      ],
      "name": "erc20Deposit",
      "outputs": [],
      "stateMutability": "nonpayable",
      "type": "function"
    },
    {
      "inputs": [
        {
          "internalType": "address",
          "name": "_addr",
          "type": "address"
        },
        {
          "internalType": "uint256",
          "name": "_amount",
          "type": "uint256"
        },
        {
          "internalType": "address",
          "name": "_to",
          "type": "address"
        }
      ],
      "name": "erc20DepositTo",
      "outputs": [],
      "stateMutability": "nonpayable",
      "type": "function"
    },
    {
      "inputs": [
        {
          "internalType": "address",
          "name": "",
          "type": "address"
        }
      ],
      "name": "erc20ToId",
      "outputs": [
        {
          "internalType": "uint256",
          "name": "",
          "type": "uint256"
        }
      ],
      "stateMutability": "view",
      "type": "function"
    },
    {
      "inputs": [
        {
          "internalType": "address",
          "name": "_addr",
          "type": "address"
        },
        {
          "internalType": "uint256",
          "name": "_amount",
          "type": "uint256"
        }
      ],
      "name": "erc20Withdraw",
      "outputs": [],
      "stateMutability": "nonpayable",
      "type": "function"
    },
    {
      "inputs": [
        {
          "internalType": "address",
          "name": "_addr",
          "type": "address"
        },
        {
          "internalType": "uint256",
          "name": "_amount",
          "type": "uint256"
        },
        {
          "internalType": "address",
          "name": "_to",
          "type": "address"
        }
      ],
      "name": "erc20WithdrawTo",
      "outputs": [],
      "stateMutability": "nonpayable",
      "type": "function"
    },
    {
      "inputs": [],
      "name": "ethDeposit",
      "outputs": [],
      "stateMutability": "payable",
      "type": "function"
    },
    {
      "inputs": [
        {
          "internalType": "address",
          "name": "_to",
          "type": "address"
        }
      ],
      "name": "ethDepositTo",
      "outputs": [],
      "stateMutability": "payable",
      "type": "function"
    },
    {
      "inputs": [
        {
          "internalType": "uint256",
          "name": "_amount",
          "type": "uint256"
        }
      ],
      "name": "ethWithdraw",
      "outputs": [],
      "stateMutability": "nonpayable",
      "type": "function"
    },
    {
      "inputs": [
        {
          "internalType": "uint256",
          "name": "_amount",
          "type": "uint256"
        },
        {
          "internalType": "address",
          "name": "_to",
          "type": "address"
        }
      ],
      "name": "ethWithdrawTo",
      "outputs": [],
      "stateMutability": "nonpayable",
      "type": "function"
    },
    {
      "inputs": [],
      "name": "feeAddress",
      "outputs": [
        {
          "internalType": "address",
          "name": "",
          "type": "address"
        }
      ],
      "stateMutability": "view",
      "type": "function"
    },
    {
      "inputs": [],
      "name": "feeBasePoint",
      "outputs": [
        {
          "internalType": "uint256",
          "name": "",
          "type": "uint256"
        }
      ],
      "stateMutability": "view",
      "type": "function"
    },
    {
      "inputs": [],
      "name": "lastId",
      "outputs": [
        {
          "internalType": "uint256",
          "name": "",
          "type": "uint256"
        }
      ],
      "stateMutability": "view",
      "type": "function"
    },
    {
      "inputs": [],
      "name": "owner",
      "outputs": [
        {
          "internalType": "address",
          "name": "",
          "type": "address"
        }
      ],
      "stateMutability": "view",
      "type": "function"
    },
    {
      "inputs": [],
      "name": "renounceOwnership",
      "outputs": [],
      "stateMutability": "nonpayable",
      "type": "function"
    },
    {
      "inputs": [
        {
          "internalType": "address",
          "name": "_feeAddress",
          "type": "address"
        }
      ],
      "name": "setFeeAddress",
      "outputs": [],
      "stateMutability": "nonpayable",
      "type": "function"
    },
    {
      "inputs": [
        {
          "internalType": "uint256",
          "name": "_feeBasePoint",
          "type": "uint256"
        }
      ],
      "name": "setFeeBasePoint",
      "outputs": [],
      "stateMutability": "nonpayable",
      "type": "function"
    },
    {
      "inputs": [],
      "name": "spaceETH",
      "outputs": [
        {
          "internalType": "uint256",
          "name": "",
          "type": "uint256"
        }
      ],
      "stateMutability": "view",
      "type": "function"
    },
    {
      "inputs": [
        {
          "internalType": "uint256",
          "name": "",
          "type": "uint256"
        }
      ],
      "name": "supportedTokens",
      "outputs": [
        {
          "internalType": "address",
          "name": "",
          "type": "address"
        }
      ],
      "stateMutability": "view",
      "type": "function"
    },
    {
      "inputs": [],
      "name": "tokenContract",
      "outputs": [
        {
          "internalType": "contract SpacePiratesTokens",
          "name": "",
          "type": "address"
        }
      ],
      "stateMutability": "view",
      "type": "function"
    },
    {
      "inputs": [
        {
          "internalType": "address",
          "name": "newOwner",
          "type": "address"
        }
      ],
      "name": "transferOwnership",
      "outputs": [],
      "stateMutability": "nonpayable",
      "type": "function"
    },
    {
      "stateMutability": "payable",
      "type": "receive"
    }
  ],
  "bytecode": "0x60a0604052606460015534801561001557600080fd5b506040516117ae3803806117ae833981016040819052610034916100a2565b61003d33610052565b60601b6001600160601b0319166080526100d0565b600080546001600160a01b038381166001600160a01b0319831681178455604051919092169283917f8be0079c531659141344cd1fd0a4f28419497f9722a3daafe3b4186f6b6457e09190a35050565b6000602082840312156100b3578081fd5b81516001600160a01b03811681146100c9578182fd5b9392505050565b60805160601c61168861012660003960008181610235015281816103f40152818161056d0152818161063d015281816109ac01528181610b2001528181610c9801528181610d8b0152610e6001526116886000f3fe60806040526004361061012e5760003560e01c80638705fcd4116100ab578063c62556261161006f578063c625562614610328578063c913d17214610348578063cc5c7b3e14610375578063d265c5dd14610388578063d618164a146103a8578063f2fde38b146103bd57600080fd5b80638705fcd4146102945780638da5cb5b146102b4578063b0b969ac146102d2578063b23f535e146102f2578063c1292cc31461031257600080fd5b806354594abd116100f257806354594abd1461020357806355a373d6146102235780635fc1116114610257578063715018a61461025f57806375b74f341461027457600080fd5b80631ef414f714610142578063310fe8a41461016b57806335ec1a751461018b57806341275358146101ab57806343658a70146101e357600080fd5b3661013d5761013b6103dd565b005b600080fd5b34801561014e57600080fd5b5061015860055481565b6040519081526020015b60405180910390f35b34801561017757600080fd5b5061013b6101863660046113da565b61049c565b34801561019757600080fd5b5061013b6101a636600461145e565b610626565b3480156101b757600080fd5b506004546101cb906001600160a01b031681565b6040516001600160a01b039091168152602001610162565b3480156101ef57600080fd5b506101586101fe3660046113c0565b61074f565b34801561020f57600080fd5b5061013b61021e36600461145e565b610882565b34801561022f57600080fd5b506101cb7f000000000000000000000000000000000000000000000000000000000000000081565b61013b6103dd565b34801561026b57600080fd5b5061013b610936565b34801561028057600080fd5b5061013b61028f366004611403565b61094a565b3480156102a057600080fd5b5061013b6102af3660046113c0565b610a68565b3480156102c057600080fd5b506000546001600160a01b03166101cb565b3480156102de57600080fd5b5061013b6102ed3660046113da565b610abe565b3480156102fe57600080fd5b5061013b61030d366004611403565b610bd0565b34801561031e57600080fd5b5061015860015481565b34801561033457600080fd5b506101cb61034336600461145e565b610d4a565b34801561035457600080fd5b506101586103633660046113c0565b60036020526000908152604090205481565b61013b6103833660046113c0565b610d74565b34801561039457600080fd5b5061013b6103a3366004611476565b610e49565b3480156103b457600080fd5b50610158606481565b3480156103c957600080fd5b5061013b6103d83660046113c0565b610f86565b604051630ab714fb60e11b81526001600160a01b037f0000000000000000000000000000000000000000000000000000000000000000169063156e29f69061042e90339060649034906004016114bd565b600060405180830381600087803b15801561044857600080fd5b505af115801561045c573d6000803e3d6000fd5b50506040513481526064925033915081907f142820add0a5d3e5ad3b4bf87784c72bd6b7767da6abad3ce6f8605f762430429060200160405180910390a4565b6001600160a01b038216600090815260036020526040902054806104db5760405162461bcd60e51b81526004016104d290611511565b60405180910390fd5b60055415610542576000612710600554846104f691906115bf565b610500919061159f565b60045490915061051d906001600160a01b03868116911683610fff565b61053c3361052b83866115de565b6001600160a01b0387169190610fff565b50610556565b6105566001600160a01b0384163384610fff565b604051637a94c56560e11b81526001600160a01b037f0000000000000000000000000000000000000000000000000000000000000000169063f5298aca906105a6903390859087906004016114bd565b600060405180830381600087803b1580156105c057600080fd5b505af11580156105d4573d6000803e3d6000fd5b505060408051848152602081018690526001600160a01b038716935033925082917fb82384175222b8b8a9e9a2de651261ffb2ae287465039b486363e6010db9decc91015b60405180910390a4505050565b604051637a94c56560e11b81526001600160a01b037f0000000000000000000000000000000000000000000000000000000000000000169063f5298aca9061067790339060649086906004016114bd565b600060405180830381600087803b15801561069157600080fd5b505af11580156106a5573d6000803e3d6000fd5b50506040516000925033915083908381818185875af1925050503d80600081146106eb576040519150601f19603f3d011682016040523d82523d6000602084013e6106f0565b606091505b50509050806107115760405162461bcd60e51b81526004016104d29061155b565b604051828152606490339081907fe3dc91d7807bc56b6682d8279b38ed74cefbf6ee82d79ffd5cb0b0cad8fdd3989060200160405180910390a45050565b6000610759611067565b6001600160a01b038216600090815260036020526040902054156107d15760405162461bcd60e51b815260206004820152602960248201527f537061636550697261746573577261707065723a20746f6b656e20616c72656160448201526864792065786973747360b81b60648201526084016104d2565b6001600081546107e090611621565b91829055506001600160a01b0383166000818152600360205260408082208490556002805460018101825592527f405787fa12a823e0f2b7631cc41b3ba8828b3321ca811111fa75cd3aa3bb5ace90910180546001600160a01b0319168317905551919250907fb4252717ce23d8029abb408851c7a1b17d6153bc9a28b9bbbbb678ffd755b6e6906108759084815260200190565b60405180910390a2919050565b61088a611067565b6127108111156108fa5760405162461bcd60e51b815260206004820152603560248201527f537061636550697261746573577261707065723a20696e76616c6964206465706044820152746f7369742066656520626173697320706f696e747360581b60648201526084016104d2565b60058190556040518181527f4e2b1b9ac8adf7baa10b627af8d22f0a7919f90fc8d82ac67c123c9f3c4bd705906020015b60405180910390a150565b61093e611067565b61094860006110c1565b565b6001600160a01b038316600090815260036020526040902054806109805760405162461bcd60e51b81526004016104d290611511565b6109956001600160a01b038516333086611111565b604051630ab714fb60e11b81526001600160a01b037f0000000000000000000000000000000000000000000000000000000000000000169063156e29f6906109e5908590859088906004016114bd565b600060405180830381600087803b1580156109ff57600080fd5b505af1158015610a13573d6000803e3d6000fd5b505060408051848152602081018790526001600160a01b0380891694508616925033917f11f8fc1c83f28d04a445c8ff0d48d1d193d6630abb9e3f548c9ffcf8873eb98d91015b60405180910390a450505050565b610a70611067565b600480546001600160a01b0319166001600160a01b0383169081179091556040519081527ffcb8a963756b148f85a52537b63147b6c4b40af694099c901ac3b99d317a2db89060200161092b565b6001600160a01b03821660009081526003602052604090205480610af45760405162461bcd60e51b81526004016104d290611511565b610b096001600160a01b038416333085611111565b604051630ab714fb60e11b81526001600160a01b037f0000000000000000000000000000000000000000000000000000000000000000169063156e29f690610b59903390859087906004016114bd565b600060405180830381600087803b158015610b7357600080fd5b505af1158015610b87573d6000803e3d6000fd5b505060408051848152602081018690526001600160a01b038716935033925082917f11f8fc1c83f28d04a445c8ff0d48d1d193d6630abb9e3f548c9ffcf8873eb98d9101610619565b6001600160a01b03831660009081526003602052604090205480610c065760405162461bcd60e51b81526004016104d290611511565b60055415610c6d57600061271060055485610c2191906115bf565b610c2b919061159f565b600454909150610c48906001600160a01b03878116911683610fff565b610c6783610c5683876115de565b6001600160a01b0388169190610fff565b50610c81565b610c816001600160a01b0385168385610fff565b604051637a94c56560e11b81526001600160a01b037f0000000000000000000000000000000000000000000000000000000000000000169063f5298aca90610cd1903390859088906004016114bd565b600060405180830381600087803b158015610ceb57600080fd5b505af1158015610cff573d6000803e3d6000fd5b505060408051848152602081018790526001600160a01b0380891694508616925033917fb82384175222b8b8a9e9a2de651261ffb2ae287465039b486363e6010db9decc9101610a5a565b60028181548110610d5a57600080fd5b6000918252602090912001546001600160a01b0316905081565b604051630ab714fb60e11b81526001600160a01b037f0000000000000000000000000000000000000000000000000000000000000000169063156e29f690610dc590849060649034906004016114bd565b600060405180830381600087803b158015610ddf57600080fd5b505af1158015610df3573d6000803e3d6000fd5b505050506064816001600160a01b0316336001600160a01b03167f142820add0a5d3e5ad3b4bf87784c72bd6b7767da6abad3ce6f8605f7624304234604051610e3e91815260200190565b60405180910390a450565b604051637a94c56560e11b81526001600160a01b037f0000000000000000000000000000000000000000000000000000000000000000169063f5298aca90610e9a90339060649087906004016114bd565b600060405180830381600087803b158015610eb457600080fd5b505af1158015610ec8573d6000803e3d6000fd5b505050506000816001600160a01b03168360405160006040518083038185875af1925050503d8060008114610f19576040519150601f19603f3d011682016040523d82523d6000602084013e610f1e565b606091505b5050905080610f3f5760405162461bcd60e51b81526004016104d29061155b565b6064826001600160a01b0316336001600160a01b03167fe3dc91d7807bc56b6682d8279b38ed74cefbf6ee82d79ffd5cb0b0cad8fdd3988660405161061991815260200190565b610f8e611067565b6001600160a01b038116610ff35760405162461bcd60e51b815260206004820152602660248201527f4f776e61626c653a206e6577206f776e657220697320746865207a65726f206160448201526564647265737360d01b60648201526084016104d2565b610ffc816110c1565b50565b6040516001600160a01b03831660248201526044810182905261106290849063a9059cbb60e01b906064015b60408051601f198184030181529190526020810180516001600160e01b03166001600160e01b03199093169290921790915261114f565b505050565b6000546001600160a01b031633146109485760405162461bcd60e51b815260206004820181905260248201527f4f776e61626c653a2063616c6c6572206973206e6f7420746865206f776e657260448201526064016104d2565b600080546001600160a01b038381166001600160a01b0319831681178455604051919092169283917f8be0079c531659141344cd1fd0a4f28419497f9722a3daafe3b4186f6b6457e09190a35050565b6040516001600160a01b03808516602483015283166044820152606481018290526111499085906323b872dd60e01b9060840161102b565b50505050565b60006111a4826040518060400160405280602081526020017f5361666545524332303a206c6f772d6c6576656c2063616c6c206661696c6564815250856001600160a01b03166112219092919063ffffffff16565b80519091501561106257808060200190518101906111c2919061143e565b6110625760405162461bcd60e51b815260206004820152602a60248201527f5361666545524332303a204245503230206f7065726174696f6e20646964206e6044820152691bdd081cdd58d8d9595960b21b60648201526084016104d2565b6060611230848460008561123a565b90505b9392505050565b60608247101561129b5760405162461bcd60e51b815260206004820152602660248201527f416464726573733a20696e73756666696369656e742062616c616e636520666f6044820152651c8818d85b1b60d21b60648201526084016104d2565b6001600160a01b0385163b6112f25760405162461bcd60e51b815260206004820152601d60248201527f416464726573733a2063616c6c20746f206e6f6e2d636f6e747261637400000060448201526064016104d2565b600080866001600160a01b0316858760405161130e91906114a1565b60006040518083038185875af1925050503d806000811461134b576040519150601f19603f3d011682016040523d82523d6000602084013e611350565b606091505b509150915061136082828661136b565b979650505050505050565b6060831561137a575081611233565b82511561138a5782518084602001fd5b8160405162461bcd60e51b81526004016104d291906114de565b80356001600160a01b03811681146113bb57600080fd5b919050565b6000602082840312156113d1578081fd5b611233826113a4565b600080604083850312156113ec578081fd5b6113f5836113a4565b946020939093013593505050565b600080600060608486031215611417578081fd5b611420846113a4565b925060208401359150611435604085016113a4565b90509250925092565b60006020828403121561144f578081fd5b81518015158114611233578182fd5b60006020828403121561146f578081fd5b5035919050565b60008060408385031215611488578182fd5b82359150611498602084016113a4565b90509250929050565b600082516114b38184602087016115f5565b9190910192915050565b6001600160a01b039390931683526020830191909152604082015260600190565b60208152600082518060208401526114fd8160408501602087016115f5565b601f01601f19169190910160400192915050565b6020808252602a908201527f537061636550697261746573577261707065723a20746f6b656e20646f6573206040820152696e6f742065786973747360b01b606082015260800190565b60208082526024908201527f537061636550697261746573577261707065723a2077697468647261772066616040820152631a5b195960e21b606082015260800190565b6000826115ba57634e487b7160e01b81526012600452602481fd5b500490565b60008160001904831182151516156115d9576115d961163c565b500290565b6000828210156115f0576115f061163c565b500390565b60005b838110156116105781810151838201526020016115f8565b838111156111495750506000910152565b60006000198214156116355761163561163c565b5060010190565b634e487b7160e01b600052601160045260246000fdfea2646970667358221220b10db489391da43978918508823fea45fe652388dcdc7cb7bfdcc5d22b6b125664736f6c63430008040033",
  "linkReferences": {},
  "deployedLinkReferences": {}
}