{
  "_format": "hh-sol-artifact-1",
  "contractName": "SpacePiratesTokens",
  "sourceName": "contracts/SpacePiratesTokens.sol",
  "abi": [
    {
      "inputs": [
        {
          "internalType": "string",
          "name": "uri",
          "type": "string"
        }
      ],
      "stateMutability": "nonpayable",
      "type": "constructor"
    },
    {
      "anonymous": false,
      "inputs": [
        {
          "indexed": true,
          "internalType": "address",
          "name": "account",
          "type": "address"
        },
        {
          "indexed": true,
          "internalType": "address",
          "name": "operator",
          "type": "address"
        },
        {
          "indexed": false,
          "internalType": "bool",
          "name": "approved",
          "type": "bool"
        }
      ],
      "name": "ApprovalForAll",
      "type": "event"
    },
    {
      "anonymous": false,
      "inputs": [
        {
          "indexed": true,
          "internalType": "address",
          "name": "sender",
          "type": "address"
        },
        {
          "indexed": false,
          "internalType": "uint256",
          "name": "id",
          "type": "uint256"
        },
        {
          "indexed": false,
          "internalType": "uint256",
          "name": "amount",
          "type": "uint256"
        }
      ],
      "name": "Burn",
      "type": "event"
    },
    {
      "anonymous": false,
      "inputs": [
        {
          "indexed": true,
          "internalType": "address",
          "name": "sender",
          "type": "address"
        },
        {
          "indexed": false,
          "internalType": "uint256[]",
          "name": "ids",
          "type": "uint256[]"
        },
        {
          "indexed": false,
          "internalType": "uint256[]",
          "name": "amounts",
          "type": "uint256[]"
        }
      ],
      "name": "BurnBatch",
      "type": "event"
    },
    {
      "anonymous": false,
      "inputs": [
        {
          "indexed": true,
          "internalType": "bytes32[]",
          "name": "roles",
          "type": "bytes32[]"
        },
        {
          "indexed": false,
          "internalType": "address[]",
          "name": "accounts",
          "type": "address[]"
        }
      ],
      "name": "GrantMultiRole",
      "type": "event"
    },
    {
      "anonymous": false,
      "inputs": [
        {
          "indexed": true,
          "internalType": "bytes32",
          "name": "role",
          "type": "bytes32"
        },
        {
          "indexed": false,
          "internalType": "address",
          "name": "account",
          "type": "address"
        }
      ],
      "name": "GrantRole",
      "type": "event"
    },
    {
      "anonymous": false,
      "inputs": [],
      "name": "LockTokenTransfer",
      "type": "event"
    },
    {
      "anonymous": false,
      "inputs": [
        {
          "indexed": true,
          "internalType": "address",
          "name": "sender",
          "type": "address"
        },
        {
          "indexed": false,
          "internalType": "uint256",
          "name": "id",
          "type": "uint256"
        },
        {
          "indexed": false,
          "internalType": "uint256",
          "name": "amount",
          "type": "uint256"
        },
        {
          "indexed": true,
          "internalType": "address",
          "name": "to",
          "type": "address"
        }
      ],
      "name": "Mint",
      "type": "event"
    },
    {
      "anonymous": false,
      "inputs": [
        {
          "indexed": true,
          "internalType": "address",
          "name": "sender",
          "type": "address"
        },
        {
          "indexed": false,
          "internalType": "uint256[]",
          "name": "ids",
          "type": "uint256[]"
        },
        {
          "indexed": false,
          "internalType": "uint256[]",
          "name": "amounts",
          "type": "uint256[]"
        },
        {
          "indexed": true,
          "internalType": "address",
          "name": "to",
          "type": "address"
        }
      ],
      "name": "MintBatch",
      "type": "event"
    },
    {
      "anonymous": false,
      "inputs": [],
      "name": "Pause",
      "type": "event"
    },
    {
      "anonymous": false,
      "inputs": [
        {
          "indexed": false,
          "internalType": "address",
          "name": "account",
          "type": "address"
        }
      ],
      "name": "Paused",
      "type": "event"
    },
    {
      "anonymous": false,
      "inputs": [
        {
          "indexed": true,
          "internalType": "bytes32",
          "name": "role",
          "type": "bytes32"
        },
        {
          "indexed": false,
          "internalType": "address",
          "name": "account",
          "type": "address"
        }
      ],
      "name": "RenounceRole",
      "type": "event"
    },
    {
      "anonymous": false,
      "inputs": [
        {
          "indexed": true,
          "internalType": "bytes32[]",
          "name": "roles",
          "type": "bytes32[]"
        },
        {
          "indexed": false,
          "internalType": "address[]",
          "name": "accounts",
          "type": "address[]"
        }
      ],
      "name": "RevokeMultiRole",
      "type": "event"
    },
    {
      "anonymous": false,
      "inputs": [
        {
          "indexed": true,
          "internalType": "bytes32",
          "name": "role",
          "type": "bytes32"
        },
        {
          "indexed": false,
          "internalType": "address",
          "name": "account",
          "type": "address"
        }
      ],
      "name": "RevokeRole",
      "type": "event"
    },
    {
      "anonymous": false,
      "inputs": [
        {
          "indexed": true,
          "internalType": "bytes32",
          "name": "role",
          "type": "bytes32"
        },
        {
          "indexed": true,
          "internalType": "bytes32",
          "name": "previousAdminRole",
          "type": "bytes32"
        },
        {
          "indexed": true,
          "internalType": "bytes32",
          "name": "newAdminRole",
          "type": "bytes32"
        }
      ],
      "name": "RoleAdminChanged",
      "type": "event"
    },
    {
      "anonymous": false,
      "inputs": [
        {
          "indexed": true,
          "internalType": "bytes32",
          "name": "role",
          "type": "bytes32"
        },
        {
          "indexed": true,
          "internalType": "address",
          "name": "account",
          "type": "address"
        },
        {
          "indexed": true,
          "internalType": "address",
          "name": "sender",
          "type": "address"
        }
      ],
      "name": "RoleGranted",
      "type": "event"
    },
    {
      "anonymous": false,
      "inputs": [
        {
          "indexed": true,
          "internalType": "bytes32",
          "name": "role",
          "type": "bytes32"
        },
        {
          "indexed": true,
          "internalType": "address",
          "name": "account",
          "type": "address"
        },
        {
          "indexed": true,
          "internalType": "address",
          "name": "sender",
          "type": "address"
        }
      ],
      "name": "RoleRevoked",
      "type": "event"
    },
    {
      "anonymous": false,
      "inputs": [
        {
          "indexed": true,
          "internalType": "address",
          "name": "operator",
          "type": "address"
        },
        {
          "indexed": true,
          "internalType": "address",
          "name": "from",
          "type": "address"
        },
        {
          "indexed": true,
          "internalType": "address",
          "name": "to",
          "type": "address"
        },
        {
          "indexed": false,
          "internalType": "uint256[]",
          "name": "ids",
          "type": "uint256[]"
        },
        {
          "indexed": false,
          "internalType": "uint256[]",
          "name": "values",
          "type": "uint256[]"
        }
      ],
      "name": "TransferBatch",
      "type": "event"
    },
    {
      "anonymous": false,
      "inputs": [
        {
          "indexed": true,
          "internalType": "address",
          "name": "operator",
          "type": "address"
        },
        {
          "indexed": true,
          "internalType": "address",
          "name": "from",
          "type": "address"
        },
        {
          "indexed": true,
          "internalType": "address",
          "name": "to",
          "type": "address"
        },
        {
          "indexed": false,
          "internalType": "uint256",
          "name": "id",
          "type": "uint256"
        },
        {
          "indexed": false,
          "internalType": "uint256",
          "name": "value",
          "type": "uint256"
        }
      ],
      "name": "TransferSingle",
      "type": "event"
    },
    {
      "anonymous": false,
      "inputs": [
        {
          "indexed": false,
          "internalType": "string",
          "name": "value",
          "type": "string"
        },
        {
          "indexed": true,
          "internalType": "uint256",
          "name": "id",
          "type": "uint256"
        }
      ],
      "name": "URI",
      "type": "event"
    },
    {
      "anonymous": false,
      "inputs": [],
      "name": "UnLockTokenTransfer",
      "type": "event"
    },
    {
      "anonymous": false,
      "inputs": [],
      "name": "Unpause",
      "type": "event"
    },
    {
      "anonymous": false,
      "inputs": [
        {
          "indexed": false,
          "internalType": "address",
          "name": "account",
          "type": "address"
        }
      ],
      "name": "Unpaused",
      "type": "event"
    },
    {
      "anonymous": false,
      "inputs": [
        {
          "indexed": false,
          "internalType": "string",
          "name": "newUri",
          "type": "string"
        }
      ],
      "name": "UriUpdate",
      "type": "event"
    },
    {
      "inputs": [],
      "name": "ASTEROIDS",
      "outputs": [
        {
          "internalType": "uint256",
          "name": "",
          "type": "uint256"
        }
      ],
      "stateMutability": "view",
      "type": "function"
    },
    {
      "inputs": [],
      "name": "BF_BURN_ROLE",
      "outputs": [
        {
          "internalType": "bytes32",
          "name": "",
          "type": "bytes32"
        }
      ],
      "stateMutability": "view",
      "type": "function"
    },
    {
      "inputs": [],
      "name": "BF_MINT_ROLE",
      "outputs": [
        {
          "internalType": "bytes32",
          "name": "",
          "type": "bytes32"
        }
      ],
      "stateMutability": "view",
      "type": "function"
    },
    {
      "inputs": [],
      "name": "CAN_PAUSE_ROLE",
      "outputs": [
        {
          "internalType": "bytes32",
          "name": "",
          "type": "bytes32"
        }
      ],
      "stateMutability": "view",
      "type": "function"
    },
    {
      "inputs": [],
      "name": "CAN_UNPAUSE_ROLE",
      "outputs": [
        {
          "internalType": "bytes32",
          "name": "",
          "type": "bytes32"
        }
      ],
      "stateMutability": "view",
      "type": "function"
    },
    {
      "inputs": [],
      "name": "DECORATIONS_BURN_ROLE",
      "outputs": [
        {
          "internalType": "bytes32",
          "name": "",
          "type": "bytes32"
        }
      ],
      "stateMutability": "view",
      "type": "function"
    },
    {
      "inputs": [],
      "name": "DECORATIONS_MINT_ROLE",
      "outputs": [
        {
          "internalType": "bytes32",
          "name": "",
          "type": "bytes32"
        }
      ],
      "stateMutability": "view",
      "type": "function"
    },
    {
      "inputs": [],
      "name": "DEFAULT_ADMIN_ROLE",
      "outputs": [
        {
          "internalType": "bytes32",
          "name": "",
          "type": "bytes32"
        }
      ],
      "stateMutability": "view",
      "type": "function"
    },
    {
      "inputs": [],
      "name": "DOUBLOONS",
      "outputs": [
        {
          "internalType": "uint256",
          "name": "",
          "type": "uint256"
        }
      ],
      "stateMutability": "view",
      "type": "function"
    },
    {
      "inputs": [],
      "name": "ITEMS_BURN_ROLE",
      "outputs": [
        {
          "internalType": "bytes32",
          "name": "",
          "type": "bytes32"
        }
      ],
      "stateMutability": "view",
      "type": "function"
    },
    {
      "inputs": [],
      "name": "ITEMS_MINT_ROLE",
      "outputs": [
        {
          "internalType": "bytes32",
          "name": "",
          "type": "bytes32"
        }
      ],
      "stateMutability": "view",
      "type": "function"
    },
    {
      "inputs": [],
      "name": "STK_ASTEROIDS",
      "outputs": [
        {
          "internalType": "uint256",
          "name": "",
          "type": "uint256"
        }
      ],
      "stateMutability": "view",
      "type": "function"
    },
    {
      "inputs": [],
      "name": "TITLES_BURN_ROLE",
      "outputs": [
        {
          "internalType": "bytes32",
          "name": "",
          "type": "bytes32"
        }
      ],
      "stateMutability": "view",
      "type": "function"
    },
    {
      "inputs": [],
      "name": "TITLES_MINT_ROLE",
      "outputs": [
        {
          "internalType": "bytes32",
          "name": "",
          "type": "bytes32"
        }
      ],
      "stateMutability": "view",
      "type": "function"
    },
    {
      "inputs": [],
      "name": "TRANSFERABLE_SETTER_ROLE",
      "outputs": [
        {
          "internalType": "bytes32",
          "name": "",
          "type": "bytes32"
        }
      ],
      "stateMutability": "view",
      "type": "function"
    },
    {
      "inputs": [],
      "name": "URI_SETTER_ROLE",
      "outputs": [
        {
          "internalType": "bytes32",
          "name": "",
          "type": "bytes32"
        }
      ],
      "stateMutability": "view",
      "type": "function"
    },
    {
      "inputs": [],
      "name": "VE_ASTEROIDS",
      "outputs": [
        {
          "internalType": "uint256",
          "name": "",
          "type": "uint256"
        }
      ],
      "stateMutability": "view",
      "type": "function"
    },
    {
      "inputs": [],
      "name": "WRAPPED_BURN_ROLE",
      "outputs": [
        {
          "internalType": "bytes32",
          "name": "",
          "type": "bytes32"
        }
      ],
      "stateMutability": "view",
      "type": "function"
    },
    {
      "inputs": [],
      "name": "WRAPPED_MINT_ROLE",
      "outputs": [
        {
          "internalType": "bytes32",
          "name": "",
          "type": "bytes32"
        }
      ],
      "stateMutability": "view",
      "type": "function"
    },
    {
      "inputs": [
        {
          "internalType": "address",
          "name": "account",
          "type": "address"
        },
        {
          "internalType": "uint256",
          "name": "id",
          "type": "uint256"
        }
      ],
      "name": "balanceOf",
      "outputs": [
        {
          "internalType": "uint256",
          "name": "",
          "type": "uint256"
        }
      ],
      "stateMutability": "view",
      "type": "function"
    },
    {
      "inputs": [
        {
          "internalType": "address[]",
          "name": "accounts",
          "type": "address[]"
        },
        {
          "internalType": "uint256[]",
          "name": "ids",
          "type": "uint256[]"
        }
      ],
      "name": "balanceOfBatch",
      "outputs": [
        {
          "internalType": "uint256[]",
          "name": "",
          "type": "uint256[]"
        }
      ],
      "stateMutability": "view",
      "type": "function"
    },
    {
      "inputs": [
        {
          "internalType": "address",
          "name": "from",
          "type": "address"
        },
        {
          "internalType": "uint256",
          "name": "id",
          "type": "uint256"
        },
        {
          "internalType": "uint256",
          "name": "amount",
          "type": "uint256"
        }
      ],
      "name": "burn",
      "outputs": [],
      "stateMutability": "nonpayable",
      "type": "function"
    },
    {
      "inputs": [
        {
          "internalType": "address",
          "name": "from",
          "type": "address"
        },
        {
          "internalType": "uint256[]",
          "name": "ids",
          "type": "uint256[]"
        },
        {
          "internalType": "uint256[]",
          "name": "amounts",
          "type": "uint256[]"
        }
      ],
      "name": "burnBatch",
      "outputs": [],
      "stateMutability": "nonpayable",
      "type": "function"
    },
    {
      "inputs": [
        {
          "internalType": "uint256",
          "name": "id",
          "type": "uint256"
        }
      ],
      "name": "canBeTransferred",
      "outputs": [
        {
          "internalType": "bool",
          "name": "",
          "type": "bool"
        }
      ],
      "stateMutability": "view",
      "type": "function"
    },
    {
      "inputs": [
        {
          "internalType": "uint256",
          "name": "id",
          "type": "uint256"
        }
      ],
      "name": "exists",
      "outputs": [
        {
          "internalType": "bool",
          "name": "",
          "type": "bool"
        }
      ],
      "stateMutability": "view",
      "type": "function"
    },
    {
      "inputs": [
        {
          "internalType": "bytes32",
          "name": "role",
          "type": "bytes32"
        }
      ],
      "name": "getRoleAdmin",
      "outputs": [
        {
          "internalType": "bytes32",
          "name": "",
          "type": "bytes32"
        }
      ],
      "stateMutability": "view",
      "type": "function"
    },
    {
      "inputs": [
        {
          "internalType": "bytes32[]",
          "name": "roles",
          "type": "bytes32[]"
        },
        {
          "internalType": "address[]",
          "name": "accounts",
          "type": "address[]"
        }
      ],
      "name": "grantMultiRole",
      "outputs": [],
      "stateMutability": "nonpayable",
      "type": "function"
    },
    {
      "inputs": [
        {
          "internalType": "bytes32",
          "name": "role",
          "type": "bytes32"
        },
        {
          "internalType": "address",
          "name": "account",
          "type": "address"
        }
      ],
      "name": "grantRole",
      "outputs": [],
      "stateMutability": "nonpayable",
      "type": "function"
    },
    {
      "inputs": [
        {
          "internalType": "bytes32",
          "name": "role",
          "type": "bytes32"
        },
        {
          "internalType": "address",
          "name": "account",
          "type": "address"
        }
      ],
      "name": "hasRole",
      "outputs": [
        {
          "internalType": "bool",
          "name": "",
          "type": "bool"
        }
      ],
      "stateMutability": "view",
      "type": "function"
    },
    {
      "inputs": [
        {
          "internalType": "address",
          "name": "account",
          "type": "address"
        },
        {
          "internalType": "address",
          "name": "operator",
          "type": "address"
        }
      ],
      "name": "isApprovedForAll",
      "outputs": [
        {
          "internalType": "bool",
          "name": "",
          "type": "bool"
        }
      ],
      "stateMutability": "view",
      "type": "function"
    },
    {
      "inputs": [
        {
          "internalType": "uint256",
          "name": "id",
          "type": "uint256"
        }
      ],
      "name": "lockTokenTransfer",
      "outputs": [],
      "stateMutability": "nonpayable",
      "type": "function"
    },
    {
      "inputs": [
        {
          "internalType": "address",
          "name": "to",
          "type": "address"
        },
        {
          "internalType": "uint256",
          "name": "id",
          "type": "uint256"
        },
        {
          "internalType": "uint256",
          "name": "amount",
          "type": "uint256"
        }
      ],
      "name": "mint",
      "outputs": [],
      "stateMutability": "nonpayable",
      "type": "function"
    },
    {
      "inputs": [
        {
          "internalType": "address",
          "name": "to",
          "type": "address"
        },
        {
          "internalType": "uint256[]",
          "name": "ids",
          "type": "uint256[]"
        },
        {
          "internalType": "uint256[]",
          "name": "amounts",
          "type": "uint256[]"
        }
      ],
      "name": "mintBatch",
      "outputs": [],
      "stateMutability": "nonpayable",
      "type": "function"
    },
    {
      "inputs": [],
      "name": "pause",
      "outputs": [],
      "stateMutability": "nonpayable",
      "type": "function"
    },
    {
      "inputs": [],
      "name": "paused",
      "outputs": [
        {
          "internalType": "bool",
          "name": "",
          "type": "bool"
        }
      ],
      "stateMutability": "view",
      "type": "function"
    },
    {
      "inputs": [
        {
          "internalType": "bytes32",
          "name": "role",
          "type": "bytes32"
        },
        {
          "internalType": "address",
          "name": "account",
          "type": "address"
        }
      ],
      "name": "renounceRole",
      "outputs": [],
      "stateMutability": "nonpayable",
      "type": "function"
    },
    {
      "inputs": [
        {
          "internalType": "bytes32[]",
          "name": "roles",
          "type": "bytes32[]"
        },
        {
          "internalType": "address[]",
          "name": "accounts",
          "type": "address[]"
        }
      ],
      "name": "revokeMultiRole",
      "outputs": [],
      "stateMutability": "nonpayable",
      "type": "function"
    },
    {
      "inputs": [
        {
          "internalType": "bytes32",
          "name": "role",
          "type": "bytes32"
        },
        {
          "internalType": "address",
          "name": "account",
          "type": "address"
        }
      ],
      "name": "revokeRole",
      "outputs": [],
      "stateMutability": "nonpayable",
      "type": "function"
    },
    {
      "inputs": [
        {
          "internalType": "address",
          "name": "from",
          "type": "address"
        },
        {
          "internalType": "address",
          "name": "to",
          "type": "address"
        },
        {
          "internalType": "uint256[]",
          "name": "ids",
          "type": "uint256[]"
        },
        {
          "internalType": "uint256[]",
          "name": "amounts",
          "type": "uint256[]"
        },
        {
          "internalType": "bytes",
          "name": "data",
          "type": "bytes"
        }
      ],
      "name": "safeBatchTransferFrom",
      "outputs": [],
      "stateMutability": "nonpayable",
      "type": "function"
    },
    {
      "inputs": [
        {
          "internalType": "address",
          "name": "from",
          "type": "address"
        },
        {
          "internalType": "address",
          "name": "to",
          "type": "address"
        },
        {
          "internalType": "uint256",
          "name": "id",
          "type": "uint256"
        },
        {
          "internalType": "uint256",
          "name": "amount",
          "type": "uint256"
        },
        {
          "internalType": "bytes",
          "name": "data",
          "type": "bytes"
        }
      ],
      "name": "safeTransferFrom",
      "outputs": [],
      "stateMutability": "nonpayable",
      "type": "function"
    },
    {
      "inputs": [
        {
          "internalType": "address",
          "name": "operator",
          "type": "address"
        },
        {
          "internalType": "bool",
          "name": "approved",
          "type": "bool"
        }
      ],
      "name": "setApprovalForAll",
      "outputs": [],
      "stateMutability": "nonpayable",
      "type": "function"
    },
    {
      "inputs": [
        {
          "internalType": "string",
          "name": "newUri",
          "type": "string"
        }
      ],
      "name": "setURI",
      "outputs": [],
      "stateMutability": "nonpayable",
      "type": "function"
    },
    {
      "inputs": [
        {
          "internalType": "bytes4",
          "name": "interfaceId",
          "type": "bytes4"
        }
      ],
      "name": "supportsInterface",
      "outputs": [
        {
          "internalType": "bool",
          "name": "",
          "type": "bool"
        }
      ],
      "stateMutability": "view",
      "type": "function"
    },
    {
      "inputs": [
        {
          "internalType": "uint256",
          "name": "id",
          "type": "uint256"
        }
      ],
      "name": "totalSupply",
      "outputs": [
        {
          "internalType": "uint256",
          "name": "",
          "type": "uint256"
        }
      ],
      "stateMutability": "view",
      "type": "function"
    },
    {
      "inputs": [
        {
          "internalType": "uint256",
          "name": "id",
          "type": "uint256"
        }
      ],
      "name": "unLockTokenTransfer",
      "outputs": [],
      "stateMutability": "nonpayable",
      "type": "function"
    },
    {
      "inputs": [],
      "name": "unpause",
      "outputs": [],
      "stateMutability": "nonpayable",
      "type": "function"
    },
    {
      "inputs": [
        {
          "internalType": "uint256",
          "name": "id",
          "type": "uint256"
        }
      ],
      "name": "uri",
      "outputs": [
        {
          "internalType": "string",
          "name": "",
          "type": "string"
        }
      ],
      "stateMutability": "view",
      "type": "function"
    }
  ],
  "bytecode": "0x60806040523480156200001157600080fd5b5060405162004774380380620047748339810160408190526200003491620008e5565b6000805460ff19169055806200004a81620000ba565b506200007933600169d3c21bcecceda100000060405180602001604052806000815250620000d360201b60201c565b620000a633600268056bc75e2d6310000060405180602001604052806000815250620000d360201b60201c565b620000b360003362000208565b5062000bb9565b8051620000cf9060059060208401906200080e565b5050565b6001600160a01b038416620001395760405162461bcd60e51b815260206004820152602160248201527f455243313135353a206d696e7420746f20746865207a65726f206164647265736044820152607360f81b60648201526084015b60405180910390fd5b336000620001478562000214565b90506000620001568562000214565b905062000169836000898585896200026e565b60008681526002602090815260408083206001600160a01b038b168452909152812080548792906200019d90849062000a0d565b909155505060408051878152602081018790526001600160a01b03808a1692600092918716917fc3d58168c5ae7397731d063d5bbf3d657854427343f4c083240f7aacaa2d0f62910160405180910390a4620001ff836000898989896200057e565b50505050505050565b620000cf82826200075b565b604080516001808252818301909252606091600091906020808301908036833701905050905082816000815181106200025d57634e487b7160e01b600052603260045260246000fd5b602090810291909101015292915050565b60005460ff1615620002d85760405162461bcd60e51b815260206004820152602c60248201527f455243313135355061757361626c653a20746f6b656e207472616e736665722060448201526b1dda1a5b19481c185d5cd95960a21b606482015260840162000130565b6001600160a01b03851615801590620002f957506001600160a01b03841615155b15620003b35760005b8351811015620003b157600460008583815181106200033157634e487b7160e01b600052603260045260246000fd5b60209081029190910181015182528101919091526040016000205460ff16156200039e5760405162461bcd60e51b815260206004820152601f60248201527f455243313135353a20746f6b656e206e6f74207472616e7366657261626c6500604482015260640162000130565b620003a98162000ac7565b905062000302565b505b6001600160a01b0385166200045f5760005b83518110156200045d57828181518110620003f057634e487b7160e01b600052603260045260246000fd5b6020026020010151600160008684815181106200041d57634e487b7160e01b600052603260045260246000fd5b60200260200101518152602001908152602001600020600082825462000444919062000a0d565b909155506200045590508162000ac7565b9050620003c5565b505b6001600160a01b038416620005765760005b8351811015620001ff5760008482815181106200049e57634e487b7160e01b600052603260045260246000fd5b602002602001015190506000848381518110620004cb57634e487b7160e01b600052603260045260246000fd5b6020026020010151905060006001600084815260200190815260200160002054905081811015620005505760405162461bcd60e51b815260206004820152602860248201527f455243313135353a206275726e20616d6f756e74206578636565647320746f74604482015267616c537570706c7960c01b606482015260840162000130565b600092835260016020526040909220910390556200056e8162000ac7565b905062000471565b505050505050565b6200059d846001600160a01b0316620007ff60201b620013ab1760201c565b15620005765760405163f23a6e6160e01b81526001600160a01b0385169063f23a6e6190620005d99089908990889088908890600401620009b1565b602060405180830381600087803b158015620005f457600080fd5b505af192505050801562000627575060408051601f3d908101601f191682019092526200062491810190620008b4565b60015b620006e8576200063662000b11565b806308c379a014156200067757506200064e62000b2a565b806200065b575062000679565b8060405162461bcd60e51b8152600401620001309190620009f8565b505b60405162461bcd60e51b815260206004820152603460248201527f455243313135353a207472616e7366657220746f206e6f6e204552433131353560448201527f526563656976657220696d706c656d656e746572000000000000000000000000606482015260840162000130565b6001600160e01b0319811663f23a6e6160e01b14620001ff5760405162461bcd60e51b815260206004820152602860248201527f455243313135353a204552433131353552656365697665722072656a656374656044820152676420746f6b656e7360c01b606482015260840162000130565b60008281526006602090815260408083206001600160a01b038516845290915290205460ff16620000cf5760008281526006602090815260408083206001600160a01b03851684529091529020805460ff19166001179055620007bb3390565b6001600160a01b0316816001600160a01b0316837f2f8788117e7eff1d82e926ec794901d17c78024a50270940304540a733656f0d60405160405180910390a45050565b6001600160a01b03163b151590565b8280546200081c9062000a5b565b90600052602060002090601f0160209004810192826200084057600085556200088b565b82601f106200085b57805160ff19168380011785556200088b565b828001600101855582156200088b579182015b828111156200088b5782518255916020019190600101906200086e565b50620008999291506200089d565b5090565b5b808211156200089957600081556001016200089e565b600060208284031215620008c6578081fd5b81516001600160e01b031981168114620008de578182fd5b9392505050565b600060208284031215620008f7578081fd5b81516001600160401b03808211156200090e578283fd5b818401915084601f83011262000922578283fd5b81518181111562000937576200093762000afb565b604051915062000952601f8201601f19166020018362000a98565b80825285602082850101111562000967578384fd5b6200097a81602084016020860162000a28565b50949350505050565b600081518084526200099d81602086016020860162000a28565b601f01601f19169290920160200192915050565b6001600160a01b03868116825285166020820152604081018490526060810183905260a060808201819052600090620009ed9083018462000983565b979650505050505050565b602081526000620008de602083018462000983565b6000821982111562000a235762000a2362000ae5565b500190565b60005b8381101562000a4557818101518382015260200162000a2b565b8381111562000a55576000848401525b50505050565b600181811c9082168062000a7057607f821691505b6020821081141562000a9257634e487b7160e01b600052602260045260246000fd5b50919050565b601f8201601f191681016001600160401b038111828210171562000ac05762000ac062000afb565b6040525050565b600060001982141562000ade5762000ade62000ae5565b5060010190565b634e487b7160e01b600052601160045260246000fd5b634e487b7160e01b600052604160045260246000fd5b600060033d111562000b2757600481823e5160e01c5b90565b600060443d101562000b395790565b6040516003193d81016004833e81513d6001600160401b03808311602484018310171562000b6957505050505090565b828501915081518181111562000b825750505050505090565b843d870101602082850101111562000b9d5750505050505090565b62000bae6020828601018762000a98565b509095945050505050565b613bab8062000bc96000396000f3fe608060405234801561001057600080fd5b50600436106102945760003560e01c80637f34571011610167578063c68c44ff116100ce578063e622f4b111610087578063e622f4b1146106cf578063e9098d9c146106e2578063e985e9c514610709578063f242432a14610745578063f4481de014610758578063f5298aca1461076b57600080fd5b8063c68c44ff1461062f578063c89999d014610637578063c971b18c1461065b578063d547741f14610682578063d81d0a1514610695578063e00b587a146106a857600080fd5b8063a22cb46511610120578063a22cb46514610574578063a8ee062814610587578063b517d1cc146105ae578063b5e6f555146105c1578063bd85b039146105e8578063c67824621461060857600080fd5b80637f345710146104dc5780638456cb591461050357806385d5084b1461050b5780638fa459e31461053257806391d1485414610559578063a217fddf1461056c57600080fd5b8063380b1d411161020b5780634f558e79116101c45780634f558e791461044657806359590b32146104685780635c975abb1461048f5780635cd569551461049a5780636712627d146104c15780636b20c454146104c957600080fd5b8063380b1d41146103b5578063391c3891146103dc5780633c71cfa2146103ef5780633f4ba83a146103f757806347b291cd146103ff5780634e1273f41461042657600080fd5b8063156e29f61161025d578063156e29f61461033e578063248a9ca3146103515780632eb2c2d6146103745780632f2ff15d1461038757806331e61ea61461039a57806336568abe146103a257600080fd5b8062fdd58e1461029957806301ffc9a7146102bf57806302fe5305146102e25780630e89341c146102f7578063124130b714610317575b600080fd5b6102ac6102a7366004613106565b61077e565b6040519081526020015b60405180910390f35b6102d26102cd3660046132cd565b610816565b60405190151581526020016102b6565b6102f56102f0366004613305565b610827565b005b61030a610305366004613293565b610895565b6040516102b69190613693565b6102ac7fae196802966ddb0eed808e030e9905b906ad173665ebaa4ec3254544456d188e81565b6102f561034c36600461312f565b610936565b6102ac61035f366004613293565b60009081526006602052604090206001015490565b6102f5610382366004612f48565b6109a6565b6102f56103953660046132ab565b610a3d565b6102ac600381565b6102f56103b03660046132ab565b610aa6565b6102ac7f77fe00f5aaa81d64d9f55d8616be0398bce160f21a075e1635f854dc0c69a57281565b6102f56103ea36600461322b565b610b24565b6102ac600481565b6102f5610c62565b6102ac7fcc0ccd8bd17a2b44b8083daff945bb3afbdb74c75c0d0ade0c1d73872f3da2b781565b610439610434366004613161565b610cc0565b6040516102b6919061365b565b6102d2610454366004613293565b600090815260016020526040902054151590565b6102ac7f5a858fceef8a0916707e3b8d20381bb4869a55f766ca6b98b79a65718c1af55c81565b60005460ff166102d2565b6102ac7f7b4d2faaff6bdaace990e24462dcf2739c3533574e81f2cb36eeec6d9d91a63e81565b6102ac600281565b6102f56104d736600461304f565b610e21565b6102ac7f7804d923f43a17d325d77e781528e0793b2edd9890ab45fc64efd7b4b427744c81565b6102f5610f1f565b6102ac7f2b4969f19539c2db676e85f97d2bd9db7c07cb467eb0cd96476827285a03148481565b6102ac7f6a5cf4fbc764663782b6c69f42c0b62dfba03c7e30fcffbf9480a5d3db112ef581565b6102d26105673660046132ab565b610f7d565b6102ac600081565b6102f56105823660046130cc565b610fa8565b6102ac7fc9753cc6a12b1d2aa87c7b66743185706ef6ec8328f4ea4f1bb99f0cac77045781565b6102f56105bc366004613293565b610fb3565b6102ac7f570fae637af42631540d61792ad6c3a38622f6396680bd058c94992df958932e81565b6102ac6105f6366004613293565b60009081526001602052604090205490565b6102ac7fd1b4dc7e91c020dd9a22a12df8a310edc9b278f858f001ba89798b0309dc366681565b6102ac600181565b6102d2610645366004613293565b60009081526004602052604090205460ff161590565b6102ac7f72275d2d7cdf971af1091b6e0e4e2863c24b00b92a68a8e7184cc5d55ff619e281565b6102f56106903660046132ab565b611023565b6102f56106a336600461304f565b611083565b6102ac7f8a971267dda73f2bbe888f9ed240c21afb5a5980f7b1e92aeafaad3880dac52f81565b6102f56106dd366004613293565b611161565b6102ac7fd241016ee141eea33ebd00967f7f7843377cf319f71a1070675110119fb86c0181565b6102d2610717366004612f16565b6001600160a01b03918216600090815260036020908152604080832093909416825291909152205460ff1690565b6102f5610753366004612fed565b6111cb565b6102f561076636600461322b565b611210565b6102f561077936600461312f565b61131e565b60006001600160a01b0383166107ee5760405162461bcd60e51b815260206004820152602a60248201527f455243313135353a2061646472657373207a65726f206973206e6f742061207660448201526930b634b21037bbb732b960b11b60648201526084015b60405180910390fd5b5060009081526002602090815260408083206001600160a01b03949094168352929052205490565b6000610821826113ba565b92915050565b7f7804d923f43a17d325d77e781528e0793b2edd9890ab45fc64efd7b4b427744c610851816113df565b61085a826113ec565b7ff5812106a5117622bd79cfb5006bd04706a128a2c4830dd03e5f8a17b1eb7483826040516108899190613693565b60405180910390a15050565b6000818152600160205260409020546060906109045760405162461bcd60e51b815260206004820152602860248201527f455243313135353a2055524920717565727920666f72206e6f6e657869737465604482015267373a103a37b5b2b760c11b60648201526084016107e5565b600561090f836113ff565b60405160200161092092919061342a565b6040516020818303038152906040529050919050565b61093f82611520565b61095a83838360405180602001604052806000815250611739565b60408051838152602081018390526001600160a01b0385169133917fdbba30eb0402b389513e87f51f4db2db80bed454384ec6925a24097c3548a02a91015b60405180910390a3505050565b6001600160a01b0385163314806109c257506109c28533610717565b610a295760405162461bcd60e51b815260206004820152603260248201527f455243313135353a207472616e736665722063616c6c6572206973206e6f74206044820152711bdddb995c881b9bdc88185c1c1c9bdd995960721b60648201526084016107e5565b610a368585858585611824565b5050505050565b600082815260066020526040902060010154610a58816113df565b610a6283836119ed565b6040516001600160a01b038316815283907f5a06360d65acf95e98445dc834f205063424c636e65418d928cdfabc33a95399906020015b60405180910390a2505050565b6001600160a01b0381163314610b165760405162461bcd60e51b815260206004820152602f60248201527f416363657373436f6e74726f6c3a2063616e206f6e6c792072656e6f756e636560448201526e103937b632b9903337b91039b2b63360891b60648201526084016107e5565b610b208282611a73565b5050565b828114610b435760405162461bcd60e51b81526004016107e59061377b565b60005b83811015610c0a57610b96610b90868684818110610b7457634e487b7160e01b600052603260045260246000fd5b9050602002013560009081526006602052604090206001015490565b33611ada565b610bfa858583818110610bb957634e487b7160e01b600052603260045260246000fd5b90506020020135848484818110610be057634e487b7160e01b600052603260045260246000fd5b9050602002016020810190610bf59190612efc565b611a73565b610c0381613a4d565b9050610b46565b508383604051610c1b929190613400565b60405180910390207fde14d5e6084c46f384087d8cb38584d2d8520dd6248e6e9c14f7cdf2c8246abf8383604051610c549291906135e8565b60405180910390a250505050565b7f2b4969f19539c2db676e85f97d2bd9db7c07cb467eb0cd96476827285a031484610c8c816113df565b610c94611b3e565b6040517f7805862f689e2f13df9f062ff482ad3ad112aca9e0847911ed832e158c525b3390600090a150565b60608151835114610d255760405162461bcd60e51b815260206004820152602960248201527f455243313135353a206163636f756e747320616e6420696473206c656e677468604482015268040dad2e6dac2e8c6d60bb1b60648201526084016107e5565b600083516001600160401b03811115610d4e57634e487b7160e01b600052604160045260246000fd5b604051908082528060200260200182016040528015610d77578160200160208202803683370190505b50905060005b8451811015610e1957610dde858281518110610da957634e487b7160e01b600052603260045260246000fd5b6020026020010151858381518110610dd157634e487b7160e01b600052603260045260246000fd5b602002602001015161077e565b828281518110610dfe57634e487b7160e01b600052603260045260246000fd5b6020908102919091010152610e1281613a4d565b9050610d7d565b509392505050565b6001600160a01b038516331480610e3d5750610e3d8533610717565b610e595760405162461bcd60e51b81526004016107e590613732565b610e638484611b90565b610ed18585858080602002602001604051908101604052809392919081815260200183836020028082843760009201919091525050604080516020808902828101820190935288825290935088925087918291850190849080828437600092019190915250611bdf92505050565b846001600160a01b03167fc654fa60d2a625ee021b1ac30960810e81f72997250f9fe91c3c443690c47cdf85858585604051610f109493929190613634565b60405180910390a25050505050565b7f5a858fceef8a0916707e3b8d20381bb4869a55f766ca6b98b79a65718c1af55c610f49816113df565b610f51611d9c565b6040517f6985a02210a168e66602d3235cb6db0e70f92b3ba4d376a33c0f3d9434bff62590600090a150565b60009182526006602090815260408084206001600160a01b0393909316845291905290205460ff1690565b610b20338383611dd9565b7fae196802966ddb0eed808e030e9905b906ad173665ebaa4ec3254544456d188e610fdd816113df565b6000828152600460205260409020805460ff191660011790556040517fb8c06629fdf17815efad9716161b539d85d816e669e6975f41df31006bd834c190600090a15050565b60008281526006602052604090206001015461103e816113df565b6110488383611a73565b6040516001600160a01b038316815283907f76e6093c136cd7faa5a6d92b2b633f3b4595abd4a529b7a13917398355fea69490602001610a99565b61108d8484611eb2565b6111098585858080602002602001604051908101604052809392919081815260200183836020028082843760009201919091525050604080516020808902828101820190935288825290935088925087918291850190849080828437600092018290525060408051602081019091529081529250611efc915050565b846001600160a01b0316336001600160a01b03167fce8f0106078f9672a627da4c89d5493b0f7c05f59bcd228439a9698c00b1b5a7868686866040516111529493929190613634565b60405180910390a35050505050565b7fae196802966ddb0eed808e030e9905b906ad173665ebaa4ec3254544456d188e61118b816113df565b600082815260046020526040808220805460ff19169055517ff4d100eb5d3cef841f19482569859f9fd8276efe52b2f27bb9ff6737311e3b639190a15050565b6001600160a01b0385163314806111e757506111e78533610717565b6112035760405162461bcd60e51b81526004016107e590613732565b610a368585858585612073565b82811461122f5760405162461bcd60e51b81526004016107e59061377b565b60005b838110156112d457611260610b90868684818110610b7457634e487b7160e01b600052603260045260246000fd5b6112c485858381811061128357634e487b7160e01b600052603260045260246000fd5b905060200201358484848181106112aa57634e487b7160e01b600052603260045260246000fd5b90506020020160208101906112bf9190612efc565b6119ed565b6112cd81613a4d565b9050611232565b5083836040516112e5929190613400565b60405180910390207f75769898739b7fdc3a176bbde571a58229366802081bf5a21a9736473a17d95e8383604051610c549291906135e8565b6001600160a01b03831633148061133a575061133a8333610717565b6113565760405162461bcd60e51b81526004016107e590613732565b61135f826121af565b61136a8383836123b0565b60408051838152602081018390526001600160a01b038516917f49995e5dd6158cf69ad3e9777c46755a1a826a446c6416992167462dad033b2a9101610a99565b6001600160a01b03163b151590565b60006001600160e01b03198216637965db0b60e01b14806108215750610821826124cc565b6113e98133611ada565b50565b8051610b20906005906020840190612d0e565b6060816114235750506040805180820190915260018152600360fc1b602082015290565b8160005b811561144d578061143781613a4d565b91506114469050600a83613959565b9150611427565b6000816001600160401b0381111561147557634e487b7160e01b600052604160045260246000fd5b6040519080825280601f01601f19166020018201604052801561149f576020820181803683370190505b5090505b8415611518576114b460018361398c565b91506114c1600a86613a68565b6114cc906030613941565b60f81b8183815181106114ef57634e487b7160e01b600052603260045260246000fd5b60200101906001600160f81b031916908160001a905350611511600a86613959565b94506114a3565b949350505050565b6040516f1352539517d493d31157d193d497d25160821b602082015260308101829052611567906050015b6040516020818303038152906040528051906020012033610f7d565b1561156f5750565b60c78111158015611581575060648110155b80156115b257506115b27f570fae637af42631540d61792ad6c3a38622f6396680bd058c94992df958932e33610f7d565b156115ba5750565b61270f81111580156115ce57506103e88110155b80156115ff57506115ff7f8a971267dda73f2bbe888f9ed240c21afb5a5980f7b1e92aeafaad3880dac52f33610f7d565b156116075750565b614e1f811115801561161b57506127108110155b801561164c575061164c7fd241016ee141eea33ebd00967f7f7843377cf319f71a1070675110119fb86c0133610f7d565b156116545750565b6201869f81111580156116695750614e208110155b801561169a575061169a7f77fe00f5aaa81d64d9f55d8616be0398bce160f21a075e1635f854dc0c69a57233610f7d565b156116a25750565b62030d3f81111580156116b85750620186a08110155b80156116e957506116e97f6a5cf4fbc764663782b6c69f42c0b62dfba03c7e30fcffbf9480a5d3db112ef533610f7d565b156116f15750565b60405162461bcd60e51b815260206004820181905260248201527f416363657373436f6e74726f6c3a206d697373696e67206d696e7420726f6c6560448201526064016107e5565b6001600160a01b03841661175f5760405162461bcd60e51b81526004016107e5906138dd565b33600061176b8561251c565b905060006117788561251c565b905061178983600089858589612575565b60008681526002602090815260408083206001600160a01b038b168452909152812080548792906117bb908490613941565b909155505060408051878152602081018790526001600160a01b03808a1692600092918716917fc3d58168c5ae7397731d063d5bbf3d657854427343f4c083240f7aacaa2d0f62910160405180910390a461181b83600089898989612860565b50505050505050565b81518351146118455760405162461bcd60e51b81526004016107e590613895565b6001600160a01b03841661186b5760405162461bcd60e51b81526004016107e5906137c3565b3361187a818787878787612575565b60005b845181101561197f5760008582815181106118a857634e487b7160e01b600052603260045260246000fd5b6020026020010151905060008583815181106118d457634e487b7160e01b600052603260045260246000fd5b60209081029190910181015160008481526002835260408082206001600160a01b038e1683529093529190912054909150818110156119255760405162461bcd60e51b81526004016107e59061384b565b60008381526002602090815260408083206001600160a01b038e8116855292528083208585039055908b16825281208054849290611964908490613941565b925050819055505050508061197890613a4d565b905061187d565b50846001600160a01b0316866001600160a01b0316826001600160a01b03167f4a39dc06d4c0dbc64b70af90fd698a233a518aa5d07e595d983b8c0526c8f7fb87876040516119cf92919061366e565b60405180910390a46119e58187878787876129cb565b505050505050565b6119f78282610f7d565b610b205760008281526006602090815260408083206001600160a01b03851684529091529020805460ff19166001179055611a2f3390565b6001600160a01b0316816001600160a01b0316837f2f8788117e7eff1d82e926ec794901d17c78024a50270940304540a733656f0d60405160405180910390a45050565b611a7d8282610f7d565b15610b205760008281526006602090815260408083206001600160a01b0385168085529252808320805460ff1916905551339285917ff6391f5c32d9c69d2a47ea670b442974b53935d1edc7fd64eb21e047a839171b9190a45050565b611ae48282610f7d565b610b2057611afc816001600160a01b03166014612a95565b611b07836020612a95565b604051602001611b189291906134d0565b60408051601f198184030181529082905262461bcd60e51b82526107e591600401613693565b611b46612c7d565b6000805460ff191690557f5db9ee0a495bf2e6ff9c91a7834c1ba4fdd244a5e8aa4e537bd38aeae4b073aa335b6040516001600160a01b03909116815260200160405180910390a1565b60005b81811015611bda57611bca838383818110611bbe57634e487b7160e01b600052603260045260246000fd5b905060200201356121af565b611bd381613a4d565b9050611b93565b505050565b6001600160a01b038316611c055760405162461bcd60e51b81526004016107e590613808565b8051825114611c265760405162461bcd60e51b81526004016107e590613895565b6000339050611c4981856000868660405180602001604052806000815250612575565b60005b8351811015611d2d576000848281518110611c7757634e487b7160e01b600052603260045260246000fd5b602002602001015190506000848381518110611ca357634e487b7160e01b600052603260045260246000fd5b60209081029190910181015160008481526002835260408082206001600160a01b038c168352909352919091205490915081811015611cf45760405162461bcd60e51b81526004016107e5906136ee565b60009283526002602090815260408085206001600160a01b038b1686529091529092209103905580611d2581613a4d565b915050611c4c565b5060006001600160a01b0316846001600160a01b0316826001600160a01b03167f4a39dc06d4c0dbc64b70af90fd698a233a518aa5d07e595d983b8c0526c8f7fb8686604051611d7e92919061366e565b60405180910390a46040805160208101909152600090525b50505050565b611da4612cc8565b6000805460ff191660011790557f62e78cea01bee320cd4e420270b5ea74000d11b0c9f74754ebdbfc544b05a258611b733390565b816001600160a01b0316836001600160a01b03161415611e4d5760405162461bcd60e51b815260206004820152602960248201527f455243313135353a2073657474696e6720617070726f76616c20737461747573604482015268103337b91039b2b63360b91b60648201526084016107e5565b6001600160a01b03838116600081815260036020908152604080832094871680845294825291829020805460ff191686151590811790915591519182527f17307eab39ab6107e8899845ad3d59bd9653f200f220920489ca2b5937696c319101610999565b60005b81811015611bda57611eec838383818110611ee057634e487b7160e01b600052603260045260246000fd5b90506020020135611520565b611ef581613a4d565b9050611eb5565b6001600160a01b038416611f225760405162461bcd60e51b81526004016107e5906138dd565b8151835114611f435760405162461bcd60e51b81526004016107e590613895565b33611f5381600087878787612575565b60005b845181101561200b57838181518110611f7f57634e487b7160e01b600052603260045260246000fd5b602002602001015160026000878481518110611fab57634e487b7160e01b600052603260045260246000fd5b602002602001015181526020019081526020016000206000886001600160a01b03166001600160a01b031681526020019081526020016000206000828254611ff39190613941565b9091555081905061200381613a4d565b915050611f56565b50846001600160a01b031660006001600160a01b0316826001600160a01b03167f4a39dc06d4c0dbc64b70af90fd698a233a518aa5d07e595d983b8c0526c8f7fb878760405161205c92919061366e565b60405180910390a4610a36816000878787876129cb565b6001600160a01b0384166120995760405162461bcd60e51b81526004016107e5906137c3565b3360006120a58561251c565b905060006120b28561251c565b90506120c2838989858589612575565b60008681526002602090815260408083206001600160a01b038c168452909152902054858110156121055760405162461bcd60e51b81526004016107e59061384b565b60008781526002602090815260408083206001600160a01b038d8116855292528083208985039055908a16825281208054889290612144908490613941565b909155505060408051888152602081018890526001600160a01b03808b16928c821692918816917fc3d58168c5ae7397731d063d5bbf3d657854427343f4c083240f7aacaa2d0f62910160405180910390a46121a4848a8a8a8a8a612860565b505050505050505050565b6040516f1095549397d493d31157d193d497d25160821b6020820152603081018290526121de9060500161154b565b156121e65750565b60c781111580156121f8575060648110155b801561222957506122297fcc0ccd8bd17a2b44b8083daff945bb3afbdb74c75c0d0ade0c1d73872f3da2b733610f7d565b156122315750565b61270f811115801561224557506103e88110155b801561227657506122767fc9753cc6a12b1d2aa87c7b66743185706ef6ec8328f4ea4f1bb99f0cac77045733610f7d565b1561227e5750565b614e1f811115801561229257506127108110155b80156122c357506122c37f7b4d2faaff6bdaace990e24462dcf2739c3533574e81f2cb36eeec6d9d91a63e33610f7d565b156122cb5750565b6201869f81111580156122e05750614e208110155b801561231157506123117fd1b4dc7e91c020dd9a22a12df8a310edc9b278f858f001ba89798b0309dc366633610f7d565b156123195750565b62030d3f811115801561232f5750620186a08110155b801561236057506123607f72275d2d7cdf971af1091b6e0e4e2863c24b00b92a68a8e7184cc5d55ff619e233610f7d565b156123685750565b60405162461bcd60e51b815260206004820181905260248201527f416363657373436f6e74726f6c3a206d697373696e67206275726e20726f6c6560448201526064016107e5565b6001600160a01b0383166123d65760405162461bcd60e51b81526004016107e590613808565b3360006123e28461251c565b905060006123ef8461251c565b905061240f83876000858560405180602001604052806000815250612575565b60008581526002602090815260408083206001600160a01b038a168452909152902054848110156124525760405162461bcd60e51b81526004016107e5906136ee565b60008681526002602090815260408083206001600160a01b038b81168086529184528285208a8703905582518b81529384018a90529092908816917fc3d58168c5ae7397731d063d5bbf3d657854427343f4c083240f7aacaa2d0f62910160405180910390a460408051602081019091526000905261181b565b60006001600160e01b03198216636cdb3d1360e11b14806124fd57506001600160e01b031982166303a24d0760e21b145b8061082157506301ffc9a760e01b6001600160e01b0319831614610821565b6040805160018082528183019092526060916000919060208083019080368337019050509050828160008151811061256457634e487b7160e01b600052603260045260246000fd5b602090810291909101015292915050565b60005460ff16156125dd5760405162461bcd60e51b815260206004820152602c60248201527f455243313135355061757361626c653a20746f6b656e207472616e736665722060448201526b1dda1a5b19481c185d5cd95960a21b60648201526084016107e5565b6001600160a01b038516158015906125fd57506001600160a01b03841615155b156126af5760005b83518110156126ad576004600085838151811061263257634e487b7160e01b600052603260045260246000fd5b60209081029190910181015182528101919091526040016000205460ff161561269d5760405162461bcd60e51b815260206004820152601f60248201527f455243313135353a20746f6b656e206e6f74207472616e7366657261626c650060448201526064016107e5565b6126a681613a4d565b9050612605565b505b6001600160a01b0385166127525760005b8351811015612750578281815181106126e957634e487b7160e01b600052603260045260246000fd5b60200260200101516001600086848151811061271557634e487b7160e01b600052603260045260246000fd5b60200260200101518152602001908152602001600020600082825461273a9190613941565b90915550612749905081613a4d565b90506126c0565b505b6001600160a01b0384166119e55760005b835181101561181b57600084828151811061278e57634e487b7160e01b600052603260045260246000fd5b6020026020010151905060008483815181106127ba57634e487b7160e01b600052603260045260246000fd5b602002602001015190506000600160008481526020019081526020016000205490508181101561283d5760405162461bcd60e51b815260206004820152602860248201527f455243313135353a206275726e20616d6f756e74206578636565647320746f74604482015267616c537570706c7960c01b60648201526084016107e5565b6000928352600160205260409092209103905561285981613a4d565b9050612763565b6001600160a01b0384163b156119e55760405163f23a6e6160e01b81526001600160a01b0385169063f23a6e61906128a490899089908890889088906004016135a3565b602060405180830381600087803b1580156128be57600080fd5b505af19250505080156128ee575060408051601f3d908101601f191682019092526128eb918101906132e9565b60015b61299b576128fa613abe565b806308c379a01415612934575061290f613ad6565b8061291a5750612936565b8060405162461bcd60e51b81526004016107e59190613693565b505b60405162461bcd60e51b815260206004820152603460248201527f455243313135353a207472616e7366657220746f206e6f6e20455243313135356044820152732932b1b2b4bb32b91034b6b83632b6b2b73a32b960611b60648201526084016107e5565b6001600160e01b0319811663f23a6e6160e01b1461181b5760405162461bcd60e51b81526004016107e5906136a6565b6001600160a01b0384163b156119e55760405163bc197c8160e01b81526001600160a01b0385169063bc197c8190612a0f9089908990889088908890600401613545565b602060405180830381600087803b158015612a2957600080fd5b505af1925050508015612a59575060408051601f3d908101601f19168201909252612a56918101906132e9565b60015b612a65576128fa613abe565b6001600160e01b0319811663bc197c8160e01b1461181b5760405162461bcd60e51b81526004016107e5906136a6565b60606000612aa483600261396d565b612aaf906002613941565b6001600160401b03811115612ad457634e487b7160e01b600052604160045260246000fd5b6040519080825280601f01601f191660200182016040528015612afe576020820181803683370190505b509050600360fc1b81600081518110612b2757634e487b7160e01b600052603260045260246000fd5b60200101906001600160f81b031916908160001a905350600f60fb1b81600181518110612b6457634e487b7160e01b600052603260045260246000fd5b60200101906001600160f81b031916908160001a9053506000612b8884600261396d565b612b93906001613941565b90505b6001811115612c27576f181899199a1a9b1b9c1cb0b131b232b360811b85600f1660108110612bd557634e487b7160e01b600052603260045260246000fd5b1a60f81b828281518110612bf957634e487b7160e01b600052603260045260246000fd5b60200101906001600160f81b031916908160001a90535060049490941c93612c20816139cf565b9050612b96565b508315612c765760405162461bcd60e51b815260206004820181905260248201527f537472696e67733a20686578206c656e67746820696e73756666696369656e7460448201526064016107e5565b9392505050565b60005460ff16612cc65760405162461bcd60e51b815260206004820152601460248201527314185d5cd8589b194e881b9bdd081c185d5cd95960621b60448201526064016107e5565b565b60005460ff1615612cc65760405162461bcd60e51b815260206004820152601060248201526f14185d5cd8589b194e881c185d5cd95960821b60448201526064016107e5565b828054612d1a906139e6565b90600052602060002090601f016020900481019282612d3c5760008555612d82565b82601f10612d5557805160ff1916838001178555612d82565b82800160010185558215612d82579182015b82811115612d82578251825591602001919060010190612d67565b50612d8e929150612d92565b5090565b5b80821115612d8e5760008155600101612d93565b60006001600160401b03831115612dc057612dc0613aa8565b604051612dd7601f8501601f191660200182613a21565b809150838152848484011115612dec57600080fd5b83836020830137600060208583010152509392505050565b80356001600160a01b0381168114612e1b57600080fd5b919050565b60008083601f840112612e31578182fd5b5081356001600160401b03811115612e47578182fd5b6020830191508360208260051b8501011115612e6257600080fd5b9250929050565b600082601f830112612e79578081fd5b81356020612e868261391e565b604051612e938282613a21565b8381528281019150858301600585901b87018401881015612eb2578586fd5b855b85811015612ed057813584529284019290840190600101612eb4565b5090979650505050505050565b600082601f830112612eed578081fd5b612c7683833560208501612da7565b600060208284031215612f0d578081fd5b612c7682612e04565b60008060408385031215612f28578081fd5b612f3183612e04565b9150612f3f60208401612e04565b90509250929050565b600080600080600060a08688031215612f5f578081fd5b612f6886612e04565b9450612f7660208701612e04565b935060408601356001600160401b0380821115612f91578283fd5b612f9d89838a01612e69565b94506060880135915080821115612fb2578283fd5b612fbe89838a01612e69565b93506080880135915080821115612fd3578283fd5b50612fe088828901612edd565b9150509295509295909350565b600080600080600060a08688031215613004578081fd5b61300d86612e04565b945061301b60208701612e04565b9350604086013592506060860135915060808601356001600160401b03811115613043578182fd5b612fe088828901612edd565b600080600080600060608688031215613066578081fd5b61306f86612e04565b945060208601356001600160401b038082111561308a578283fd5b61309689838a01612e20565b909650945060408801359150808211156130ae578283fd5b506130bb88828901612e20565b969995985093965092949392505050565b600080604083850312156130de578182fd5b6130e783612e04565b9150602083013580151581146130fb578182fd5b809150509250929050565b60008060408385031215613118578182fd5b61312183612e04565b946020939093013593505050565b600080600060608486031215613143578081fd5b61314c84612e04565b95602085013595506040909401359392505050565b60008060408385031215613173578182fd5b82356001600160401b0380821115613189578384fd5b818501915085601f83011261319c578384fd5b813560206131a98261391e565b6040516131b68282613a21565b8381528281019150858301600585901b870184018b10156131d5578889fd5b8896505b848710156131fe576131ea81612e04565b8352600196909601959183019183016131d9565b5096505086013592505080821115613214578283fd5b5061322185828601612e69565b9150509250929050565b60008060008060408587031215613240578182fd5b84356001600160401b0380821115613256578384fd5b61326288838901612e20565b9096509450602087013591508082111561327a578384fd5b5061328787828801612e20565b95989497509550505050565b6000602082840312156132a4578081fd5b5035919050565b600080604083850312156132bd578182fd5b82359150612f3f60208401612e04565b6000602082840312156132de578081fd5b8135612c7681613b5f565b6000602082840312156132fa578081fd5b8151612c7681613b5f565b600060208284031215613316578081fd5b81356001600160401b0381111561332b578182fd5b8201601f8101841361333b578182fd5b61151884823560208401612da7565b81835260006001600160fb1b03831115613362578081fd5b8260051b80836020870137939093016020019283525090919050565b6000815180845260208085019450808401835b838110156133ad57815187529582019590820190600101613391565b509495945050505050565b600081518084526133d08160208601602086016139a3565b601f01601f19169290920160200192915050565b600081516133f68185602086016139a3565b9290920192915050565b60006001600160fb1b03831115613415578081fd5b8260051b808584379190910190815292915050565b600080845482600182811c91508083168061344657607f831692505b602080841082141561346657634e487b7160e01b87526022600452602487fd5b81801561347a576001811461348b576134b7565b60ff198616895284890196506134b7565b60008b815260209020885b868110156134af5781548b820152908501908301613496565b505084890196505b5050505050506134c781856133e4565b95945050505050565b7f416363657373436f6e74726f6c3a206163636f756e74200000000000000000008152600083516135088160178501602088016139a3565b7001034b99036b4b9b9b4b733903937b6329607d1b60179184019182015283516135398160288401602088016139a3565b01602801949350505050565b6001600160a01b0386811682528516602082015260a0604082018190526000906135719083018661337e565b8281036060840152613583818661337e565b9050828103608084015261359781856133b8565b98975050505050505050565b6001600160a01b03868116825285166020820152604081018490526060810183905260a0608082018190526000906135dd908301846133b8565b979650505050505050565b60208082528181018390526000908460408401835b86811015613629576001600160a01b0361361684612e04565b16825291830191908301906001016135fd565b509695505050505050565b60408152600061364860408301868861334a565b82810360208401526135dd81858761334a565b602081526000612c76602083018461337e565b604081526000613681604083018561337e565b82810360208401526134c7818561337e565b602081526000612c7660208301846133b8565b60208082526028908201527f455243313135353a204552433131353552656365697665722072656a656374656040820152676420746f6b656e7360c01b606082015260800190565b60208082526024908201527f455243313135353a206275726e20616d6f756e7420657863656564732062616c604082015263616e636560e01b606082015260800190565b60208082526029908201527f455243313135353a2063616c6c6572206973206e6f74206f776e6572206e6f7260408201526808185c1c1c9bdd995960ba1b606082015260800190565b60208082526028908201527f416363657373436f6e74726f6c3a206172726179206f6620646966666572656e6040820152670e840d8cadccee8d60c31b606082015260800190565b60208082526025908201527f455243313135353a207472616e7366657220746f20746865207a65726f206164604082015264647265737360d81b606082015260800190565b60208082526023908201527f455243313135353a206275726e2066726f6d20746865207a65726f206164647260408201526265737360e81b606082015260800190565b6020808252602a908201527f455243313135353a20696e73756666696369656e742062616c616e636520666f60408201526939103a3930b739b332b960b11b606082015260800190565b60208082526028908201527f455243313135353a2069647320616e6420616d6f756e7473206c656e677468206040820152670dad2e6dac2e8c6d60c31b606082015260800190565b60208082526021908201527f455243313135353a206d696e7420746f20746865207a65726f206164647265736040820152607360f81b606082015260800190565b60006001600160401b0382111561393757613937613aa8565b5060051b60200190565b6000821982111561395457613954613a7c565b500190565b60008261396857613968613a92565b500490565b600081600019048311821515161561398757613987613a7c565b500290565b60008282101561399e5761399e613a7c565b500390565b60005b838110156139be5781810151838201526020016139a6565b83811115611d965750506000910152565b6000816139de576139de613a7c565b506000190190565b600181811c908216806139fa57607f821691505b60208210811415613a1b57634e487b7160e01b600052602260045260246000fd5b50919050565b601f8201601f191681016001600160401b0381118282101715613a4657613a46613aa8565b6040525050565b6000600019821415613a6157613a61613a7c565b5060010190565b600082613a7757613a77613a92565b500690565b634e487b7160e01b600052601160045260246000fd5b634e487b7160e01b600052601260045260246000fd5b634e487b7160e01b600052604160045260246000fd5b600060033d1115613ad357600481823e5160e01c5b90565b600060443d1015613ae45790565b6040516003193d81016004833e81513d6001600160401b038160248401118184111715613b1357505050505090565b8285019150815181811115613b2b5750505050505090565b843d8701016020828501011115613b455750505050505090565b613b5460208286010187613a21565b509095945050505050565b6001600160e01b0319811681146113e957600080fdfea26469706673582212204141c4df5204cf1e35e1ed6ab0fb705d586c0fc466ee14f276c0c2f1e4a921a564736f6c63430008040033",
  "linkReferences": {},
  "deployedLinkReferences": {}
}