{
  "_format": "hh-sol-artifact-1",
  "contractName": "ERC1155Custom",
  "sourceName": "contracts/ERC1155Custom.sol",
  "abi": [
    {
      "inputs": [
        {
          "internalType": "string",
          "name": "uri_",
          "type": "string"
        }
      ],
      "stateMutability": "nonpayable",
      "type": "constructor"
    },
    {
      "anonymous": false,
      "inputs": [
        {
          "indexed": true,
          "internalType": "address",
          "name": "account",
          "type": "address"
        },
        {
          "indexed": true,
          "internalType": "address",
          "name": "operator",
          "type": "address"
        },
        {
          "indexed": false,
          "internalType": "bool",
          "name": "approved",
          "type": "bool"
        }
      ],
      "name": "ApprovalForAll",
      "type": "event"
    },
    {
      "anonymous": false,
      "inputs": [
        {
          "indexed": false,
          "internalType": "address",
          "name": "account",
          "type": "address"
        }
      ],
      "name": "Paused",
      "type": "event"
    },
    {
      "anonymous": false,
      "inputs": [
        {
          "indexed": true,
          "internalType": "address",
          "name": "operator",
          "type": "address"
        },
        {
          "indexed": true,
          "internalType": "address",
          "name": "from",
          "type": "address"
        },
        {
          "indexed": true,
          "internalType": "address",
          "name": "to",
          "type": "address"
        },
        {
          "indexed": false,
          "internalType": "uint256[]",
          "name": "ids",
          "type": "uint256[]"
        },
        {
          "indexed": false,
          "internalType": "uint256[]",
          "name": "values",
          "type": "uint256[]"
        }
      ],
      "name": "TransferBatch",
      "type": "event"
    },
    {
      "anonymous": false,
      "inputs": [
        {
          "indexed": true,
          "internalType": "address",
          "name": "operator",
          "type": "address"
        },
        {
          "indexed": true,
          "internalType": "address",
          "name": "from",
          "type": "address"
        },
        {
          "indexed": true,
          "internalType": "address",
          "name": "to",
          "type": "address"
        },
        {
          "indexed": false,
          "internalType": "uint256",
          "name": "id",
          "type": "uint256"
        },
        {
          "indexed": false,
          "internalType": "uint256",
          "name": "value",
          "type": "uint256"
        }
      ],
      "name": "TransferSingle",
      "type": "event"
    },
    {
      "anonymous": false,
      "inputs": [
        {
          "indexed": false,
          "internalType": "string",
          "name": "value",
          "type": "string"
        },
        {
          "indexed": true,
          "internalType": "uint256",
          "name": "id",
          "type": "uint256"
        }
      ],
      "name": "URI",
      "type": "event"
    },
    {
      "anonymous": false,
      "inputs": [
        {
          "indexed": false,
          "internalType": "address",
          "name": "account",
          "type": "address"
        }
      ],
      "name": "Unpaused",
      "type": "event"
    },
    {
      "inputs": [
        {
          "internalType": "address",
          "name": "account",
          "type": "address"
        },
        {
          "internalType": "uint256",
          "name": "id",
          "type": "uint256"
        }
      ],
      "name": "balanceOf",
      "outputs": [
        {
          "internalType": "uint256",
          "name": "",
          "type": "uint256"
        }
      ],
      "stateMutability": "view",
      "type": "function"
    },
    {
      "inputs": [
        {
          "internalType": "address[]",
          "name": "accounts",
          "type": "address[]"
        },
        {
          "internalType": "uint256[]",
          "name": "ids",
          "type": "uint256[]"
        }
      ],
      "name": "balanceOfBatch",
      "outputs": [
        {
          "internalType": "uint256[]",
          "name": "",
          "type": "uint256[]"
        }
      ],
      "stateMutability": "view",
      "type": "function"
    },
    {
      "inputs": [
        {
          "internalType": "uint256",
          "name": "id",
          "type": "uint256"
        }
      ],
      "name": "canBeTransferred",
      "outputs": [
        {
          "internalType": "bool",
          "name": "",
          "type": "bool"
        }
      ],
      "stateMutability": "view",
      "type": "function"
    },
    {
      "inputs": [
        {
          "internalType": "uint256",
          "name": "id",
          "type": "uint256"
        }
      ],
      "name": "exists",
      "outputs": [
        {
          "internalType": "bool",
          "name": "",
          "type": "bool"
        }
      ],
      "stateMutability": "view",
      "type": "function"
    },
    {
      "inputs": [
        {
          "internalType": "address",
          "name": "account",
          "type": "address"
        },
        {
          "internalType": "address",
          "name": "operator",
          "type": "address"
        }
      ],
      "name": "isApprovedForAll",
      "outputs": [
        {
          "internalType": "bool",
          "name": "",
          "type": "bool"
        }
      ],
      "stateMutability": "view",
      "type": "function"
    },
    {
      "inputs": [],
      "name": "paused",
      "outputs": [
        {
          "internalType": "bool",
          "name": "",
          "type": "bool"
        }
      ],
      "stateMutability": "view",
      "type": "function"
    },
    {
      "inputs": [
        {
          "internalType": "address",
          "name": "from",
          "type": "address"
        },
        {
          "internalType": "address",
          "name": "to",
          "type": "address"
        },
        {
          "internalType": "uint256[]",
          "name": "ids",
          "type": "uint256[]"
        },
        {
          "internalType": "uint256[]",
          "name": "amounts",
          "type": "uint256[]"
        },
        {
          "internalType": "bytes",
          "name": "data",
          "type": "bytes"
        }
      ],
      "name": "safeBatchTransferFrom",
      "outputs": [],
      "stateMutability": "nonpayable",
      "type": "function"
    },
    {
      "inputs": [
        {
          "internalType": "address",
          "name": "from",
          "type": "address"
        },
        {
          "internalType": "address",
          "name": "to",
          "type": "address"
        },
        {
          "internalType": "uint256",
          "name": "id",
          "type": "uint256"
        },
        {
          "internalType": "uint256",
          "name": "amount",
          "type": "uint256"
        },
        {
          "internalType": "bytes",
          "name": "data",
          "type": "bytes"
        }
      ],
      "name": "safeTransferFrom",
      "outputs": [],
      "stateMutability": "nonpayable",
      "type": "function"
    },
    {
      "inputs": [
        {
          "internalType": "address",
          "name": "operator",
          "type": "address"
        },
        {
          "internalType": "bool",
          "name": "approved",
          "type": "bool"
        }
      ],
      "name": "setApprovalForAll",
      "outputs": [],
      "stateMutability": "nonpayable",
      "type": "function"
    },
    {
      "inputs": [
        {
          "internalType": "bytes4",
          "name": "interfaceId",
          "type": "bytes4"
        }
      ],
      "name": "supportsInterface",
      "outputs": [
        {
          "internalType": "bool",
          "name": "",
          "type": "bool"
        }
      ],
      "stateMutability": "view",
      "type": "function"
    },
    {
      "inputs": [
        {
          "internalType": "uint256",
          "name": "id",
          "type": "uint256"
        }
      ],
      "name": "totalSupply",
      "outputs": [
        {
          "internalType": "uint256",
          "name": "",
          "type": "uint256"
        }
      ],
      "stateMutability": "view",
      "type": "function"
    },
    {
      "inputs": [
        {
          "internalType": "uint256",
          "name": "id",
          "type": "uint256"
        }
      ],
      "name": "uri",
      "outputs": [
        {
          "internalType": "string",
          "name": "",
          "type": "string"
        }
      ],
      "stateMutability": "view",
      "type": "function"
    }
  ],
  "bytecode": "0x60806040523480156200001157600080fd5b5060405162001c2838038062001c2883398101604081905262000034916200010f565b6000805460ff19169055620000498162000050565b5062000238565b80516200006590600590602084019062000069565b5050565b8280546200007790620001e5565b90600052602060002090601f0160209004810192826200009b5760008555620000e6565b82601f10620000b657805160ff1916838001178555620000e6565b82800160010185558215620000e6579182015b82811115620000e6578251825591602001919060010190620000c9565b50620000f4929150620000f8565b5090565b5b80821115620000f45760008155600101620000f9565b6000602080838503121562000122578182fd5b82516001600160401b038082111562000139578384fd5b818501915085601f8301126200014d578384fd5b81518181111562000162576200016262000222565b604051601f8201601f19908116603f011681019083821181831017156200018d576200018d62000222565b816040528281528886848701011115620001a5578687fd5b8693505b82841015620001c85784840186015181850187015292850192620001a9565b82841115620001d957868684830101525b98975050505050505050565b600181811c90821680620001fa57607f821691505b602082108114156200021c57634e487b7160e01b600052602260045260246000fd5b50919050565b634e487b7160e01b600052604160045260246000fd5b6119e080620002486000396000f3fe608060405234801561001057600080fd5b50600436106100b35760003560e01c80635c975abb116100715780635c975abb14610178578063a22cb46514610183578063bd85b03914610196578063c89999d0146101b6578063e985e9c5146101da578063f242432a1461021657600080fd5b8062fdd58e146100b857806301ffc9a7146100de5780630e89341c146101015780632eb2c2d6146101215780634e1273f4146101365780634f558e7914610156575b600080fd5b6100cb6100c6366004611382565b610229565b6040519081526020015b60405180910390f35b6100f16100ec366004611476565b6102c1565b60405190151581526020016100d5565b61011461010f3660046114b5565b610313565b6040516100d591906116d0565b61013461012f36600461123f565b6103b4565b005b6101496101443660046113ab565b61044b565b6040516100d59190611698565b6100f16101643660046114b5565b600090815260016020526040902054151590565b60005460ff166100f1565b610134610191366004611348565b6105ad565b6100cb6101a43660046114b5565b60009081526001602052604090205490565b6100f16101c43660046114b5565b60009081526004602052604090205460ff161590565b6100f16101e836600461120d565b6001600160a01b03918216600090815260036020908152604080832093909416825291909152205460ff1690565b6101346102243660046112e5565b6105bc565b60006001600160a01b0383166102995760405162461bcd60e51b815260206004820152602a60248201527f455243313135353a2061646472657373207a65726f206973206e6f742061207660448201526930b634b21037bbb732b960b11b60648201526084015b60405180910390fd5b5060009081526002602090815260408083206001600160a01b03949094168352929052205490565b60006001600160e01b03198216636cdb3d1360e11b14806102f257506001600160e01b031982166303a24d0760e21b145b8061030d57506301ffc9a760e01b6001600160e01b03198316145b92915050565b6000818152600160205260409020546060906103825760405162461bcd60e51b815260206004820152602860248201527f455243313135353a2055524920717565727920666f72206e6f6e657869737465604482015267373a103a37b5b2b760c11b6064820152608401610290565b600561038d83610643565b60405160200161039e92919061154f565b6040516020818303038152906040529050919050565b6001600160a01b0385163314806103d057506103d085336101e8565b6104375760405162461bcd60e51b815260206004820152603260248201527f455243313135353a207472616e736665722063616c6c6572206973206e6f74206044820152711bdddb995c881b9bdc88185c1c1c9bdd995960721b6064820152608401610290565b6104448585858585610765565b5050505050565b606081518351146104b05760405162461bcd60e51b815260206004820152602960248201527f455243313135353a206163636f756e747320616e6420696473206c656e677468604482015268040dad2e6dac2e8c6d60bb1b6064820152608401610290565b6000835167ffffffffffffffff8111156104da57634e487b7160e01b600052604160045260246000fd5b604051908082528060200260200182016040528015610503578160200160208202803683370190505b50905060005b84518110156105a55761056a85828151811061053557634e487b7160e01b600052603260045260246000fd5b602002602001015185838151811061055d57634e487b7160e01b600052603260045260246000fd5b6020026020010151610229565b82828151811061058a57634e487b7160e01b600052603260045260246000fd5b602090810291909101015261059e8161187e565b9050610509565b509392505050565b6105b833838361096f565b5050565b6001600160a01b0385163314806105d857506105d885336101e8565b6106365760405162461bcd60e51b815260206004820152602960248201527f455243313135353a2063616c6c6572206973206e6f74206f776e6572206e6f7260448201526808185c1c1c9bdd995960ba1b6064820152608401610290565b6104448585858585610a50565b6060816106675750506040805180820190915260018152600360fc1b602082015290565b8160005b8115610691578061067b8161187e565b915061068a9050600a836117f6565b915061066b565b60008167ffffffffffffffff8111156106ba57634e487b7160e01b600052604160045260246000fd5b6040519080825280601f01601f1916602001820160405280156106e4576020820181803683370190505b5090505b841561075d576106f960018361180a565b9150610706600a86611899565b6107119060306117de565b60f81b81838151811061073457634e487b7160e01b600052603260045260246000fd5b60200101906001600160f81b031916908160001a905350610756600a866117f6565b94506106e8565b949350505050565b81518351146107c75760405162461bcd60e51b815260206004820152602860248201527f455243313135353a2069647320616e6420616d6f756e7473206c656e677468206044820152670dad2e6dac2e8c6d60c31b6064820152608401610290565b6001600160a01b0384166107ed5760405162461bcd60e51b81526004016102909061172b565b336107fc818787878787610b8c565b60005b845181101561090157600085828151811061082a57634e487b7160e01b600052603260045260246000fd5b60200260200101519050600085838151811061085657634e487b7160e01b600052603260045260246000fd5b60209081029190910181015160008481526002835260408082206001600160a01b038e1683529093529190912054909150818110156108a75760405162461bcd60e51b815260040161029090611770565b60008381526002602090815260408083206001600160a01b038e8116855292528083208585039055908b168252812080548492906108e69084906117de565b92505081905550505050806108fa9061187e565b90506107ff565b50846001600160a01b0316866001600160a01b0316826001600160a01b03167f4a39dc06d4c0dbc64b70af90fd698a233a518aa5d07e595d983b8c0526c8f7fb87876040516109519291906116ab565b60405180910390a4610967818787878787610e80565b505050505050565b816001600160a01b0316836001600160a01b031614156109e35760405162461bcd60e51b815260206004820152602960248201527f455243313135353a2073657474696e6720617070726f76616c20737461747573604482015268103337b91039b2b63360b91b6064820152608401610290565b6001600160a01b03838116600081815260036020908152604080832094871680845294825291829020805460ff191686151590811790915591519182527f17307eab39ab6107e8899845ad3d59bd9653f200f220920489ca2b5937696c31910160405180910390a3505050565b6001600160a01b038416610a765760405162461bcd60e51b81526004016102909061172b565b336000610a8285610feb565b90506000610a8f85610feb565b9050610a9f838989858589610b8c565b60008681526002602090815260408083206001600160a01b038c16845290915290205485811015610ae25760405162461bcd60e51b815260040161029090611770565b60008781526002602090815260408083206001600160a01b038d8116855292528083208985039055908a16825281208054889290610b219084906117de565b909155505060408051888152602081018890526001600160a01b03808b16928c821692918816917fc3d58168c5ae7397731d063d5bbf3d657854427343f4c083240f7aacaa2d0f62910160405180910390a4610b81848a8a8a8a8a611044565b505050505050505050565b60005460ff1615610bf45760405162461bcd60e51b815260206004820152602c60248201527f455243313135355061757361626c653a20746f6b656e207472616e736665722060448201526b1dda1a5b19481c185d5cd95960a21b6064820152608401610290565b6001600160a01b03851615801590610c1457506001600160a01b03841615155b15610cc65760005b8351811015610cc45760046000858381518110610c4957634e487b7160e01b600052603260045260246000fd5b60209081029190910181015182528101919091526040016000205460ff1615610cb45760405162461bcd60e51b815260206004820152601f60248201527f455243313135353a20746f6b656e206e6f74207472616e7366657261626c65006044820152606401610290565b610cbd8161187e565b9050610c1c565b505b6001600160a01b038516610d695760005b8351811015610d6757828181518110610d0057634e487b7160e01b600052603260045260246000fd5b602002602001015160016000868481518110610d2c57634e487b7160e01b600052603260045260246000fd5b602002602001015181526020019081526020016000206000828254610d5191906117de565b90915550610d6090508161187e565b9050610cd7565b505b6001600160a01b0384166109675760005b8351811015610e77576000848281518110610da557634e487b7160e01b600052603260045260246000fd5b602002602001015190506000848381518110610dd157634e487b7160e01b600052603260045260246000fd5b6020026020010151905060006001600084815260200190815260200160002054905081811015610e545760405162461bcd60e51b815260206004820152602860248201527f455243313135353a206275726e20616d6f756e74206578636565647320746f74604482015267616c537570706c7960c01b6064820152608401610290565b60009283526001602052604090922091039055610e708161187e565b9050610d7a565b50505050505050565b6001600160a01b0384163b156109675760405163bc197c8160e01b81526001600160a01b0385169063bc197c8190610ec490899089908890889088906004016115f5565b602060405180830381600087803b158015610ede57600080fd5b505af1925050508015610f0e575060408051601f3d908101601f19168201909252610f0b91810190611499565b60015b610fbb57610f1a6118ef565b806308c379a01415610f545750610f2f611907565b80610f3a5750610f56565b8060405162461bcd60e51b815260040161029091906116d0565b505b60405162461bcd60e51b815260206004820152603460248201527f455243313135353a207472616e7366657220746f206e6f6e20455243313135356044820152732932b1b2b4bb32b91034b6b83632b6b2b73a32b960611b6064820152608401610290565b6001600160e01b0319811663bc197c8160e01b14610e775760405162461bcd60e51b8152600401610290906116e3565b6040805160018082528183019092526060916000919060208083019080368337019050509050828160008151811061103357634e487b7160e01b600052603260045260246000fd5b602090810291909101015292915050565b6001600160a01b0384163b156109675760405163f23a6e6160e01b81526001600160a01b0385169063f23a6e61906110889089908990889088908890600401611653565b602060405180830381600087803b1580156110a257600080fd5b505af19250505080156110d2575060408051601f3d908101601f191682019092526110cf91810190611499565b60015b6110de57610f1a6118ef565b6001600160e01b0319811663f23a6e6160e01b14610e775760405162461bcd60e51b8152600401610290906116e3565b80356001600160a01b038116811461112557600080fd5b919050565b600082601f83011261113a578081fd5b81356020611147826117ba565b6040516111548282611851565b8381528281019150858301600585901b87018401881015611173578586fd5b855b8581101561119157813584529284019290840190600101611175565b5090979650505050505050565b600082601f8301126111ae578081fd5b813567ffffffffffffffff8111156111c8576111c86118d9565b6040516111df601f8301601f191660200182611851565b8181528460208386010111156111f3578283fd5b816020850160208301379081016020019190915292915050565b6000806040838503121561121f578182fd5b6112288361110e565b91506112366020840161110e565b90509250929050565b600080600080600060a08688031215611256578081fd5b61125f8661110e565b945061126d6020870161110e565b9350604086013567ffffffffffffffff80821115611289578283fd5b61129589838a0161112a565b945060608801359150808211156112aa578283fd5b6112b689838a0161112a565b935060808801359150808211156112cb578283fd5b506112d88882890161119e565b9150509295509295909350565b600080600080600060a086880312156112fc578081fd5b6113058661110e565b94506113136020870161110e565b93506040860135925060608601359150608086013567ffffffffffffffff81111561133c578182fd5b6112d88882890161119e565b6000806040838503121561135a578182fd5b6113638361110e565b915060208301358015158114611377578182fd5b809150509250929050565b60008060408385031215611394578182fd5b61139d8361110e565b946020939093013593505050565b600080604083850312156113bd578182fd5b823567ffffffffffffffff808211156113d4578384fd5b818501915085601f8301126113e7578384fd5b813560206113f4826117ba565b6040516114018282611851565b8381528281019150858301600585901b870184018b1015611420578889fd5b8896505b84871015611449576114358161110e565b835260019690960195918301918301611424565b509650508601359250508082111561145f578283fd5b5061146c8582860161112a565b9150509250929050565b600060208284031215611487578081fd5b813561149281611991565b9392505050565b6000602082840312156114aa578081fd5b815161149281611991565b6000602082840312156114c6578081fd5b5035919050565b6000815180845260208085019450808401835b838110156114fc578151875295820195908201906001016114e0565b509495945050505050565b6000815180845261151f816020860160208601611821565b601f01601f19169290920160200192915050565b60008151611545818560208601611821565b9290920192915050565b600080845482600182811c91508083168061156b57607f831692505b602080841082141561158b57634e487b7160e01b87526022600452602487fd5b81801561159f57600181146115b0576115dc565b60ff198616895284890196506115dc565b60008b815260209020885b868110156115d45781548b8201529085019083016115bb565b505084890196505b5050505050506115ec8185611533565b95945050505050565b6001600160a01b0386811682528516602082015260a060408201819052600090611621908301866114cd565b828103606084015261163381866114cd565b905082810360808401526116478185611507565b98975050505050505050565b6001600160a01b03868116825285166020820152604081018490526060810183905260a06080820181905260009061168d90830184611507565b979650505050505050565b60208152600061149260208301846114cd565b6040815260006116be60408301856114cd565b82810360208401526115ec81856114cd565b6020815260006114926020830184611507565b60208082526028908201527f455243313135353a204552433131353552656365697665722072656a656374656040820152676420746f6b656e7360c01b606082015260800190565b60208082526025908201527f455243313135353a207472616e7366657220746f20746865207a65726f206164604082015264647265737360d81b606082015260800190565b6020808252602a908201527f455243313135353a20696e73756666696369656e742062616c616e636520666f60408201526939103a3930b739b332b960b11b606082015260800190565b600067ffffffffffffffff8211156117d4576117d46118d9565b5060051b60200190565b600082198211156117f1576117f16118ad565b500190565b600082611805576118056118c3565b500490565b60008282101561181c5761181c6118ad565b500390565b60005b8381101561183c578181015183820152602001611824565b8381111561184b576000848401525b50505050565b601f8201601f1916810167ffffffffffffffff81118282101715611877576118776118d9565b6040525050565b6000600019821415611892576118926118ad565b5060010190565b6000826118a8576118a86118c3565b500690565b634e487b7160e01b600052601160045260246000fd5b634e487b7160e01b600052601260045260246000fd5b634e487b7160e01b600052604160045260246000fd5b600060033d111561190457600481823e5160e01c5b90565b600060443d10156119155790565b6040516003193d81016004833e81513d67ffffffffffffffff816024840111818411171561194557505050505090565b828501915081518181111561195d5750505050505090565b843d87010160208285010111156119775750505050505090565b61198660208286010187611851565b509095945050505050565b6001600160e01b0319811681146119a757600080fd5b5056fea26469706673582212206d921ff9500a7b0b962e20b56fee2e77fa85efa64a5ff521c6e473b64673771364736f6c63430008040033",
  "linkReferences": {},
  "deployedLinkReferences": {}
}