{
  "_format": "hh-sol-artifact-1",
  "contractName": "SpacePiratesMasterChef",
  "sourceName": "contracts/dex/SpacePiratesMasterChef.sol",
  "abi": [
    {
      "inputs": [
        {
          "internalType": "contract SpacePiratesTokens",
          "name": "_doubloons",
          "type": "address"
        },
        {
          "internalType": "address",
          "name": "_devaddr",
          "type": "address"
        },
        {
          "internalType": "address",
          "name": "_feeAddress",
          "type": "address"
        },
        {
          "internalType": "uint256",
          "name": "_doubloonsPerBlock",
          "type": "uint256"
        },
        {
          "internalType": "uint256",
          "name": "_startBlock",
          "type": "uint256"
        }
      ],
      "stateMutability": "nonpayable",
      "type": "constructor"
    },
    {
      "anonymous": false,
      "inputs": [
        {
          "indexed": true,
          "internalType": "address",
          "name": "user",
          "type": "address"
        },
        {
          "indexed": true,
          "internalType": "uint256",
          "name": "pid",
          "type": "uint256"
        },
        {
          "indexed": false,
          "internalType": "uint256",
          "name": "amount",
          "type": "uint256"
        }
      ],
      "name": "Deposit",
      "type": "event"
    },
    {
      "anonymous": false,
      "inputs": [
        {
          "indexed": true,
          "internalType": "address",
          "name": "user",
          "type": "address"
        },
        {
          "indexed": true,
          "internalType": "uint256",
          "name": "pid",
          "type": "uint256"
        },
        {
          "indexed": false,
          "internalType": "uint256",
          "name": "amount",
          "type": "uint256"
        }
      ],
      "name": "EmergencyWithdraw",
      "type": "event"
    },
    {
      "anonymous": false,
      "inputs": [
        {
          "indexed": true,
          "internalType": "address",
          "name": "previousOwner",
          "type": "address"
        },
        {
          "indexed": true,
          "internalType": "address",
          "name": "newOwner",
          "type": "address"
        }
      ],
      "name": "OwnershipTransferred",
      "type": "event"
    },
    {
      "anonymous": false,
      "inputs": [
        {
          "indexed": true,
          "internalType": "address",
          "name": "user",
          "type": "address"
        },
        {
          "indexed": true,
          "internalType": "address",
          "name": "newAddress",
          "type": "address"
        }
      ],
      "name": "SetDevAddress",
      "type": "event"
    },
    {
      "anonymous": false,
      "inputs": [
        {
          "indexed": true,
          "internalType": "address",
          "name": "user",
          "type": "address"
        },
        {
          "indexed": true,
          "internalType": "address",
          "name": "newAddress",
          "type": "address"
        }
      ],
      "name": "SetFeeAddress",
      "type": "event"
    },
    {
      "anonymous": false,
      "inputs": [
        {
          "indexed": true,
          "internalType": "address",
          "name": "user",
          "type": "address"
        },
        {
          "indexed": false,
          "internalType": "uint256",
          "name": "doubloonsPerBlock",
          "type": "uint256"
        }
      ],
      "name": "UpdateEmissionRate",
      "type": "event"
    },
    {
      "anonymous": false,
      "inputs": [
        {
          "indexed": true,
          "internalType": "address",
          "name": "user",
          "type": "address"
        },
        {
          "indexed": true,
          "internalType": "uint256",
          "name": "pid",
          "type": "uint256"
        },
        {
          "indexed": false,
          "internalType": "uint256",
          "name": "amount",
          "type": "uint256"
        }
      ],
      "name": "Withdraw",
      "type": "event"
    },
    {
      "inputs": [],
      "name": "BONUS_MULTIPLIER",
      "outputs": [
        {
          "internalType": "uint256",
          "name": "",
          "type": "uint256"
        }
      ],
      "stateMutability": "view",
      "type": "function"
    },
    {
      "inputs": [],
      "name": "DOUBLOONS_ID",
      "outputs": [
        {
          "internalType": "uint256",
          "name": "",
          "type": "uint256"
        }
      ],
      "stateMutability": "view",
      "type": "function"
    },
    {
      "inputs": [
        {
          "internalType": "uint256",
          "name": "_allocPoint",
          "type": "uint256"
        },
        {
          "internalType": "contract IERC20",
          "name": "_lpToken",
          "type": "address"
        },
        {
          "internalType": "uint16",
          "name": "_depositFeeBP",
          "type": "uint16"
        },
        {
          "internalType": "bool",
          "name": "_withUpdate",
          "type": "bool"
        }
      ],
      "name": "add",
      "outputs": [],
      "stateMutability": "nonpayable",
      "type": "function"
    },
    {
      "inputs": [
        {
          "internalType": "uint256",
          "name": "_pid",
          "type": "uint256"
        },
        {
          "internalType": "uint256",
          "name": "_amount",
          "type": "uint256"
        }
      ],
      "name": "deposit",
      "outputs": [],
      "stateMutability": "nonpayable",
      "type": "function"
    },
    {
      "inputs": [
        {
          "internalType": "address",
          "name": "_devaddr",
          "type": "address"
        }
      ],
      "name": "dev",
      "outputs": [],
      "stateMutability": "nonpayable",
      "type": "function"
    },
    {
      "inputs": [],
      "name": "devaddr",
      "outputs": [
        {
          "internalType": "address",
          "name": "",
          "type": "address"
        }
      ],
      "stateMutability": "view",
      "type": "function"
    },
    {
      "inputs": [],
      "name": "doubloons",
      "outputs": [
        {
          "internalType": "contract SpacePiratesTokens",
          "name": "",
          "type": "address"
        }
      ],
      "stateMutability": "view",
      "type": "function"
    },
    {
      "inputs": [],
      "name": "doubloonsPerBlock",
      "outputs": [
        {
          "internalType": "uint256",
          "name": "",
          "type": "uint256"
        }
      ],
      "stateMutability": "view",
      "type": "function"
    },
    {
      "inputs": [
        {
          "internalType": "uint256",
          "name": "_pid",
          "type": "uint256"
        }
      ],
      "name": "emergencyWithdraw",
      "outputs": [],
      "stateMutability": "nonpayable",
      "type": "function"
    },
    {
      "inputs": [],
      "name": "feeAddress",
      "outputs": [
        {
          "internalType": "address",
          "name": "",
          "type": "address"
        }
      ],
      "stateMutability": "view",
      "type": "function"
    },
    {
      "inputs": [
        {
          "internalType": "uint256",
          "name": "_from",
          "type": "uint256"
        },
        {
          "internalType": "uint256",
          "name": "_to",
          "type": "uint256"
        }
      ],
      "name": "getMultiplier",
      "outputs": [
        {
          "internalType": "uint256",
          "name": "",
          "type": "uint256"
        }
      ],
      "stateMutability": "pure",
      "type": "function"
    },
    {
      "inputs": [],
      "name": "massUpdatePools",
      "outputs": [],
      "stateMutability": "nonpayable",
      "type": "function"
    },
    {
      "inputs": [],
      "name": "owner",
      "outputs": [
        {
          "internalType": "address",
          "name": "",
          "type": "address"
        }
      ],
      "stateMutability": "view",
      "type": "function"
    },
    {
      "inputs": [
        {
          "internalType": "uint256",
          "name": "_pid",
          "type": "uint256"
        },
        {
          "internalType": "address",
          "name": "_user",
          "type": "address"
        }
      ],
      "name": "pendingDoubloons",
      "outputs": [
        {
          "internalType": "uint256",
          "name": "",
          "type": "uint256"
        }
      ],
      "stateMutability": "view",
      "type": "function"
    },
    {
      "inputs": [
        {
          "internalType": "contract IERC20",
          "name": "",
          "type": "address"
        }
      ],
      "name": "poolExistence",
      "outputs": [
        {
          "internalType": "bool",
          "name": "",
          "type": "bool"
        }
      ],
      "stateMutability": "view",
      "type": "function"
    },
    {
      "inputs": [
        {
          "internalType": "uint256",
          "name": "",
          "type": "uint256"
        }
      ],
      "name": "poolInfo",
      "outputs": [
        {
          "internalType": "contract IERC20",
          "name": "lpToken",
          "type": "address"
        },
        {
          "internalType": "uint256",
          "name": "allocPoint",
          "type": "uint256"
        },
        {
          "internalType": "uint256",
          "name": "lastRewardBlock",
          "type": "uint256"
        },
        {
          "internalType": "uint256",
          "name": "accDoubloonsPerShare",
          "type": "uint256"
        },
        {
          "internalType": "uint16",
          "name": "depositFeeBP",
          "type": "uint16"
        }
      ],
      "stateMutability": "view",
      "type": "function"
    },
    {
      "inputs": [],
      "name": "poolLength",
      "outputs": [
        {
          "internalType": "uint256",
          "name": "",
          "type": "uint256"
        }
      ],
      "stateMutability": "view",
      "type": "function"
    },
    {
      "inputs": [],
      "name": "renounceOwnership",
      "outputs": [],
      "stateMutability": "nonpayable",
      "type": "function"
    },
    {
      "inputs": [
        {
          "internalType": "uint256",
          "name": "_pid",
          "type": "uint256"
        },
        {
          "internalType": "uint256",
          "name": "_allocPoint",
          "type": "uint256"
        },
        {
          "internalType": "uint16",
          "name": "_depositFeeBP",
          "type": "uint16"
        },
        {
          "internalType": "bool",
          "name": "_withUpdate",
          "type": "bool"
        }
      ],
      "name": "set",
      "outputs": [],
      "stateMutability": "nonpayable",
      "type": "function"
    },
    {
      "inputs": [
        {
          "internalType": "address",
          "name": "_feeAddress",
          "type": "address"
        }
      ],
      "name": "setFeeAddress",
      "outputs": [],
      "stateMutability": "nonpayable",
      "type": "function"
    },
    {
      "inputs": [],
      "name": "startBlock",
      "outputs": [
        {
          "internalType": "uint256",
          "name": "",
          "type": "uint256"
        }
      ],
      "stateMutability": "view",
      "type": "function"
    },
    {
      "inputs": [],
      "name": "totalAllocPoint",
      "outputs": [
        {
          "internalType": "uint256",
          "name": "",
          "type": "uint256"
        }
      ],
      "stateMutability": "view",
      "type": "function"
    },
    {
      "inputs": [
        {
          "internalType": "address",
          "name": "newOwner",
          "type": "address"
        }
      ],
      "name": "transferOwnership",
      "outputs": [],
      "stateMutability": "nonpayable",
      "type": "function"
    },
    {
      "inputs": [
        {
          "internalType": "uint256",
          "name": "_doubloonsPerBlock",
          "type": "uint256"
        }
      ],
      "name": "updateEmissionRate",
      "outputs": [],
      "stateMutability": "nonpayable",
      "type": "function"
    },
    {
      "inputs": [
        {
          "internalType": "uint256",
          "name": "_pid",
          "type": "uint256"
        }
      ],
      "name": "updatePool",
      "outputs": [],
      "stateMutability": "nonpayable",
      "type": "function"
    },
    {
      "inputs": [
        {
          "internalType": "uint256",
          "name": "",
          "type": "uint256"
        },
        {
          "internalType": "address",
          "name": "",
          "type": "address"
        }
      ],
      "name": "userInfo",
      "outputs": [
        {
          "internalType": "uint256",
          "name": "amount",
          "type": "uint256"
        },
        {
          "internalType": "uint256",
          "name": "rewardDebt",
          "type": "uint256"
        }
      ],
      "stateMutability": "view",
      "type": "function"
    },
    {
      "inputs": [
        {
          "internalType": "uint256",
          "name": "_pid",
          "type": "uint256"
        },
        {
          "internalType": "uint256",
          "name": "_amount",
          "type": "uint256"
        }
      ],
      "name": "withdraw",
      "outputs": [],
      "stateMutability": "nonpayable",
      "type": "function"
    }
  ],
  "bytecode": "0x608060405260006008553480156200001657600080fd5b5060405162001bed38038062001bed8339810160408190526200003991620000e5565b620000443362000095565b60018055600280546001600160a01b03199081166001600160a01b03978816179091556003805482169587169590951790945560058054909416929094169190911790915560045560095562000162565b600080546001600160a01b038381166001600160a01b0319831681178455604051919092169283917f8be0079c531659141344cd1fd0a4f28419497f9722a3daafe3b4186f6b6457e09190a35050565b600080600080600060a08688031215620000fd578081fd5b85516200010a8162000149565b60208701519095506200011d8162000149565b6040870151909450620001308162000149565b6060870151608090970151959894975095949392505050565b6001600160a01b03811681146200015f57600080fd5b50565b611a7b80620001726000396000f3fe608060405234801561001057600080fd5b50600436106101a95760003560e01c8063715018a6116100f957806393f1a40b11610097578063d963842211610071578063d9638422146103b7578063e2bbb158146103ca578063e701588e146103dd578063f2fde38b146103f057600080fd5b806393f1a40b1461032a578063cbd258b514610371578063d49e77cd146103a457600080fd5b80638aa28550116100d35780638aa285501461028f5780638d88a90e146102f35780638da5cb5b146103065780638dbb1e3a1461031757600080fd5b8063715018a6146102c557806384e82a33146102cd5780638705fcd4146102e057600080fd5b8063412753581161016657806349ea15b71161014057806349ea15b71461028f57806351eb05a6146102975780635312ea8e146102aa578063630b5ba1146102bd57600080fd5b80634127535814610260578063441a3e701461027357806348cd4cb11461028657600080fd5b8063081e3eda146101ae5780630ba84cd2146101c55780630bdea945146101da5780631464e0de146101e35780631526fe271461020e57806317caf6f114610257575b600080fd5b6006545b6040519081526020015b60405180910390f35b6101d86101d336600461179d565b610403565b005b6101b260045481565b6002546101f6906001600160a01b031681565b6040516001600160a01b0390911681526020016101bc565b61022161021c36600461179d565b610450565b604080516001600160a01b039096168652602086019490945292840191909152606083015261ffff16608082015260a0016101bc565b6101b260085481565b6005546101f6906001600160a01b031681565b6101d861028136600461184c565b61049f565b6101b260095481565b6101b2600181565b6101d86102a536600461179d565b610647565b6101d86102b836600461179d565b61089d565b6101d861097d565b6101d86109a8565b6101d86102db3660046117fc565b6109bc565b6101d86102ee366004611765565b610c12565b6101d8610301366004611765565b610cb8565b6000546001600160a01b03166101f6565b6101b261032536600461184c565b610d4a565b61035c6103383660046117cd565b60076020908152600092835260408084209091529082529020805460019091015482565b604080519283526020830191909152016101bc565b61039461037f366004611765565b600a6020526000908152604090205460ff1681565b60405190151581526020016101bc565b6003546101f6906001600160a01b031681565b6101d86103c536600461186d565b610d69565b6101d86103d836600461184c565b610ebe565b6101b26103eb3660046117cd565b611086565b6101d86103fe366004611765565b611212565b61040b61128b565b61041361097d565b600481905560405181815233907fe2492e003bbe8afa53088b406f0c1cb5d9e280370fc72a74cf116ffd343c40539060200160405180910390a250565b6006818154811061046057600080fd5b6000918252602090912060059091020180546001820154600283015460038401546004909401546001600160a01b0390931694509092909161ffff1685565b600260015414156104cb5760405162461bcd60e51b81526004016104c290611920565b60405180910390fd5b60026001819055506000600683815481106104f657634e487b7160e01b600052603260045260246000fd5b6000918252602080832086845260078252604080852033865290925292208054600590920290920192508311156105645760405162461bcd60e51b81526020600482015260126024820152711dda5d1a191c985dce881b9bdd0819dbdbd960721b60448201526064016104c2565b61056d84610647565b6000816001015464e8d4a510008460030154846000015461058e919061198f565b610598919061196f565b6105a291906119ae565b905080156105b4576105b433826112e5565b83156105df5781546105c79085906119ae565b825582546105df906001600160a01b0316338661141a565b6003830154825464e8d4a51000916105f69161198f565b610600919061196f565b6001830155604051848152859033907ff279e6a1f5e320cca91135676d9cb6e44ca8a08c0b88342bcdb1144f6511b5689060200160405180910390a3505060018055505050565b60006006828154811061066a57634e487b7160e01b600052603260045260246000fd5b9060005260206000209060050201905080600201544311610689575050565b80546040516370a0823160e01b81523060048201526000916001600160a01b0316906370a082319060240160206040518083038186803b1580156106cc57600080fd5b505afa1580156106e0573d6000803e3d6000fd5b505050506040513d601f19601f8201168201806040525081019061070491906117b5565b905080158061071557506001820154155b1561072557504360029091015550565b6000610735836002015443610d4a565b9050600060085484600101546004548461074f919061198f565b610759919061198f565b610763919061196f565b6002546003549192506001600160a01b039081169163156e29f69116600161078c600a8661196f565b6040516001600160e01b031960e086901b1681526001600160a01b03909316600484015260248301919091526044820152606401600060405180830381600087803b1580156107da57600080fd5b505af11580156107ee573d6000803e3d6000fd5b5050600254604051630ab714fb60e11b815230600482015260016024820152604481018590526001600160a01b03909116925063156e29f69150606401600060405180830381600087803b15801561084557600080fd5b505af1158015610859573d6000803e3d6000fd5b50505050828164e8d4a5100061086f919061198f565b610879919061196f565b84600301546108889190611957565b60038501555050436002909201919091555050565b600260015414156108c05760405162461bcd60e51b81526004016104c290611920565b60026001819055506000600682815481106108eb57634e487b7160e01b600052603260045260246000fd5b60009182526020808320858452600782526040808520338087529352842080548582556001820195909555600590930201805490945091929161093b916001600160a01b0391909116908361141a565b604051818152849033907fbb757047c2b5f3974fe26b7c10f732e7bce710b0952a71082702781e62ae0595906020015b60405180910390a35050600180555050565b60065460005b818110156109a45761099481610647565b61099d816119f1565b9050610983565b5050565b6109b061128b565b6109ba600061147d565b565b6109c461128b565b6001600160a01b0383166000908152600a6020526040902054839060ff1615610a2f5760405162461bcd60e51b815260206004820152601960248201527f6e6f6e4475706c6963617465643a206475706c6963617465640000000000000060448201526064016104c2565b6127108361ffff161115610a935760405162461bcd60e51b815260206004820152602560248201527f6164643a20696e76616c6964206465706f7369742066656520626173697320706044820152646f696e747360d81b60648201526084016104c2565b8115610aa157610aa161097d565b60006009544311610ab457600954610ab6565b435b905085600854610ac69190611957565b6008556001600160a01b039485166000818152600a602090815260408083208054600160ff199091168117909155815160a081018352948552918401998a5283019384526060830182815261ffff9788166080850190815260068054938401815590935292517ff652222313e28459528d920b65115c16c04f3efc82aaedc97be59f3f377c0d3f600590920291820180546001600160a01b031916919099161790975596517ff652222313e28459528d920b65115c16c04f3efc82aaedc97be59f3f377c0d4087015590517ff652222313e28459528d920b65115c16c04f3efc82aaedc97be59f3f377c0d41860155517ff652222313e28459528d920b65115c16c04f3efc82aaedc97be59f3f377c0d42850155505091517ff652222313e28459528d920b65115c16c04f3efc82aaedc97be59f3f377c0d43909101805461ffff191691909216179055565b6005546001600160a01b03163314610c6c5760405162461bcd60e51b815260206004820152601860248201527f736574466565416464726573733a20464f5242494444454e000000000000000060448201526064016104c2565b600580546001600160a01b0319166001600160a01b03831690811790915560405133907fd44190acf9d04bdb5d3a1aafff7e6dee8b40b93dfb8c5d3f0eea4b9f4539c3f790600090a350565b6003546001600160a01b03163314610cfe5760405162461bcd60e51b81526020600482015260096024820152686465763a207775743f60b81b60448201526064016104c2565b600380546001600160a01b0319166001600160a01b03831690811790915560405133907f618c54559e94f1499a808aad71ee8729f8e74e8c48e979616328ce493a1a52e790600090a350565b60006001610d5884846119ae565b610d62919061198f565b9392505050565b610d7161128b565b6127108261ffff161115610dd55760405162461bcd60e51b815260206004820152602560248201527f7365743a20696e76616c6964206465706f7369742066656520626173697320706044820152646f696e747360d81b60648201526084016104c2565b8015610de357610de361097d565b8260068581548110610e0557634e487b7160e01b600052603260045260246000fd5b906000526020600020906005020160010154600854610e2491906119ae565b610e2e9190611957565b6008819055508260068581548110610e5657634e487b7160e01b600052603260045260246000fd5b9060005260206000209060050201600101819055508160068581548110610e8d57634e487b7160e01b600052603260045260246000fd5b906000526020600020906005020160040160006101000a81548161ffff021916908361ffff16021790555050505050565b60026001541415610ee15760405162461bcd60e51b81526004016104c290611920565b6002600181905550600060068381548110610f0c57634e487b7160e01b600052603260045260246000fd5b60009182526020808320868452600782526040808520338652909252922060059091029091019150610f3d84610647565b805415610f8d576000816001015464e8d4a5100084600301548460000154610f65919061198f565b610f6f919061196f565b610f7991906119ae565b90508015610f8b57610f8b33826112e5565b505b821561102c578154610faa906001600160a01b03163330866114cd565b600482015461ffff161561101c57600482015460009061271090610fd29061ffff168661198f565b610fdc919061196f565b6005548454919250610ffb916001600160a01b0390811691168361141a565b8154819061100a908690611957565b61101491906119ae565b82555061102c565b8054611029908490611957565b81555b6003820154815464e8d4a51000916110439161198f565b61104d919061196f565b6001820155604051838152849033907f90890809c654f11d6e72a28fa60149770a0d11ec6c92319d6ceb2bb0a4ea1a159060200161096b565b600080600684815481106110aa57634e487b7160e01b600052603260045260246000fd5b600091825260208083208784526007825260408085206001600160a01b03898116875293528085206005949094029091016003810154815492516370a0823160e01b815230600482015291965093949291909116906370a082319060240160206040518083038186803b15801561112057600080fd5b505afa158015611134573d6000803e3d6000fd5b505050506040513d601f19601f8201168201806040525081019061115891906117b5565b905083600201544311801561116c57508015155b156111da576000611181856002015443610d4a565b9050600060085486600101546004548461119b919061198f565b6111a5919061198f565b6111af919061196f565b9050826111c18264e8d4a5100061198f565b6111cb919061196f565b6111d59085611957565b935050505b6001830154835464e8d4a51000906111f390859061198f565b6111fd919061196f565b61120791906119ae565b979650505050505050565b61121a61128b565b6001600160a01b03811661127f5760405162461bcd60e51b815260206004820152602660248201527f4f776e61626c653a206e6577206f776e657220697320746865207a65726f206160448201526564647265737360d01b60648201526084016104c2565b6112888161147d565b50565b6000546001600160a01b031633146109ba5760405162461bcd60e51b815260206004820181905260248201527f4f776e61626c653a2063616c6c6572206973206e6f7420746865206f776e657260448201526064016104c2565b600254604051627eeac760e11b8152306004820152600160248201526000916001600160a01b03169062fdd58e9060440160206040518083038186803b15801561132e57600080fd5b505afa158015611342573d6000803e3d6000fd5b505050506040513d601f19601f8201168201806040525081019061136691906117b5565b9050808211156113de57600254604051637921219560e11b81526001600160a01b039091169063f242432a906113a7903090879060019087906004016118b5565b600060405180830381600087803b1580156113c157600080fd5b505af11580156113d5573d6000803e3d6000fd5b50505050505050565b600254604051637921219560e11b81526001600160a01b039091169063f242432a906113a7903090879060019088906004016118b5565b505050565b6040516001600160a01b03831660248201526044810182905261141590849063a9059cbb60e01b906064015b60408051601f198184030181529190526020810180516001600160e01b03166001600160e01b03199093169290921790915261150b565b600080546001600160a01b038381166001600160a01b0319831681178455604051919092169283917f8be0079c531659141344cd1fd0a4f28419497f9722a3daafe3b4186f6b6457e09190a35050565b6040516001600160a01b03808516602483015283166044820152606481018290526115059085906323b872dd60e01b90608401611446565b50505050565b6000611560826040518060400160405280602081526020017f5361666545524332303a206c6f772d6c6576656c2063616c6c206661696c6564815250856001600160a01b03166115dd9092919063ffffffff16565b805190915015611415578080602001905181019061157e9190611781565b6114155760405162461bcd60e51b815260206004820152602a60248201527f5361666545524332303a204245503230206f7065726174696f6e20646964206e6044820152691bdd081cdd58d8d9595960b21b60648201526084016104c2565b60606115ec84846000856115f4565b949350505050565b6060824710156116555760405162461bcd60e51b815260206004820152602660248201527f416464726573733a20696e73756666696369656e742062616c616e636520666f6044820152651c8818d85b1b60d21b60648201526084016104c2565b6001600160a01b0385163b6116ac5760405162461bcd60e51b815260206004820152601d60248201527f416464726573733a2063616c6c20746f206e6f6e2d636f6e747261637400000060448201526064016104c2565b600080866001600160a01b031685876040516116c89190611899565b60006040518083038185875af1925050503d8060008114611705576040519150601f19603f3d011682016040523d82523d6000602084013e61170a565b606091505b509150915061120782828660608315611724575081610d62565b8251156117345782518084602001fd5b8160405162461bcd60e51b81526004016104c291906118ed565b803561ffff8116811461176057600080fd5b919050565b600060208284031215611776578081fd5b8135610d6281611a22565b600060208284031215611792578081fd5b8151610d6281611a37565b6000602082840312156117ae578081fd5b5035919050565b6000602082840312156117c6578081fd5b5051919050565b600080604083850312156117df578081fd5b8235915060208301356117f181611a22565b809150509250929050565b60008060008060808587031215611811578182fd5b84359350602085013561182381611a22565b92506118316040860161174e565b9150606085013561184181611a37565b939692955090935050565b6000806040838503121561185e578182fd5b50508035926020909101359150565b60008060008060808587031215611882578384fd5b84359350602085013592506118316040860161174e565b600082516118ab8184602087016119c5565b9190910192915050565b6001600160a01b0394851681529290931660208301526040820152606081019190915260a06080820181905260009082015260c00190565b602081526000825180602084015261190c8160408501602087016119c5565b601f01601f19169190910160400192915050565b6020808252601f908201527f5265656e7472616e637947756172643a207265656e7472616e742063616c6c00604082015260600190565b6000821982111561196a5761196a611a0c565b500190565b60008261198a57634e487b7160e01b81526012600452602481fd5b500490565b60008160001904831182151516156119a9576119a9611a0c565b500290565b6000828210156119c0576119c0611a0c565b500390565b60005b838110156119e05781810151838201526020016119c8565b838111156115055750506000910152565b6000600019821415611a0557611a05611a0c565b5060010190565b634e487b7160e01b600052601160045260246000fd5b6001600160a01b038116811461128857600080fd5b801515811461128857600080fdfea2646970667358221220f7a84e327699f437af1ece30045ae3da350d709799f5154d49676d555773bc2c64736f6c63430008040033",
  "linkReferences": {},
  "deployedLinkReferences": {}
}