{
  "_format": "hh-sol-artifact-1",
  "contractName": "AsteroidsSplitContract",
  "sourceName": "contracts/AsteroidsSplitContract.sol",
  "abi": [
    {
      "inputs": [
        {
          "internalType": "contract SpacePiratesTokens",
          "name": "_tokenContract",
          "type": "address"
        }
      ],
      "stateMutability": "nonpayable",
      "type": "constructor"
    },
    {
      "anonymous": false,
      "inputs": [
        {
          "indexed": true,
          "internalType": "address",
          "name": "sender",
          "type": "address"
        },
        {
          "indexed": false,
          "internalType": "uint256",
          "name": "amount",
          "type": "uint256"
        }
      ],
      "name": "MergeAsteroids",
      "type": "event"
    },
    {
      "anonymous": false,
      "inputs": [
        {
          "indexed": true,
          "internalType": "address",
          "name": "sender",
          "type": "address"
        },
        {
          "indexed": false,
          "internalType": "uint256",
          "name": "amount",
          "type": "uint256"
        }
      ],
      "name": "SplitAsteroids",
      "type": "event"
    },
    {
      "inputs": [],
      "name": "ASTEROIDS",
      "outputs": [
        {
          "internalType": "uint256",
          "name": "",
          "type": "uint256"
        }
      ],
      "stateMutability": "view",
      "type": "function"
    },
    {
      "inputs": [],
      "name": "STK_ASTEROIDS",
      "outputs": [
        {
          "internalType": "uint256",
          "name": "",
          "type": "uint256"
        }
      ],
      "stateMutability": "view",
      "type": "function"
    },
    {
      "inputs": [],
      "name": "VE_ASTEROIDS",
      "outputs": [
        {
          "internalType": "uint256",
          "name": "",
          "type": "uint256"
        }
      ],
      "stateMutability": "view",
      "type": "function"
    },
    {
      "inputs": [
        {
          "internalType": "uint256",
          "name": "amount",
          "type": "uint256"
        }
      ],
      "name": "mergeAsteroids",
      "outputs": [],
      "stateMutability": "nonpayable",
      "type": "function"
    },
    {
      "inputs": [
        {
          "internalType": "uint256",
          "name": "amount",
          "type": "uint256"
        }
      ],
      "name": "splitAsteroids",
      "outputs": [],
      "stateMutability": "nonpayable",
      "type": "function"
    },
    {
      "inputs": [],
      "name": "tokenContract",
      "outputs": [
        {
          "internalType": "contract SpacePiratesTokens",
          "name": "",
          "type": "address"
        }
      ],
      "stateMutability": "view",
      "type": "function"
    }
  ],
  "bytecode": "0x60a060405234801561001057600080fd5b5060405161059838038061059883398101604081905261002f91610044565b60601b6001600160601b031916608052610072565b600060208284031215610055578081fd5b81516001600160a01b038116811461006b578182fd5b9392505050565b60805160601c6104ed6100ab60003960008181608f0152818161011c0152818161018201528181610251015261030601526104ed6000f3fe608060405234801561001057600080fd5b50600436106100625760003560e01c806331e61ea6146100675780633c71cfa21461008257806355a373d61461008a5780636712627d146100c9578063b2b9f032146100d1578063ce19e834146100e6575b600080fd5b61006f600381565b6040519081526020015b60405180910390f35b61006f600481565b6100b17f000000000000000000000000000000000000000000000000000000000000000081565b6040516001600160a01b039091168152602001610079565b61006f600281565b6100e46100df366004610425565b6100f9565b005b6100e46100f4366004610425565b61024f565b604051637a94c56560e11b815233600482015260026024820152604481018290527f00000000000000000000000000000000000000000000000000000000000000006001600160a01b03169063f5298aca90606401600060405180830381600087803b15801561016857600080fd5b505af115801561017c573d6000803e3d6000fd5b505050507f00000000000000000000000000000000000000000000000000000000000000006001600160a01b031663d81d0a15336101bc6003600461039e565b6101c6858661039e565b6040518463ffffffff1660e01b81526004016101e493929190610477565b600060405180830381600087803b1580156101fe57600080fd5b505af1158015610212573d6000803e3d6000fd5b50506040518381523392507fef87d5252d5343fa340e6a89d6700b1ce725aa12b7eb3a09356fb6ba7f47ea5091506020015b60405180910390a250565b7f00000000000000000000000000000000000000000000000000000000000000006001600160a01b0316636b20c4543361028b6003600461039e565b610295858661039e565b6040518463ffffffff1660e01b81526004016102b393929190610477565b600060405180830381600087803b1580156102cd57600080fd5b505af11580156102e1573d6000803e3d6000fd5b5050604051630ab714fb60e11b815233600482015260026024820152604481018490527f00000000000000000000000000000000000000000000000000000000000000006001600160a01b0316925063156e29f69150606401600060405180830381600087803b15801561035457600080fd5b505af1158015610368573d6000803e3d6000fd5b50506040518381523392507f8e045e0d309a4c5a99463814b0e3b1dafd3d35a7516dae9177da549961c4adf29150602001610244565b6040805160028082526060808301845292600092919060208301908036833701905050905083816000815181106103e557634e487b7160e01b600052603260045260246000fd5b602002602001018181525050828160018151811061041357634e487b7160e01b600052603260045260246000fd5b60209081029190910101529392505050565b600060208284031215610436578081fd5b5035919050565b6000815180845260208085019450808401835b8381101561046c57815187529582019590820190600101610450565b509495945050505050565b6001600160a01b038416815260606020820181905260009061049b9083018561043d565b82810360408401526104ad818561043d565b969550505050505056fea26469706673582212200c6c76bd0fe056d59da0d9b55ff3d0cd91b4b8406a088bb439a130250f6d7a2464736f6c63430008040033",
  "linkReferences": {},
  "deployedLinkReferences": {}
}