{
  "_format": "hh-sol-artifact-1",
  "contractName": "SpacePiratesNFT",
  "sourceName": "contracts/NFT/SpacePiratesNFT.sol",
  "abi": [
    {
      "inputs": [
        {
          "internalType": "string",
          "name": "_baseURI",
          "type": "string"
        }
      ],
      "stateMutability": "nonpayable",
      "type": "constructor"
    },
    {
      "anonymous": false,
      "inputs": [
        {
          "indexed": true,
          "internalType": "address",
          "name": "owner",
          "type": "address"
        },
        {
          "indexed": true,
          "internalType": "address",
          "name": "approved",
          "type": "address"
        },
        {
          "indexed": true,
          "internalType": "uint256",
          "name": "tokenId",
          "type": "uint256"
        }
      ],
      "name": "Approval",
      "type": "event"
    },
    {
      "anonymous": false,
      "inputs": [
        {
          "indexed": true,
          "internalType": "address",
          "name": "owner",
          "type": "address"
        },
        {
          "indexed": true,
          "internalType": "address",
          "name": "operator",
          "type": "address"
        },
        {
          "indexed": false,
          "internalType": "bool",
          "name": "approved",
          "type": "bool"
        }
      ],
      "name": "ApprovalForAll",
      "type": "event"
    },
    {
      "anonymous": false,
      "inputs": [
        {
          "indexed": true,
          "internalType": "bytes32",
          "name": "role",
          "type": "bytes32"
        },
        {
          "indexed": false,
          "internalType": "address",
          "name": "account",
          "type": "address"
        }
      ],
      "name": "GrantRole",
      "type": "event"
    },
    {
      "anonymous": false,
      "inputs": [
        {
          "indexed": true,
          "internalType": "address",
          "name": "to",
          "type": "address"
        },
        {
          "indexed": false,
          "internalType": "uint256",
          "name": "id",
          "type": "uint256"
        },
        {
          "indexed": false,
          "internalType": "string",
          "name": "collection",
          "type": "string"
        },
        {
          "indexed": false,
          "internalType": "bool",
          "name": "locked",
          "type": "bool"
        }
      ],
      "name": "Mint",
      "type": "event"
    },
    {
      "anonymous": false,
      "inputs": [
        {
          "indexed": true,
          "internalType": "bytes32",
          "name": "role",
          "type": "bytes32"
        },
        {
          "indexed": false,
          "internalType": "address",
          "name": "account",
          "type": "address"
        }
      ],
      "name": "RevokeRole",
      "type": "event"
    },
    {
      "anonymous": false,
      "inputs": [
        {
          "indexed": true,
          "internalType": "bytes32",
          "name": "role",
          "type": "bytes32"
        },
        {
          "indexed": true,
          "internalType": "bytes32",
          "name": "previousAdminRole",
          "type": "bytes32"
        },
        {
          "indexed": true,
          "internalType": "bytes32",
          "name": "newAdminRole",
          "type": "bytes32"
        }
      ],
      "name": "RoleAdminChanged",
      "type": "event"
    },
    {
      "anonymous": false,
      "inputs": [
        {
          "indexed": true,
          "internalType": "bytes32",
          "name": "role",
          "type": "bytes32"
        },
        {
          "indexed": true,
          "internalType": "address",
          "name": "account",
          "type": "address"
        },
        {
          "indexed": true,
          "internalType": "address",
          "name": "sender",
          "type": "address"
        }
      ],
      "name": "RoleGranted",
      "type": "event"
    },
    {
      "anonymous": false,
      "inputs": [
        {
          "indexed": true,
          "internalType": "bytes32",
          "name": "role",
          "type": "bytes32"
        },
        {
          "indexed": true,
          "internalType": "address",
          "name": "account",
          "type": "address"
        },
        {
          "indexed": true,
          "internalType": "address",
          "name": "sender",
          "type": "address"
        }
      ],
      "name": "RoleRevoked",
      "type": "event"
    },
    {
      "anonymous": false,
      "inputs": [
        {
          "indexed": false,
          "internalType": "string",
          "name": "newUri",
          "type": "string"
        }
      ],
      "name": "SetBaseURI",
      "type": "event"
    },
    {
      "anonymous": false,
      "inputs": [
        {
          "indexed": true,
          "internalType": "address",
          "name": "from",
          "type": "address"
        },
        {
          "indexed": true,
          "internalType": "address",
          "name": "to",
          "type": "address"
        },
        {
          "indexed": true,
          "internalType": "uint256",
          "name": "tokenId",
          "type": "uint256"
        }
      ],
      "name": "Transfer",
      "type": "event"
    },
    {
      "inputs": [],
      "name": "CAN_BURN",
      "outputs": [
        {
          "internalType": "bytes32",
          "name": "",
          "type": "bytes32"
        }
      ],
      "stateMutability": "view",
      "type": "function"
    },
    {
      "inputs": [],
      "name": "CAN_MINT",
      "outputs": [
        {
          "internalType": "bytes32",
          "name": "",
          "type": "bytes32"
        }
      ],
      "stateMutability": "view",
      "type": "function"
    },
    {
      "inputs": [],
      "name": "DEFAULT_ADMIN_ROLE",
      "outputs": [
        {
          "internalType": "bytes32",
          "name": "",
          "type": "bytes32"
        }
      ],
      "stateMutability": "view",
      "type": "function"
    },
    {
      "inputs": [],
      "name": "URI_SETTER",
      "outputs": [
        {
          "internalType": "bytes32",
          "name": "",
          "type": "bytes32"
        }
      ],
      "stateMutability": "view",
      "type": "function"
    },
    {
      "inputs": [
        {
          "internalType": "address",
          "name": "to",
          "type": "address"
        },
        {
          "internalType": "uint256",
          "name": "tokenId",
          "type": "uint256"
        }
      ],
      "name": "approve",
      "outputs": [],
      "stateMutability": "nonpayable",
      "type": "function"
    },
    {
      "inputs": [
        {
          "internalType": "address",
          "name": "owner",
          "type": "address"
        }
      ],
      "name": "balanceOf",
      "outputs": [
        {
          "internalType": "uint256",
          "name": "",
          "type": "uint256"
        }
      ],
      "stateMutability": "view",
      "type": "function"
    },
    {
      "inputs": [
        {
          "internalType": "uint256",
          "name": "tokenId",
          "type": "uint256"
        }
      ],
      "name": "burn",
      "outputs": [],
      "stateMutability": "nonpayable",
      "type": "function"
    },
    {
      "inputs": [
        {
          "internalType": "uint256",
          "name": "tokenId",
          "type": "uint256"
        }
      ],
      "name": "getApproved",
      "outputs": [
        {
          "internalType": "address",
          "name": "",
          "type": "address"
        }
      ],
      "stateMutability": "view",
      "type": "function"
    },
    {
      "inputs": [
        {
          "internalType": "bytes32",
          "name": "role",
          "type": "bytes32"
        }
      ],
      "name": "getRoleAdmin",
      "outputs": [
        {
          "internalType": "bytes32",
          "name": "",
          "type": "bytes32"
        }
      ],
      "stateMutability": "view",
      "type": "function"
    },
    {
      "inputs": [
        {
          "internalType": "bytes32",
          "name": "role",
          "type": "bytes32"
        },
        {
          "internalType": "address",
          "name": "account",
          "type": "address"
        }
      ],
      "name": "grantRole",
      "outputs": [],
      "stateMutability": "nonpayable",
      "type": "function"
    },
    {
      "inputs": [
        {
          "internalType": "bytes32",
          "name": "role",
          "type": "bytes32"
        },
        {
          "internalType": "address",
          "name": "account",
          "type": "address"
        }
      ],
      "name": "hasRole",
      "outputs": [
        {
          "internalType": "bool",
          "name": "",
          "type": "bool"
        }
      ],
      "stateMutability": "view",
      "type": "function"
    },
    {
      "inputs": [
        {
          "internalType": "address",
          "name": "owner",
          "type": "address"
        },
        {
          "internalType": "address",
          "name": "operator",
          "type": "address"
        }
      ],
      "name": "isApprovedForAll",
      "outputs": [
        {
          "internalType": "bool",
          "name": "",
          "type": "bool"
        }
      ],
      "stateMutability": "view",
      "type": "function"
    },
    {
      "inputs": [
        {
          "internalType": "address",
          "name": "to",
          "type": "address"
        },
        {
          "internalType": "string",
          "name": "collection",
          "type": "string"
        },
        {
          "internalType": "uint256",
          "name": "quantity",
          "type": "uint256"
        },
        {
          "internalType": "bool",
          "name": "locked",
          "type": "bool"
        }
      ],
      "name": "mint",
      "outputs": [],
      "stateMutability": "nonpayable",
      "type": "function"
    },
    {
      "inputs": [],
      "name": "name",
      "outputs": [
        {
          "internalType": "string",
          "name": "",
          "type": "string"
        }
      ],
      "stateMutability": "view",
      "type": "function"
    },
    {
      "inputs": [
        {
          "internalType": "uint256",
          "name": "",
          "type": "uint256"
        }
      ],
      "name": "nftData",
      "outputs": [
        {
          "internalType": "string",
          "name": "collection",
          "type": "string"
        },
        {
          "internalType": "bool",
          "name": "locked",
          "type": "bool"
        }
      ],
      "stateMutability": "view",
      "type": "function"
    },
    {
      "inputs": [
        {
          "internalType": "uint256",
          "name": "tokenId",
          "type": "uint256"
        }
      ],
      "name": "ownerOf",
      "outputs": [
        {
          "internalType": "address",
          "name": "",
          "type": "address"
        }
      ],
      "stateMutability": "view",
      "type": "function"
    },
    {
      "inputs": [
        {
          "internalType": "bytes32",
          "name": "role",
          "type": "bytes32"
        },
        {
          "internalType": "address",
          "name": "account",
          "type": "address"
        }
      ],
      "name": "renounceRole",
      "outputs": [],
      "stateMutability": "nonpayable",
      "type": "function"
    },
    {
      "inputs": [
        {
          "internalType": "bytes32",
          "name": "role",
          "type": "bytes32"
        },
        {
          "internalType": "address",
          "name": "account",
          "type": "address"
        }
      ],
      "name": "revokeRole",
      "outputs": [],
      "stateMutability": "nonpayable",
      "type": "function"
    },
    {
      "inputs": [
        {
          "internalType": "address",
          "name": "from",
          "type": "address"
        },
        {
          "internalType": "address",
          "name": "to",
          "type": "address"
        },
        {
          "internalType": "uint256",
          "name": "tokenId",
          "type": "uint256"
        }
      ],
      "name": "safeTransferFrom",
      "outputs": [],
      "stateMutability": "nonpayable",
      "type": "function"
    },
    {
      "inputs": [
        {
          "internalType": "address",
          "name": "from",
          "type": "address"
        },
        {
          "internalType": "address",
          "name": "to",
          "type": "address"
        },
        {
          "internalType": "uint256",
          "name": "tokenId",
          "type": "uint256"
        },
        {
          "internalType": "bytes",
          "name": "data",
          "type": "bytes"
        }
      ],
      "name": "safeTransferFrom",
      "outputs": [],
      "stateMutability": "nonpayable",
      "type": "function"
    },
    {
      "inputs": [
        {
          "internalType": "address",
          "name": "operator",
          "type": "address"
        },
        {
          "internalType": "bool",
          "name": "approved",
          "type": "bool"
        }
      ],
      "name": "setApprovalForAll",
      "outputs": [],
      "stateMutability": "nonpayable",
      "type": "function"
    },
    {
      "inputs": [
        {
          "internalType": "string",
          "name": "_baseURI",
          "type": "string"
        }
      ],
      "name": "setBaseURI",
      "outputs": [],
      "stateMutability": "nonpayable",
      "type": "function"
    },
    {
      "inputs": [],
      "name": "supply",
      "outputs": [
        {
          "internalType": "uint256",
          "name": "",
          "type": "uint256"
        }
      ],
      "stateMutability": "view",
      "type": "function"
    },
    {
      "inputs": [
        {
          "internalType": "bytes4",
          "name": "interfaceId",
          "type": "bytes4"
        }
      ],
      "name": "supportsInterface",
      "outputs": [
        {
          "internalType": "bool",
          "name": "",
          "type": "bool"
        }
      ],
      "stateMutability": "view",
      "type": "function"
    },
    {
      "inputs": [],
      "name": "symbol",
      "outputs": [
        {
          "internalType": "string",
          "name": "",
          "type": "string"
        }
      ],
      "stateMutability": "view",
      "type": "function"
    },
    {
      "inputs": [
        {
          "internalType": "uint256",
          "name": "tokenId",
          "type": "uint256"
        }
      ],
      "name": "tokenURI",
      "outputs": [
        {
          "internalType": "string",
          "name": "",
          "type": "string"
        }
      ],
      "stateMutability": "view",
      "type": "function"
    },
    {
      "inputs": [
        {
          "internalType": "address",
          "name": "from",
          "type": "address"
        },
        {
          "internalType": "address",
          "name": "to",
          "type": "address"
        },
        {
          "internalType": "uint256",
          "name": "tokenId",
          "type": "uint256"
        }
      ],
      "name": "transferFrom",
      "outputs": [],
      "stateMutability": "nonpayable",
      "type": "function"
    },
    {
      "inputs": [
        {
          "internalType": "address",
          "name": "_owner",
          "type": "address"
        }
      ],
      "name": "walletOfOwner",
      "outputs": [
        {
          "internalType": "uint256[]",
          "name": "",
          "type": "uint256[]"
        }
      ],
      "stateMutability": "view",
      "type": "function"
    }
  ],
  "bytecode": "0x60806040523480156200001157600080fd5b50604051620026e7380380620026e7833981016040819052620000349162000229565b604080518082018252601281527153706163652050697261746573204e46547360701b60208083019182528351808501909452600684526514d40b53919560d21b9084015281519192916200008c9160009162000183565b508051620000a290600190602084019062000183565b50508151620000ba9150600890602084019062000183565b50620000c8600033620000cf565b5062000352565b620000db8282620000df565b5050565b60008281526006602090815260408083206001600160a01b038516845290915290205460ff16620000db5760008281526006602090815260408083206001600160a01b03851684529091529020805460ff191660011790556200013f3390565b6001600160a01b0316816001600160a01b0316837f2f8788117e7eff1d82e926ec794901d17c78024a50270940304540a733656f0d60405160405180910390a45050565b8280546200019190620002ff565b90600052602060002090601f016020900481019282620001b5576000855562000200565b82601f10620001d057805160ff191683800117855562000200565b8280016001018555821562000200579182015b8281111562000200578251825591602001919060010190620001e3565b506200020e92915062000212565b5090565b5b808211156200020e576000815560010162000213565b600060208083850312156200023c578182fd5b82516001600160401b038082111562000253578384fd5b818501915085601f83011262000267578384fd5b8151818111156200027c576200027c6200033c565b604051601f8201601f19908116603f01168101908382118183101715620002a757620002a76200033c565b816040528281528886848701011115620002bf578687fd5b8693505b82841015620002e25784840186015181850187015292850192620002c3565b82841115620002f357868684830101525b98975050505050505050565b600181811c908216806200031457607f821691505b602082108114156200033657634e487b7160e01b600052602260045260246000fd5b50919050565b634e487b7160e01b600052604160045260246000fd5b61238580620003626000396000f3fe608060405234801561001057600080fd5b50600436106101c45760003560e01c80636352211e116100f9578063a22cb46511610097578063cd2ac3f111610071578063cd2ac3f114610402578063cda472b014610415578063d547741f1461043c578063e985e9c51461044f57600080fd5b8063a22cb465146103c9578063b88d4fde146103dc578063c87b56dd146103ef57600080fd5b80638c210975116100d35780638c2109751461038557806391d14854146103a657806395d89b41146103b9578063a217fddf146103c157600080fd5b80636352211e1461033857806370a082311461034b5780638127fdf31461035e57600080fd5b8063248a9ca31161016657806342842e0e1161014057806342842e0e146102df57806342966c68146102f2578063438b63001461030557806355f804b31461032557600080fd5b8063248a9ca3146102965780632f2ff15d146102b957806336568abe146102cc57600080fd5b8063081812fc116101a2578063081812fc1461021c578063095ea7b314610247578063121d8fdd1461025c57806323b872dd1461028357600080fd5b806301ffc9a7146101c9578063047fc9aa146101f157806306fdde0314610207575b600080fd5b6101dc6101d7366004611e2e565b61048b565b60405190151581526020015b60405180910390f35b6101f961049c565b6040519081526020016101e8565b61020f6104ac565b6040516101e891906120e6565b61022f61022a366004611df4565b61053e565b6040516001600160a01b0390911681526020016101e8565b61025a610255366004611dcb565b610565565b005b6101f97ff897eaf0ef675fc38c678beace50029c7229c9c4d2689259d4397ac85148bb6b81565b61025a610291366004611c75565b610680565b6101f96102a4366004611df4565b60009081526006602052604090206001015490565b61025a6102c7366004611e0c565b6106b1565b61025a6102da366004611e0c565b61071a565b61025a6102ed366004611c75565b610798565b61025a610300366004611df4565b6107b3565b610318610313366004611c29565b61080c565b6040516101e89190612073565b61025a610333366004611e66565b610913565b61022f610346366004611df4565b610988565b6101f9610359366004611c29565b6109e8565b6101f97fa62d8e55240185837238af9adc11e51727e005b95707f32446366dbe58f727e281565b610398610393366004611df4565b610a6e565b6040516101e89291906120f9565b6101dc6103b4366004611e0c565b610b15565b61020f610b40565b6101f9600081565b61025a6103d7366004611d29565b610b4f565b61025a6103ea366004611cb0565b610b5a565b61020f6103fd366004611df4565b610b92565b61025a610410366004611d52565b610c44565b6101f97f5fae0c7bd414a04df9e8c5c6306f0962d6b05973710bc170aa415577df8e2c5c81565b61025a61044a366004611e0c565b610db9565b6101dc61045d366004611c43565b6001600160a01b03918216600090815260056020908152604080832093909416825291909152205460ff1690565b600061049682610e19565b92915050565b60006104a760075490565b905090565b6060600080546104bb9061228d565b80601f01602080910402602001604051908101604052809291908181526020018280546104e79061228d565b80156105345780601f1061050957610100808354040283529160200191610534565b820191906000526020600020905b81548152906001019060200180831161051757829003601f168201915b5050505050905090565b600061054982610e3e565b506000908152600460205260409020546001600160a01b031690565b600061057082610988565b9050806001600160a01b0316836001600160a01b031614156105e35760405162461bcd60e51b815260206004820152602160248201527f4552433732313a20617070726f76616c20746f2063757272656e74206f776e656044820152603960f91b60648201526084015b60405180910390fd5b336001600160a01b03821614806105ff57506105ff813361045d565b6106715760405162461bcd60e51b815260206004820152603e60248201527f4552433732313a20617070726f76652063616c6c6572206973206e6f7420746f60448201527f6b656e206f776e6572206e6f7220617070726f76656420666f7220616c6c000060648201526084016105da565b61067b8383610ea0565b505050565b61068a3382610f0e565b6106a65760405162461bcd60e51b81526004016105da9061216f565b61067b838383610f8d565b6000828152600660205260409020600101546106cc81611134565b6106d6838361113e565b6040516001600160a01b038316815283907f5a06360d65acf95e98445dc834f205063424c636e65418d928cdfabc33a95399906020015b60405180910390a2505050565b6001600160a01b038116331461078a5760405162461bcd60e51b815260206004820152602f60248201527f416363657373436f6e74726f6c3a2063616e206f6e6c792072656e6f756e636560448201526e103937b632b9903337b91039b2b63360891b60648201526084016105da565b61079482826111c4565b5050565b61067b83838360405180602001604052806000815250610b5a565b7ff897eaf0ef675fc38c678beace50029c7229c9c4d2689259d4397ac85148bb6b6107dd81611134565b6107e73383610f0e565b6108035760405162461bcd60e51b81526004016105da9061216f565b6107948261122b565b60606000610819836109e8565b905060008167ffffffffffffffff81111561084457634e487b7160e01b600052604160045260246000fd5b60405190808252806020026020018201604052801561086d578160200160208202803683370190505b509050600160008061087d61049c565b90505b848210801561088f5750808311155b1561090857600061089f84610988565b9050876001600160a01b0316816001600160a01b031614156108f557838584815181106108dc57634e487b7160e01b600052603260045260246000fd5b6020908102919091010152826108f1816122c8565b9350505b836108ff816122c8565b94505050610880565b509195945050505050565b7fa62d8e55240185837238af9adc11e51727e005b95707f32446366dbe58f727e261093d81611134565b61094960088484611a7a565b507f23c8c9488efebfd474e85a7956de6f39b17c7ab88502d42a623db2d8e382bbaa838360405161097b9291906120b7565b60405180910390a1505050565b6000818152600260205260408120546001600160a01b0316806104965760405162461bcd60e51b8152602060048201526018602482015277115490cdcc8c4e881a5b9d985b1a59081d1bdad95b88125160421b60448201526064016105da565b60006001600160a01b038216610a525760405162461bcd60e51b815260206004820152602960248201527f4552433732313a2061646472657373207a65726f206973206e6f7420612076616044820152683634b21037bbb732b960b91b60648201526084016105da565b506001600160a01b031660009081526003602052604090205490565b600960205260009081526040902080548190610a899061228d565b80601f0160208091040260200160405190810160405280929190818152602001828054610ab59061228d565b8015610b025780601f10610ad757610100808354040283529160200191610b02565b820191906000526020600020905b815481529060010190602001808311610ae557829003601f168201915b5050506001909301549192505060ff1682565b60009182526006602090815260408084206001600160a01b0393909316845291905290205460ff1690565b6060600180546104bb9061228d565b6107943383836112d2565b610b643383610f0e565b610b805760405162461bcd60e51b81526004016105da9061216f565b610b8c848484846113a1565b50505050565b6000818152600260205260409020546060906001600160a01b0316610c125760405162461bcd60e51b815260206004820152603060248201527f5370616365506972617465734e46543a2055524920717565727920666f72206e60448201526f37b732bc34b9ba32b73a103a37b5b2b760811b60648201526084016105da565b6008610c1d836113d4565b604051602001610c2e929190611f1b565b6040516020818303038152906040529050919050565b7f5fae0c7bd414a04df9e8c5c6306f0962d6b05973710bc170aa415577df8e2c5c610c6e81611134565b60008311610cd35760405162461bcd60e51b815260206004820152602c60248201527f7370616365506972617465734e46543a206e65656420746f206d696e7420617460448201526b081b19585cdd080c4813919560a21b60648201526084016105da565b60005b83811015610db157610cec600780546001019055565b6000610cf760075490565b604080518082018252888152861515602080830191909152600084815260098252929092208151805194955091939092610d35928492910190611afe565b50602091909101516001909101805460ff1916911515919091179055610d5b87826114ee565b866001600160a01b03167f9ae0e4752a9da458306ab9f2a6dc9ce3ae3ace8a23900f1a309ded3707eb9e77828887604051610d98939291906121bd565b60405180910390a250610daa816122c8565b9050610cd6565b505050505050565b600082815260066020526040902060010154610dd481611134565b610dde83836111c4565b6040516001600160a01b038316815283907f76e6093c136cd7faa5a6d92b2b633f3b4595abd4a529b7a13917398355fea6949060200161070d565b60006001600160e01b03198216637965db0b60e01b148061049657506104968261163c565b6000818152600260205260409020546001600160a01b0316610e9d5760405162461bcd60e51b8152602060048201526018602482015277115490cdcc8c4e881a5b9d985b1a59081d1bdad95b88125160421b60448201526064016105da565b50565b600081815260046020526040902080546001600160a01b0319166001600160a01b0384169081179091558190610ed582610988565b6001600160a01b03167f8c5be1e5ebec7d5bd14f71427d1e84f3dd0314c0f7b2291e5b200ac8c7c3b92560405160405180910390a45050565b600080610f1a83610988565b9050806001600160a01b0316846001600160a01b03161480610f6157506001600160a01b0380821660009081526005602090815260408083209388168352929052205460ff165b80610f855750836001600160a01b0316610f7a8461053e565b6001600160a01b0316145b949350505050565b826001600160a01b0316610fa082610988565b6001600160a01b0316146110045760405162461bcd60e51b815260206004820152602560248201527f4552433732313a207472616e736665722066726f6d20696e636f72726563742060448201526437bbb732b960d91b60648201526084016105da565b6001600160a01b0382166110665760405162461bcd60e51b8152602060048201526024808201527f4552433732313a207472616e7366657220746f20746865207a65726f206164646044820152637265737360e01b60648201526084016105da565b61107183838361168c565b61107c600082610ea0565b6001600160a01b03831660009081526003602052604081208054600192906110a5908490612233565b90915550506001600160a01b03821660009081526003602052604081208054600192906110d39084906121e8565b909155505060008181526002602052604080822080546001600160a01b0319166001600160a01b0386811691821790925591518493918716917fddf252ad1be2c89b69c2b068fc378daa952ba7f163c4a11628f55a4df523b3ef91a4505050565b610e9d8133611720565b6111488282610b15565b6107945760008281526006602090815260408083206001600160a01b03851684529091529020805460ff191660011790556111803390565b6001600160a01b0316816001600160a01b0316837f2f8788117e7eff1d82e926ec794901d17c78024a50270940304540a733656f0d60405160405180910390a45050565b6111ce8282610b15565b156107945760008281526006602090815260408083206001600160a01b0385168085529252808320805460ff1916905551339285917ff6391f5c32d9c69d2a47ea670b442974b53935d1edc7fd64eb21e047a839171b9190a45050565b600061123682610988565b90506112448160008461168c565b61124f600083610ea0565b6001600160a01b0381166000908152600360205260408120805460019290611278908490612233565b909155505060008281526002602052604080822080546001600160a01b0319169055518391906001600160a01b038416907fddf252ad1be2c89b69c2b068fc378daa952ba7f163c4a11628f55a4df523b3ef908390a45050565b816001600160a01b0316836001600160a01b031614156113345760405162461bcd60e51b815260206004820152601960248201527f4552433732313a20617070726f766520746f2063616c6c65720000000000000060448201526064016105da565b6001600160a01b03838116600081815260056020908152604080832094871680845294825291829020805460ff191686151590811790915591519182527f17307eab39ab6107e8899845ad3d59bd9653f200f220920489ca2b5937696c31910160405180910390a3505050565b6113ac848484610f8d565b6113b884848484611784565b610b8c5760405162461bcd60e51b81526004016105da9061211d565b6060816113f85750506040805180820190915260018152600360fc1b602082015290565b8160005b8115611422578061140c816122c8565b915061141b9050600a83612200565b91506113fc565b60008167ffffffffffffffff81111561144b57634e487b7160e01b600052604160045260246000fd5b6040519080825280601f01601f191660200182016040528015611475576020820181803683370190505b5090505b8415610f855761148a600183612233565b9150611497600a866122e3565b6114a29060306121e8565b60f81b8183815181106114c557634e487b7160e01b600052603260045260246000fd5b60200101906001600160f81b031916908160001a9053506114e7600a86612200565b9450611479565b6001600160a01b0382166115445760405162461bcd60e51b815260206004820181905260248201527f4552433732313a206d696e7420746f20746865207a65726f206164647265737360448201526064016105da565b6000818152600260205260409020546001600160a01b0316156115a95760405162461bcd60e51b815260206004820152601c60248201527f4552433732313a20746f6b656e20616c7265616479206d696e7465640000000060448201526064016105da565b6115b56000838361168c565b6001600160a01b03821660009081526003602052604081208054600192906115de9084906121e8565b909155505060008181526002602052604080822080546001600160a01b0319166001600160a01b03861690811790915590518392907fddf252ad1be2c89b69c2b068fc378daa952ba7f163c4a11628f55a4df523b3ef908290a45050565b60006001600160e01b031982166380ac58cd60e01b148061166d57506001600160e01b03198216635b5e139f60e01b145b8061049657506301ffc9a760e01b6001600160e01b0319831614610496565b60008181526009602052604090206001015460ff1615806116b457506001600160a01b038316155b806116c657506001600160a01b038216155b61067b5760405162461bcd60e51b815260206004820152602560248201527f5370616365506972617465734e46543a204e4654206e6f74207472616e7366656044820152647261626c6560d81b60648201526084016105da565b61172a8282610b15565b61079457611742816001600160a01b03166014611891565b61174d836020611891565b60405160200161175e929190611fc1565b60408051601f198184030181529082905262461bcd60e51b82526105da916004016120e6565b60006001600160a01b0384163b1561188657604051630a85bd0160e11b81526001600160a01b0385169063150b7a02906117c8903390899088908890600401612036565b602060405180830381600087803b1580156117e257600080fd5b505af1925050508015611812575060408051601f3d908101601f1916820190925261180f91810190611e4a565b60015b61186c573d808015611840576040519150601f19603f3d011682016040523d82523d6000602084013e611845565b606091505b5080516118645760405162461bcd60e51b81526004016105da9061211d565b805181602001fd5b6001600160e01b031916630a85bd0160e11b149050610f85565b506001949350505050565b606060006118a0836002612214565b6118ab9060026121e8565b67ffffffffffffffff8111156118d157634e487b7160e01b600052604160045260246000fd5b6040519080825280601f01601f1916602001820160405280156118fb576020820181803683370190505b509050600360fc1b8160008151811061192457634e487b7160e01b600052603260045260246000fd5b60200101906001600160f81b031916908160001a905350600f60fb1b8160018151811061196157634e487b7160e01b600052603260045260246000fd5b60200101906001600160f81b031916908160001a9053506000611985846002612214565b6119909060016121e8565b90505b6001811115611a24576f181899199a1a9b1b9c1cb0b131b232b360811b85600f16601081106119d257634e487b7160e01b600052603260045260246000fd5b1a60f81b8282815181106119f657634e487b7160e01b600052603260045260246000fd5b60200101906001600160f81b031916908160001a90535060049490941c93611a1d81612276565b9050611993565b508315611a735760405162461bcd60e51b815260206004820181905260248201527f537472696e67733a20686578206c656e67746820696e73756666696369656e7460448201526064016105da565b9392505050565b828054611a869061228d565b90600052602060002090601f016020900481019282611aa85760008555611aee565b82601f10611ac15782800160ff19823516178555611aee565b82800160010185558215611aee579182015b82811115611aee578235825591602001919060010190611ad3565b50611afa929150611b72565b5090565b828054611b0a9061228d565b90600052602060002090601f016020900481019282611b2c5760008555611aee565b82601f10611b4557805160ff1916838001178555611aee565b82800160010185558215611aee579182015b82811115611aee578251825591602001919060010190611b57565b5b80821115611afa5760008155600101611b73565b600067ffffffffffffffff80841115611ba257611ba2612323565b604051601f8501601f19908116603f01168101908282118183101715611bca57611bca612323565b81604052809350858152868686011115611be357600080fd5b858560208301376000602087830101525050509392505050565b80356001600160a01b0381168114611c1457600080fd5b919050565b80358015158114611c1457600080fd5b600060208284031215611c3a578081fd5b611a7382611bfd565b60008060408385031215611c55578081fd5b611c5e83611bfd565b9150611c6c60208401611bfd565b90509250929050565b600080600060608486031215611c89578081fd5b611c9284611bfd565b9250611ca060208501611bfd565b9150604084013590509250925092565b60008060008060808587031215611cc5578081fd5b611cce85611bfd565b9350611cdc60208601611bfd565b925060408501359150606085013567ffffffffffffffff811115611cfe578182fd5b8501601f81018713611d0e578182fd5b611d1d87823560208401611b87565b91505092959194509250565b60008060408385031215611d3b578182fd5b611d4483611bfd565b9150611c6c60208401611c19565b60008060008060808587031215611d67578384fd5b611d7085611bfd565b9350602085013567ffffffffffffffff811115611d8b578384fd5b8501601f81018713611d9b578384fd5b611daa87823560208401611b87565b93505060408501359150611dc060608601611c19565b905092959194509250565b60008060408385031215611ddd578182fd5b611de683611bfd565b946020939093013593505050565b600060208284031215611e05578081fd5b5035919050565b60008060408385031215611e1e578182fd5b82359150611c6c60208401611bfd565b600060208284031215611e3f578081fd5b8135611a7381612339565b600060208284031215611e5b578081fd5b8151611a7381612339565b60008060208385031215611e78578182fd5b823567ffffffffffffffff80821115611e8f578384fd5b818501915085601f830112611ea2578384fd5b813581811115611eb0578485fd5b866020828501011115611ec1578485fd5b60209290920196919550909350505050565b60008151808452611eeb81602086016020860161224a565b601f01601f19169290920160200192915050565b60008151611f1181856020860161224a565b9290920192915050565b600080845482600182811c915080831680611f3757607f831692505b6020808410821415611f5757634e487b7160e01b87526022600452602487fd5b818015611f6b5760018114611f7c57611fa8565b60ff19861689528489019650611fa8565b60008b815260209020885b86811015611fa05781548b820152908501908301611f87565b505084890196505b505050505050611fb88185611eff565b95945050505050565b7f416363657373436f6e74726f6c3a206163636f756e7420000000000000000000815260008351611ff981601785016020880161224a565b7001034b99036b4b9b9b4b733903937b6329607d1b601791840191820152835161202a81602884016020880161224a565b01602801949350505050565b6001600160a01b038581168252841660208201526040810183905260806060820181905260009061206990830184611ed3565b9695505050505050565b6020808252825182820181905260009190848201906040850190845b818110156120ab5783518352928401929184019160010161208f565b50909695505050505050565b60208152816020820152818360408301376000818301604090810191909152601f909201601f19160101919050565b602081526000611a736020830184611ed3565b60408152600061210c6040830185611ed3565b905082151560208301529392505050565b60208082526032908201527f4552433732313a207472616e7366657220746f206e6f6e20455243373231526560408201527131b2b4bb32b91034b6b83632b6b2b73a32b960711b606082015260800190565b6020808252602e908201527f4552433732313a2063616c6c6572206973206e6f7420746f6b656e206f776e6560408201526d1c881b9bdc88185c1c1c9bdd995960921b606082015260800190565b8381526060602082015260006121d66060830185611ed3565b90508215156040830152949350505050565b600082198211156121fb576121fb6122f7565b500190565b60008261220f5761220f61230d565b500490565b600081600019048311821515161561222e5761222e6122f7565b500290565b600082821015612245576122456122f7565b500390565b60005b8381101561226557818101518382015260200161224d565b83811115610b8c5750506000910152565b600081612285576122856122f7565b506000190190565b600181811c908216806122a157607f821691505b602082108114156122c257634e487b7160e01b600052602260045260246000fd5b50919050565b60006000198214156122dc576122dc6122f7565b5060010190565b6000826122f2576122f261230d565b500690565b634e487b7160e01b600052601160045260246000fd5b634e487b7160e01b600052601260045260246000fd5b634e487b7160e01b600052604160045260246000fd5b6001600160e01b031981168114610e9d57600080fdfea264697066735822122023fc203f62947b409741ed8b8c5fe0f649a42ced8ffead6620a5d6fda7f6c8b764736f6c63430008040033",
  "linkReferences": {},
  "deployedLinkReferences": {}
}