{
  "_format": "hh-sol-artifact-1",
  "contractName": "SpacePiratesFaucet",
  "sourceName": "contracts/SpacePiratesFaucet.sol",
  "abi": [
    {
      "inputs": [
        {
          "internalType": "contract SpacePiratesTokens",
          "name": "_tokenContract",
          "type": "address"
        }
      ],
      "stateMutability": "nonpayable",
      "type": "constructor"
    },
    {
      "anonymous": false,
      "inputs": [
        {
          "indexed": true,
          "internalType": "address",
          "name": "previousOwner",
          "type": "address"
        },
        {
          "indexed": true,
          "internalType": "address",
          "name": "newOwner",
          "type": "address"
        }
      ],
      "name": "OwnershipTransferred",
      "type": "event"
    },
    {
      "anonymous": false,
      "inputs": [
        {
          "indexed": true,
          "internalType": "uint256",
          "name": "tokenId",
          "type": "uint256"
        },
        {
          "indexed": false,
          "internalType": "uint256",
          "name": "mintLimit",
          "type": "uint256"
        }
      ],
      "name": "SetMintLimit",
      "type": "event"
    },
    {
      "anonymous": false,
      "inputs": [
        {
          "indexed": true,
          "internalType": "address",
          "name": "to",
          "type": "address"
        },
        {
          "indexed": true,
          "internalType": "uint256",
          "name": "tokenId",
          "type": "uint256"
        },
        {
          "indexed": false,
          "internalType": "uint256",
          "name": "value",
          "type": "uint256"
        }
      ],
      "name": "TokenMint",
      "type": "event"
    },
    {
      "inputs": [],
      "name": "getSupportedTokens",
      "outputs": [
        {
          "internalType": "uint256[]",
          "name": "",
          "type": "uint256[]"
        }
      ],
      "stateMutability": "view",
      "type": "function"
    },
    {
      "inputs": [
        {
          "internalType": "uint256",
          "name": "tokenId",
          "type": "uint256"
        },
        {
          "internalType": "uint256",
          "name": "amount",
          "type": "uint256"
        }
      ],
      "name": "mintToken",
      "outputs": [],
      "stateMutability": "nonpayable",
      "type": "function"
    },
    {
      "inputs": [],
      "name": "owner",
      "outputs": [
        {
          "internalType": "address",
          "name": "",
          "type": "address"
        }
      ],
      "stateMutability": "view",
      "type": "function"
    },
    {
      "inputs": [],
      "name": "renounceOwnership",
      "outputs": [],
      "stateMutability": "nonpayable",
      "type": "function"
    },
    {
      "inputs": [
        {
          "internalType": "uint256",
          "name": "tokenId",
          "type": "uint256"
        },
        {
          "internalType": "uint256",
          "name": "mintLimit",
          "type": "uint256"
        }
      ],
      "name": "setMintLimit",
      "outputs": [],
      "stateMutability": "nonpayable",
      "type": "function"
    },
    {
      "inputs": [
        {
          "internalType": "uint256",
          "name": "",
          "type": "uint256"
        }
      ],
      "name": "supportedTokens",
      "outputs": [
        {
          "internalType": "uint256",
          "name": "",
          "type": "uint256"
        }
      ],
      "stateMutability": "view",
      "type": "function"
    },
    {
      "inputs": [],
      "name": "tokenContract",
      "outputs": [
        {
          "internalType": "contract SpacePiratesTokens",
          "name": "",
          "type": "address"
        }
      ],
      "stateMutability": "view",
      "type": "function"
    },
    {
      "inputs": [
        {
          "internalType": "uint256",
          "name": "",
          "type": "uint256"
        }
      ],
      "name": "tokenMintLimit",
      "outputs": [
        {
          "internalType": "uint256",
          "name": "",
          "type": "uint256"
        }
      ],
      "stateMutability": "view",
      "type": "function"
    },
    {
      "inputs": [
        {
          "internalType": "address",
          "name": "newOwner",
          "type": "address"
        }
      ],
      "name": "transferOwnership",
      "outputs": [],
      "stateMutability": "nonpayable",
      "type": "function"
    }
  ],
  "bytecode": "0x60a060405234801561001057600080fd5b506040516106dd3803806106dd83398101604081905261002f9161009d565b6100383361004d565b60601b6001600160601b0319166080526100cb565b600080546001600160a01b038381166001600160a01b0319831681178455604051919092169283917f8be0079c531659141344cd1fd0a4f28419497f9722a3daafe3b4186f6b6457e09190a35050565b6000602082840312156100ae578081fd5b81516001600160a01b03811681146100c4578182fd5b9392505050565b60805160601c6105ee6100ef6000396000818160b2015261021c01526105ee6000f3fe608060405234801561001057600080fd5b50600436106100935760003560e01c8063715018a611610066578063715018a6146101325780638da5cb5b1461013a578063c62556261461014b578063d3c7c2c71461015e578063f2fde38b1461017357600080fd5b806320cbf5f91461009857806355a373d6146100ad5780635e10eb51146100f15780636fad40d51461011f575b600080fd5b6100ab6100a6366004610553565b610186565b005b6100d47f000000000000000000000000000000000000000000000000000000000000000081565b6040516001600160a01b0390911681526020015b60405180910390f35b6101116100ff36600461053b565b60016020526000908152604090205481565b6040519081526020016100e8565b6100ab61012d366004610553565b6102bb565b6100ab61035d565b6000546001600160a01b03166100d4565b61011161015936600461053b565b610371565b610166610392565b6040516100e89190610574565b6100ab61018136600461050d565b6103ea565b6000828152600160205260409020548111156101f95760405162461bcd60e51b815260206004820152602760248201527f5370616365506972617465734661756365743a206d696e74206c696d697420656044820152661e18d95959195960ca1b60648201526084015b60405180910390fd5b604051630ab714fb60e11b815233600482015260248101839052604481018290527f00000000000000000000000000000000000000000000000000000000000000006001600160a01b03169063156e29f690606401600060405180830381600087803b15801561026857600080fd5b505af115801561027c573d6000803e3d6000fd5b50506040518381528492503391507f2cb7ded13a095089a18b8ad95c663730c3ff5339d3aa328fe7913d97ba3014ef9060200160405180910390a35050565b6102c3610463565b60008281526001602052604090205461030c57600280546001810182556000919091527f405787fa12a823e0f2b7631cc41b3ba8828b3321ca811111fa75cd3aa3bb5ace018290555b600082815260016020526040908190208290555182907fbec9fa51a19118a74ef477f3ec3be93e6d3d286d642e803907752aa8f48fd171906103519084815260200190565b60405180910390a25050565b610365610463565b61036f60006104bd565b565b6002818154811061038157600080fd5b600091825260209091200154905081565b606060028054806020026020016040519081016040528092919081815260200182805480156103e057602002820191906000526020600020905b8154815260200190600101908083116103cc575b5050505050905090565b6103f2610463565b6001600160a01b0381166104575760405162461bcd60e51b815260206004820152602660248201527f4f776e61626c653a206e6577206f776e657220697320746865207a65726f206160448201526564647265737360d01b60648201526084016101f0565b610460816104bd565b50565b6000546001600160a01b0316331461036f5760405162461bcd60e51b815260206004820181905260248201527f4f776e61626c653a2063616c6c6572206973206e6f7420746865206f776e657260448201526064016101f0565b600080546001600160a01b038381166001600160a01b0319831681178455604051919092169283917f8be0079c531659141344cd1fd0a4f28419497f9722a3daafe3b4186f6b6457e09190a35050565b60006020828403121561051e578081fd5b81356001600160a01b0381168114610534578182fd5b9392505050565b60006020828403121561054c578081fd5b5035919050565b60008060408385031215610565578081fd5b50508035926020909101359150565b6020808252825182820181905260009190848201906040850190845b818110156105ac57835183529284019291840191600101610590565b5090969550505050505056fea2646970667358221220b7db4cb608bd7e9e43c0939994adc8bb8f63bb507e3a09bf60bab3dbb4be58a564736f6c63430008040033",
  "linkReferences": {},
  "deployedLinkReferences": {}
}