{
  "_format": "hh-sol-artifact-1",
  "contractName": "NFTCollectionFactory",
  "sourceName": "contracts/NFT/NFTCollectionFactory.sol",
  "abi": [
    {
      "inputs": [
        {
          "internalType": "contract SpacePiratesTokens",
          "name": "_tokenContract",
          "type": "address"
        },
        {
          "internalType": "contract SpacePiratesNFT",
          "name": "_nftContract",
          "type": "address"
        }
      ],
      "stateMutability": "nonpayable",
      "type": "constructor"
    },
    {
      "anonymous": false,
      "inputs": [
        {
          "indexed": false,
          "internalType": "string",
          "name": "name",
          "type": "string"
        },
        {
          "indexed": false,
          "internalType": "uint112",
          "name": "available",
          "type": "uint112"
        },
        {
          "indexed": false,
          "internalType": "uint64",
          "name": "start",
          "type": "uint64"
        },
        {
          "indexed": false,
          "internalType": "uint64",
          "name": "end",
          "type": "uint64"
        },
        {
          "indexed": false,
          "internalType": "uint16",
          "name": "maxMintPerAddress",
          "type": "uint16"
        }
      ],
      "name": "CreateCollection",
      "type": "event"
    },
    {
      "anonymous": false,
      "inputs": [
        {
          "indexed": true,
          "internalType": "string",
          "name": "name",
          "type": "string"
        },
        {
          "indexed": false,
          "internalType": "uint112",
          "name": "available",
          "type": "uint112"
        },
        {
          "indexed": false,
          "internalType": "uint64",
          "name": "start",
          "type": "uint64"
        },
        {
          "indexed": false,
          "internalType": "uint64",
          "name": "end",
          "type": "uint64"
        },
        {
          "indexed": false,
          "internalType": "uint16",
          "name": "maxMintPerAddress",
          "type": "uint16"
        }
      ],
      "name": "EditCollection",
      "type": "event"
    },
    {
      "anonymous": false,
      "inputs": [
        {
          "indexed": true,
          "internalType": "address",
          "name": "previousOwner",
          "type": "address"
        },
        {
          "indexed": true,
          "internalType": "address",
          "name": "newOwner",
          "type": "address"
        }
      ],
      "name": "OwnershipTransferred",
      "type": "event"
    },
    {
      "anonymous": false,
      "inputs": [
        {
          "indexed": false,
          "internalType": "uint128",
          "name": "newDoubloonsPrice",
          "type": "uint128"
        },
        {
          "indexed": false,
          "internalType": "uint128",
          "name": "newAsteroidsPrice",
          "type": "uint128"
        }
      ],
      "name": "SetPrice",
      "type": "event"
    },
    {
      "inputs": [],
      "name": "ASTEROIDS",
      "outputs": [
        {
          "internalType": "uint256",
          "name": "",
          "type": "uint256"
        }
      ],
      "stateMutability": "view",
      "type": "function"
    },
    {
      "inputs": [],
      "name": "DOUBLOONS",
      "outputs": [
        {
          "internalType": "uint256",
          "name": "",
          "type": "uint256"
        }
      ],
      "stateMutability": "view",
      "type": "function"
    },
    {
      "inputs": [],
      "name": "EVOCATION_GEM",
      "outputs": [
        {
          "internalType": "uint256",
          "name": "",
          "type": "uint256"
        }
      ],
      "stateMutability": "view",
      "type": "function"
    },
    {
      "inputs": [],
      "name": "asteroidsPrice",
      "outputs": [
        {
          "internalType": "uint128",
          "name": "",
          "type": "uint128"
        }
      ],
      "stateMutability": "view",
      "type": "function"
    },
    {
      "inputs": [
        {
          "internalType": "uint256",
          "name": "",
          "type": "uint256"
        }
      ],
      "name": "availableCollections",
      "outputs": [
        {
          "internalType": "string",
          "name": "",
          "type": "string"
        }
      ],
      "stateMutability": "view",
      "type": "function"
    },
    {
      "inputs": [
        {
          "internalType": "string",
          "name": "",
          "type": "string"
        }
      ],
      "name": "collections",
      "outputs": [
        {
          "internalType": "uint112",
          "name": "available",
          "type": "uint112"
        },
        {
          "internalType": "uint64",
          "name": "start",
          "type": "uint64"
        },
        {
          "internalType": "uint64",
          "name": "end",
          "type": "uint64"
        },
        {
          "internalType": "uint16",
          "name": "maxMintPerAddress",
          "type": "uint16"
        }
      ],
      "stateMutability": "view",
      "type": "function"
    },
    {
      "inputs": [
        {
          "internalType": "string",
          "name": "name",
          "type": "string"
        },
        {
          "internalType": "uint112",
          "name": "available",
          "type": "uint112"
        },
        {
          "internalType": "uint64",
          "name": "start",
          "type": "uint64"
        },
        {
          "internalType": "uint64",
          "name": "end",
          "type": "uint64"
        },
        {
          "internalType": "uint16",
          "name": "maxMintPerAddress",
          "type": "uint16"
        }
      ],
      "name": "createCollection",
      "outputs": [],
      "stateMutability": "nonpayable",
      "type": "function"
    },
    {
      "inputs": [],
      "name": "doubloonsPrice",
      "outputs": [
        {
          "internalType": "uint128",
          "name": "",
          "type": "uint128"
        }
      ],
      "stateMutability": "view",
      "type": "function"
    },
    {
      "inputs": [
        {
          "internalType": "string",
          "name": "name",
          "type": "string"
        },
        {
          "internalType": "uint112",
          "name": "available",
          "type": "uint112"
        },
        {
          "internalType": "uint64",
          "name": "start",
          "type": "uint64"
        },
        {
          "internalType": "uint64",
          "name": "end",
          "type": "uint64"
        },
        {
          "internalType": "uint16",
          "name": "maxMintPerAddress",
          "type": "uint16"
        }
      ],
      "name": "editCollection",
      "outputs": [],
      "stateMutability": "nonpayable",
      "type": "function"
    },
    {
      "inputs": [
        {
          "internalType": "string",
          "name": "",
          "type": "string"
        }
      ],
      "name": "exist",
      "outputs": [
        {
          "internalType": "bool",
          "name": "",
          "type": "bool"
        }
      ],
      "stateMutability": "view",
      "type": "function"
    },
    {
      "inputs": [],
      "name": "getCollectionsList",
      "outputs": [
        {
          "internalType": "string[]",
          "name": "",
          "type": "string[]"
        }
      ],
      "stateMutability": "view",
      "type": "function"
    },
    {
      "inputs": [
        {
          "internalType": "string",
          "name": "name",
          "type": "string"
        },
        {
          "internalType": "uint256",
          "name": "quantity",
          "type": "uint256"
        }
      ],
      "name": "mintCollectionItem",
      "outputs": [],
      "stateMutability": "nonpayable",
      "type": "function"
    },
    {
      "inputs": [
        {
          "internalType": "string",
          "name": "",
          "type": "string"
        },
        {
          "internalType": "address",
          "name": "",
          "type": "address"
        }
      ],
      "name": "nbrOfCollectionMinted",
      "outputs": [
        {
          "internalType": "uint256",
          "name": "",
          "type": "uint256"
        }
      ],
      "stateMutability": "view",
      "type": "function"
    },
    {
      "inputs": [],
      "name": "nftContract",
      "outputs": [
        {
          "internalType": "contract SpacePiratesNFT",
          "name": "",
          "type": "address"
        }
      ],
      "stateMutability": "view",
      "type": "function"
    },
    {
      "inputs": [],
      "name": "owner",
      "outputs": [
        {
          "internalType": "address",
          "name": "",
          "type": "address"
        }
      ],
      "stateMutability": "view",
      "type": "function"
    },
    {
      "inputs": [],
      "name": "renounceOwnership",
      "outputs": [],
      "stateMutability": "nonpayable",
      "type": "function"
    },
    {
      "inputs": [
        {
          "internalType": "uint128",
          "name": "newDoubloonsPrice",
          "type": "uint128"
        },
        {
          "internalType": "uint128",
          "name": "newAsteroidsPrice",
          "type": "uint128"
        }
      ],
      "name": "setPrice",
      "outputs": [],
      "stateMutability": "nonpayable",
      "type": "function"
    },
    {
      "inputs": [],
      "name": "tokenContract",
      "outputs": [
        {
          "internalType": "contract SpacePiratesTokens",
          "name": "",
          "type": "address"
        }
      ],
      "stateMutability": "view",
      "type": "function"
    },
    {
      "inputs": [
        {
          "internalType": "address",
          "name": "newOwner",
          "type": "address"
        }
      ],
      "name": "transferOwnership",
      "outputs": [],
      "stateMutability": "nonpayable",
      "type": "function"
    }
  ],
  "bytecode": "0x60c06040527801158e460913d00000000000000000021e19e0c9bab24000006001553480156200002e57600080fd5b50604051620019f1380380620019f18339810160408190526200005191620000cb565b6200005c336200007b565b6001600160601b0319606092831b811660a052911b1660805262000122565b600080546001600160a01b038381166001600160a01b0319831681178455604051919092169283917f8be0079c531659141344cd1fd0a4f28419497f9722a3daafe3b4186f6b6457e09190a35050565b60008060408385031215620000de578182fd5b8251620000eb8162000109565b6020840151909250620000fe8162000109565b809150509250929050565b6001600160a01b03811681146200011f57600080fd5b50565b60805160601c60a05160601c6118956200015c600039600081816101dd0152610efd0152600081816103810152610f7d01526118956000f3fe608060405234801561001057600080fd5b50600436106101215760003560e01c8063715018a6116100ad5780639c7fd45b116100715780639c7fd45b14610354578063c68c44ff14610374578063d56d229d1461037c578063e94fbf44146103a3578063f2fde38b146103ac57600080fd5b8063715018a6146102da5780638da5cb5b146102e25780638eb53046146102f357806396e728ae146103065780639c1fb8131461031957600080fd5b806347204a9e116100f457806347204a9e146101be57806355a373d6146101d857806366e54d7b146102175780636712627d146102b15780636a69288e146102c757600080fd5b8063057af1c4146101265780631b10401114610169578063407749991461017e5780634546356c146101a9575b600080fd5b610154610134366004611477565b805160208183018101805160038252928201919093012091525460ff1681565b60405190151581526020015b60405180910390f35b6101716103bf565b6040516101609190611679565b600154610191906001600160801b031681565b6040516001600160801b039091168152602001610160565b6101bc6101b73660046114fc565b610498565b005b60015461019190600160801b90046001600160801b031681565b6101ff7f000000000000000000000000000000000000000000000000000000000000000081565b6040516001600160a01b039091168152602001610160565b610276610225366004611477565b80516020818301810180516004825292820191909301209152546001600160701b03811690600160701b81046001600160401b0390811691600160b01b810490911690600160f01b900461ffff1684565b604080516001600160701b039590951685526001600160401b039384166020860152919092169083015261ffff166060820152608001610160565b6102b9600281565b604051908152602001610160565b6101bc6102d5366004611396565b6104f9565b6101bc610733565b6000546001600160a01b03166101ff565b6101bc610301366004611396565b610747565b6101bc61031436600461142e565b61093d565b6102b96103273660046114b1565b81516020818401810180516005825292820194820194909420919093529091526000908152604090205481565b610367610362366004611525565b610ff7565b604051610160919061172b565b6102b9600181565b6101ff7f000000000000000000000000000000000000000000000000000000000000000081565b6102b96103e981565b6101bc6103ba366004611375565b6110a3565b60606002805480602002602001604051908101604052809291908181526020016000905b8282101561048f578382906000526020600020018054610402906117d8565b80601f016020809104026020016040519081016040528092919081815260200182805461042e906117d8565b801561047b5780601f106104505761010080835404028352916020019161047b565b820191906000526020600020905b81548152906001019060200180831161045e57829003601f168201915b5050505050815260200190600101906103e3565b50505050905090565b6104a061111c565b6001600160801b03828116600160801b91831691820281176001556040805191825260208201929092527f1c29fab19c27f46c9f32712d4619d81aeccb665c42749f6267c5dc52716148a5910160405180910390a15050565b61050161111c565b600386866040516105139291906115eb565b9081526040519081900360200190205460ff161561057d5760405162461bcd60e51b815260206004820152602e602482015260008051602061184083398151915260448201526d08185b1c9958591e48195e1a5cdd60921b60648201526084015b60405180910390fd5b6001600160701b0384166105a35760405162461bcd60e51b81526004016105749061173e565b6001600387876040516105b79291906115eb565b908152604051908190036020019020805491151560ff1990921691909117905560028054600181018255600091909152610614907f405787fa12a823e0f2b7631cc41b3ba8828b3321ca811111fa75cd3aa3bb5ace0187876111c6565b506040518060800160405280856001600160701b03168152602001846001600160401b03168152602001836001600160401b031681526020018261ffff16815250600487876040516106679291906115eb565b90815260408051918290036020908101832084518154928601519386015160609096015161ffff16600160f01b026001600160f01b036001600160401b03978816600160b01b02166001600160b01b0397909516600160701b026001600160b01b03199094166001600160701b0390921691909117929092179490941691909117179091557fed222f8c66d0c5798c4d8f971b558f0e027453d70dc57027a945b743a61361a990610723908890889088908890889088906116da565b60405180910390a1505050505050565b61073b61111c565b6107456000611176565b565b61074f61111c565b600386866040516107619291906115eb565b9081526040519081900360200190205460ff166107c65760405162461bcd60e51b815260206004820152602f602482015260008051602061184083398151915260448201526e08191bd95cc81b9bdd08195e1a5cdd608a1b6064820152608401610574565b6001600160701b0384166107ec5760405162461bcd60e51b81526004016105749061173e565b6040518060800160405280856001600160701b03168152602001846001600160401b03168152602001836001600160401b031681526020018261ffff168152506004878760405161083e9291906115eb565b90815260408051918290036020908101832084518154928601519386015160609096015161ffff16600160f01b026001600160f01b036001600160401b03978816600160b01b02166001600160b01b0397909516600160701b026001600160b01b03199094166001600160701b0390921691909117929092179490941691909117179091556108d090879087906115eb565b604080519182900382206001600160701b03871683526001600160401b03868116602085015285168383015261ffff84166060840152905190917f39aac56b6a58eb0fd9766cbc485b55ba141fcf789b8108cbd94e933a4fda467b919081900360800190a2505050505050565b6000811161099c5760405162461bcd60e51b815260206004820152602660248201527f4e4654436f6c6c656374696f6e466163746f72793a2063616e2774206d696e74604482015265080c0813919560d21b6064820152608401610574565b600383836040516109ae9291906115eb565b9081526040519081900360200190205460ff16610a295760405162461bcd60e51b815260206004820152603360248201527f4e4654436f6c6c656374696f6e466163746f72793a2074686520636f6c6c65636044820152721d1a5bdb88191bd95cc81b9bdd08195e1a5cdd606a1b6064820152608401610574565b600060048484604051610a3d9291906115eb565b9081526040805160209281900383018120608082018352546001600160701b0381168252600160701b81046001600160401b03908116948301859052600160b01b82041692820192909252600160f01b90910461ffff1660608201529150421015610af15760405162461bcd60e51b8152602060048201526030602482015260008051602061184083398151915260448201526f081b9bdd081cdd185c9d1959081e595d60821b6064820152608401610574565b60408101516001600160401b03161580610b18575080604001516001600160401b03164211155b610b695760405162461bcd60e51b815260206004820152602e602482015260008051602061184083398151915260448201526d08185b1c9958591e48195b99195960921b6064820152608401610574565b80516001600160701b0390811614610c5b5780516001600160701b0316821115610bfb5760405162461bcd60e51b815260206004820152603760248201527f4e4654436f6c6c656374696f6e466163746f72793a206d696e74207175616e7460448201527f6974792065786365656420617661696c6162696c6974790000000000000000006064820152608401610574565b8160048585604051610c0e9291906115eb565b9081526040519081900360200190208054600090610c369084906001600160701b03166117b0565b92506101000a8154816001600160701b0302191690836001600160701b031602179055505b606081015161ffff1615610d5757806060015161ffff168260058686604051610c859291906115eb565b90815260408051602092819003830190203360009081529252902054610cab9190611779565b1115610d135760405162461bcd60e51b815260206004820152603160248201527f4e4654436f6c6c656374696f6e466163746f72793a206578636565646564206160448201527019191c995cdcc81b5a5b9d081b1a5b5a5d607a1b6064820152608401610574565b8160058585604051610d269291906115eb565b9081526040805160209281900383019020336000908152925281208054909190610d51908490611779565b90915550505b6040805160038082526080820190925260009160208201606080368337019050509050600181600081518110610d9d57634e487b7160e01b600052603260045260246000fd5b602002602001018181525050600281600181518110610dcc57634e487b7160e01b600052603260045260246000fd5b6020026020010181815250506103e981600281518110610dfc57634e487b7160e01b600052603260045260246000fd5b60209081029190910101526040805160038082526080820190925260009181602001602082028036833701905050600154909150610e43906001600160801b031685611791565b81600081518110610e6457634e487b7160e01b600052603260045260246000fd5b6020908102919091010152600154610e8c90600160801b90046001600160801b031685611791565b81600181518110610ead57634e487b7160e01b600052603260045260246000fd5b6020026020010181815250508381600281518110610edb57634e487b7160e01b600052603260045260246000fd5b6020908102919091010152604051631ac8311560e21b81526001600160a01b037f00000000000000000000000000000000000000000000000000000000000000001690636b20c45490610f36903390869086906004016115fb565b600060405180830381600087803b158015610f5057600080fd5b505af1158015610f64573d6000803e3d6000fd5b505060405163cd2ac3f160e01b81526001600160a01b037f000000000000000000000000000000000000000000000000000000000000000016925063cd2ac3f19150610fbd9033908a908a908a9060009060040161163b565b600060405180830381600087803b158015610fd757600080fd5b505af1158015610feb573d6000803e3d6000fd5b50505050505050505050565b6002818154811061100757600080fd5b906000526020600020016000915090508054611022906117d8565b80601f016020809104026020016040519081016040528092919081815260200182805461104e906117d8565b801561109b5780601f106110705761010080835404028352916020019161109b565b820191906000526020600020905b81548152906001019060200180831161107e57829003601f168201915b505050505081565b6110ab61111c565b6001600160a01b0381166111105760405162461bcd60e51b815260206004820152602660248201527f4f776e61626c653a206e6577206f776e657220697320746865207a65726f206160448201526564647265737360d01b6064820152608401610574565b61111981611176565b50565b6000546001600160a01b031633146107455760405162461bcd60e51b815260206004820181905260248201527f4f776e61626c653a2063616c6c6572206973206e6f7420746865206f776e65726044820152606401610574565b600080546001600160a01b038381166001600160a01b0319831681178455604051919092169283917f8be0079c531659141344cd1fd0a4f28419497f9722a3daafe3b4186f6b6457e09190a35050565b8280546111d2906117d8565b90600052602060002090601f0160209004810192826111f4576000855561123a565b82601f1061120d5782800160ff1982351617855561123a565b8280016001018555821561123a579182015b8281111561123a57823582559160200191906001019061121f565b5061124692915061124a565b5090565b5b80821115611246576000815560010161124b565b80356001600160a01b038116811461127657600080fd5b919050565b60008083601f84011261128c578081fd5b5081356001600160401b038111156112a2578182fd5b6020830191508360208285010111156112ba57600080fd5b9250929050565b600082601f8301126112d1578081fd5b81356001600160401b03808211156112eb576112eb611829565b604051601f8301601f19908116603f0116810190828211818310171561131357611313611829565b8160405283815286602085880101111561132b578485fd5b8360208701602083013792830160200193909352509392505050565b80356001600160801b038116811461127657600080fd5b80356001600160401b038116811461127657600080fd5b600060208284031215611386578081fd5b61138f8261125f565b9392505050565b60008060008060008060a087890312156113ae578182fd5b86356001600160401b038111156113c3578283fd5b6113cf89828a0161127b565b90975095505060208701356001600160701b03811681146113ee578283fd5b93506113fc6040880161135e565b925061140a6060880161135e565b9150608087013561ffff81168114611420578182fd5b809150509295509295509295565b600080600060408486031215611442578283fd5b83356001600160401b03811115611457578384fd5b6114638682870161127b565b909790965060209590950135949350505050565b600060208284031215611488578081fd5b81356001600160401b0381111561149d578182fd5b6114a9848285016112c1565b949350505050565b600080604083850312156114c3578182fd5b82356001600160401b038111156114d8578283fd5b6114e4858286016112c1565b9250506114f36020840161125f565b90509250929050565b6000806040838503121561150e578182fd5b61151783611347565b91506114f360208401611347565b600060208284031215611536578081fd5b5035919050565b6000815180845260208085019450808401835b8381101561156c57815187529582019590820190600101611550565b509495945050505050565b81835281816020850137506000828201602090810191909152601f909101601f19169091010190565b60008151808452815b818110156115c5576020818501810151868301820152016115a9565b818111156115d65782602083870101525b50601f01601f19169290920160200192915050565b8183823760009101908152919050565b6001600160a01b038416815260606020820181905260009061161f9083018561153d565b8281036040840152611631818561153d565b9695505050505050565b6001600160a01b03861681526080602082018190526000906116609083018688611577565b6040830194909452509015156060909101529392505050565b6000602080830181845280855180835260408601915060408160051b8701019250838701855b828110156116cd57603f198886030184526116bb8583516115a0565b9450928501929085019060010161169f565b5092979650505050505050565b60a0815260006116ee60a08301888a611577565b6001600160701b03969096166020830152506001600160401b03938416604082015291909216606082015261ffff90911660809091015292915050565b60208152600061138f60208301846115a0565b6020808252602d9082015260008051602061184083398151915260408201526c081bd9880c08195b195b595b9d609a1b606082015260800190565b6000821982111561178c5761178c611813565b500190565b60008160001904831182151516156117ab576117ab611813565b500290565b60006001600160701b03838116908316818110156117d0576117d0611813565b039392505050565b600181811c908216806117ec57607f821691505b6020821081141561180d57634e487b7160e01b600052602260045260246000fd5b50919050565b634e487b7160e01b600052601160045260246000fd5b634e487b7160e01b600052604160045260246000fdfe4e4654436f6c6c656374696f6e466163746f72793a20636f6c6c656374696f6ea2646970667358221220540fda3ddf0eefc57e9cce53f5032642bc14787d019873c30f9f59ed534eb45e64736f6c63430008040033",
  "linkReferences": {},
  "deployedLinkReferences": {}
}