{
  "_format": "hh-sol-artifact-1",
  "contractName": "HelperRoleContract",
  "sourceName": "contracts/utils/HelperContracts.sol",
  "abi": [
    {
      "inputs": [
        {
          "internalType": "uint256",
          "name": "id",
          "type": "uint256"
        }
      ],
      "name": "getBurnRoleBytes",
      "outputs": [
        {
          "internalType": "bytes32",
          "name": "",
          "type": "bytes32"
        }
      ],
      "stateMutability": "pure",
      "type": "function"
    },
    {
      "inputs": [
        {
          "internalType": "uint256",
          "name": "id",
          "type": "uint256"
        }
      ],
      "name": "getMintRoleBytes",
      "outputs": [
        {
          "internalType": "bytes32",
          "name": "",
          "type": "bytes32"
        }
      ],
      "stateMutability": "pure",
      "type": "function"
    },
    {
      "inputs": [
        {
          "internalType": "uint256[]",
          "name": "ids",
          "type": "uint256[]"
        }
      ],
      "name": "getMultiBurnRoleBytes",
      "outputs": [
        {
          "internalType": "bytes32[]",
          "name": "",
          "type": "bytes32[]"
        }
      ],
      "stateMutability": "pure",
      "type": "function"
    },
    {
      "inputs": [
        {
          "internalType": "uint256[]",
          "name": "ids",
          "type": "uint256[]"
        }
      ],
      "name": "getMultiMintRoleBytes",
      "outputs": [
        {
          "internalType": "bytes32[]",
          "name": "",
          "type": "bytes32[]"
        }
      ],
      "stateMutability": "pure",
      "type": "function"
    },
    {
      "inputs": [
        {
          "internalType": "uint256",
          "name": "from",
          "type": "uint256"
        },
        {
          "internalType": "uint256",
          "name": "to",
          "type": "uint256"
        }
      ],
      "name": "getRangeBurnRoleBytes",
      "outputs": [
        {
          "internalType": "bytes32[]",
          "name": "",
          "type": "bytes32[]"
        }
      ],
      "stateMutability": "pure",
      "type": "function"
    },
    {
      "inputs": [
        {
          "internalType": "uint256",
          "name": "from",
          "type": "uint256"
        },
        {
          "internalType": "uint256",
          "name": "to",
          "type": "uint256"
        }
      ],
      "name": "getRangeMintRoleBytes",
      "outputs": [
        {
          "internalType": "bytes32[]",
          "name": "",
          "type": "bytes32[]"
        }
      ],
      "stateMutability": "pure",
      "type": "function"
    }
  ],
  "bytecode": "0x608060405234801561001057600080fd5b506106c6806100206000396000f3fe608060405234801561001057600080fd5b50600436106100625760003560e01c806338e57a3e14610067578063492b7ed71461008d578063575cc565146100ad578063a62812ff146100c0578063d240a584146100d3578063d6fb8d0d146100e6575b600080fd5b61007a610075366004610556565b6100f9565b6040519081526020015b60405180910390f35b6100a061009b36600461056e565b610140565b604051610084919061058f565b6100a06100bb3660046104e6565b610235565b61007a6100ce366004610556565b610309565b6100a06100e136600461056e565b610337565b6100a06100f43660046104e6565b61041a565b6040516f1352539517d493d31157d193d497d25160821b6020820152603081018290526000906050015b604051602081830303815290604052805190602001209050919050565b60608282101561016b5760405162461bcd60e51b8152600401610162906105d3565b60405180910390fd5b60006101778484610648565b610182906001610630565b905060008167ffffffffffffffff8111156101ad57634e487b7160e01b600052604160045260246000fd5b6040519080825280602002602001820160405280156101d6578160200160208202803683370190505b50905060005b8281101561022c576101f16100ce8783610630565b82828151811061021157634e487b7160e01b600052603260045260246000fd5b60209081029190910101526102258161065f565b90506101dc565b50949350505050565b606060008267ffffffffffffffff81111561026057634e487b7160e01b600052604160045260246000fd5b604051908082528060200260200182016040528015610289578160200160208202803683370190505b50905060005b83811015610301576102c68585838181106102ba57634e487b7160e01b600052603260045260246000fd5b905060200201356100f9565b8282815181106102e657634e487b7160e01b600052603260045260246000fd5b60209081029190910101526102fa8161065f565b905061028f565b509392505050565b6040516f1095549397d493d31157d193d497d25160821b602082015260308101829052600090605001610123565b6060828210156103595760405162461bcd60e51b8152600401610162906105d3565b60006103658484610648565b610370906001610630565b905060008167ffffffffffffffff81111561039b57634e487b7160e01b600052604160045260246000fd5b6040519080825280602002602001820160405280156103c4578160200160208202803683370190505b50905060005b8281101561022c576103df6100758783610630565b8282815181106103ff57634e487b7160e01b600052603260045260246000fd5b60209081029190910101526104138161065f565b90506103ca565b606060008267ffffffffffffffff81111561044557634e487b7160e01b600052604160045260246000fd5b60405190808252806020026020018201604052801561046e578160200160208202803683370190505b50905060005b83811015610301576104ab85858381811061049f57634e487b7160e01b600052603260045260246000fd5b90506020020135610309565b8282815181106104cb57634e487b7160e01b600052603260045260246000fd5b60209081029190910101526104df8161065f565b9050610474565b600080602083850312156104f8578182fd5b823567ffffffffffffffff8082111561050f578384fd5b818501915085601f830112610522578384fd5b813581811115610530578485fd5b8660208260051b8501011115610544578485fd5b60209290920196919550909350505050565b600060208284031215610567578081fd5b5035919050565b60008060408385031215610580578182fd5b50508035926020909101359150565b6020808252825182820181905260009190848201906040850190845b818110156105c7578351835292840192918401916001016105ab565b50909695505050505050565b60208082526037908201527f48656c70657246756e6374696f6e733a20746f206d757374206265206772656160408201527f74686572206f7220657175616c20746861742066726f6d000000000000000000606082015260800190565b600082198211156106435761064361067a565b500190565b60008282101561065a5761065a61067a565b500390565b60006000198214156106735761067361067a565b5060010190565b634e487b7160e01b600052601160045260246000fdfea26469706673582212208368128fa3cfeda6cbc7c124f51fa1962202262765fe7fe057e56565ae38b66d64736f6c63430008040033",
  "linkReferences": {},
  "deployedLinkReferences": {}
}