{
  "_format": "hh-sol-artifact-1",
  "contractName": "HelperMaxUint",
  "sourceName": "contracts/utils/HelperContracts.sol",
  "abi": [
    {
      "inputs": [
        {
          "internalType": "uint256",
          "name": "identifier",
          "type": "uint256"
        }
      ],
      "name": "maxUint",
      "outputs": [
        {
          "internalType": "uint256",
          "name": "",
          "type": "uint256"
        }
      ],
      "stateMutability": "pure",
      "type": "function"
    }
  ],
  "bytecode": "0x608060405234801561001057600080fd5b506101e6806100206000396000f3fe608060405234801561001057600080fd5b506004361061002b5760003560e01c806395952c7a14610030575b600080fd5b61004361003e366004610074565b610055565b60405190815260200160405180910390f35b600060016100648360026100cf565b61006e9190610183565b92915050565b600060208284031215610085578081fd5b5035919050565b600181815b808511156100c75781600019048211156100ad576100ad61019a565b808516156100ba57918102915b93841c9390800290610091565b509250929050565b60006100db83836100e2565b9392505050565b6000826100f15750600161006e565b816100fe5750600061006e565b8160018114610114576002811461011e5761013a565b600191505061006e565b60ff84111561012f5761012f61019a565b50506001821b61006e565b5060208310610133831016604e8410600b841016171561015d575081810a61006e565b610167838361008c565b806000190482111561017b5761017b61019a565b029392505050565b6000828210156101955761019561019a565b500390565b634e487b7160e01b600052601160045260246000fdfea264697066735822122038e80c08573816f730c0766e56165e4cb2677d77e83936c0cbe64e92ae28052464736f6c63430008040033",
  "linkReferences": {},
  "deployedLinkReferences": {}
}