{
  "_format": "hh-sol-artifact-1",
  "contractName": "NFTStarterBanner",
  "sourceName": "contracts/NFT/NFTStarterBanner.sol",
  "abi": [
    {
      "inputs": [
        {
          "internalType": "contract SpacePiratesTokens",
          "name": "_tokenContract",
          "type": "address"
        },
        {
          "internalType": "contract SpacePiratesNFT",
          "name": "_nftContract",
          "type": "address"
        }
      ],
      "stateMutability": "nonpayable",
      "type": "constructor"
    },
    {
      "anonymous": false,
      "inputs": [
        {
          "indexed": true,
          "internalType": "address",
          "name": "previousOwner",
          "type": "address"
        },
        {
          "indexed": true,
          "internalType": "address",
          "name": "newOwner",
          "type": "address"
        }
      ],
      "name": "OwnershipTransferred",
      "type": "event"
    },
    {
      "inputs": [
        {
          "internalType": "uint256",
          "name": "quantity",
          "type": "uint256"
        }
      ],
      "name": "mintCollectionItem",
      "outputs": [],
      "stateMutability": "nonpayable",
      "type": "function"
    },
    {
      "inputs": [],
      "name": "nftContract",
      "outputs": [
        {
          "internalType": "contract SpacePiratesNFT",
          "name": "",
          "type": "address"
        }
      ],
      "stateMutability": "view",
      "type": "function"
    },
    {
      "inputs": [],
      "name": "owner",
      "outputs": [
        {
          "internalType": "address",
          "name": "",
          "type": "address"
        }
      ],
      "stateMutability": "view",
      "type": "function"
    },
    {
      "inputs": [],
      "name": "renounceOwnership",
      "outputs": [],
      "stateMutability": "nonpayable",
      "type": "function"
    },
    {
      "inputs": [],
      "name": "starterGemId",
      "outputs": [
        {
          "internalType": "uint256",
          "name": "",
          "type": "uint256"
        }
      ],
      "stateMutability": "view",
      "type": "function"
    },
    {
      "inputs": [],
      "name": "tokenContract",
      "outputs": [
        {
          "internalType": "contract SpacePiratesTokens",
          "name": "",
          "type": "address"
        }
      ],
      "stateMutability": "view",
      "type": "function"
    },
    {
      "inputs": [
        {
          "internalType": "address",
          "name": "newOwner",
          "type": "address"
        }
      ],
      "name": "transferOwnership",
      "outputs": [],
      "stateMutability": "nonpayable",
      "type": "function"
    }
  ],
  "bytecode": "0x60c060405234801561001057600080fd5b506040516105c63803806105c683398101604081905261002f916100a6565b61003833610056565b6001600160601b0319606092831b811660a052911b166080526100f7565b600080546001600160a01b038381166001600160a01b0319831681178455604051919092169283917f8be0079c531659141344cd1fd0a4f28419497f9722a3daafe3b4186f6b6457e09190a35050565b600080604083850312156100b8578182fd5b82516100c3816100df565b60208401519092506100d4816100df565b809150509250929050565b6001600160a01b03811681146100f457600080fd5b50565b60805160601c60a05160601c61049761012f6000396000818160a301526101cd015260008181610110015261027b01526104976000f3fe608060405234801561001057600080fd5b506004361061007d5760003560e01c8063715018a61161005b578063715018a6146100f25780638da5cb5b146100fa578063d56d229d1461010b578063f2fde38b1461013257600080fd5b806320a83b5d1461008257806355a373d61461009e5780636c60d73f146100dd575b600080fd5b61008b6103e881565b6040519081526020015b60405180910390f35b6100c57f000000000000000000000000000000000000000000000000000000000000000081565b6040516001600160a01b039091168152602001610095565b6100f06100eb366004610449565b610145565b005b6100f06102e4565b6000546001600160a01b03166100c5565b6100c57f000000000000000000000000000000000000000000000000000000000000000081565b6100f061014036600461041b565b6102f8565b600081116101a95760405162461bcd60e51b815260206004820152602660248201527f4e4654436f6c6c656374696f6e466163746f72793a2063616e2774206d696e74604482015265080c0813919560d21b60648201526084015b60405180910390fd5b604051637a94c56560e11b81523360048201526103e86024820152604481018290527f00000000000000000000000000000000000000000000000000000000000000006001600160a01b03169063f5298aca90606401600060405180830381600087803b15801561021957600080fd5b505af115801561022d573d6000803e3d6000fd5b505060405163cd2ac3f160e01b815233600482015260806024820152601260848201527129ba30b93a32b91031b7b63632b1ba34b7b760711b60a482015260448101849052600160648201527f00000000000000000000000000000000000000000000000000000000000000006001600160a01b0316925063cd2ac3f1915060c401600060405180830381600087803b1580156102c957600080fd5b505af11580156102dd573d6000803e3d6000fd5b5050505050565b6102ec610371565b6102f660006103cb565b565b610300610371565b6001600160a01b0381166103655760405162461bcd60e51b815260206004820152602660248201527f4f776e61626c653a206e6577206f776e657220697320746865207a65726f206160448201526564647265737360d01b60648201526084016101a0565b61036e816103cb565b50565b6000546001600160a01b031633146102f65760405162461bcd60e51b815260206004820181905260248201527f4f776e61626c653a2063616c6c6572206973206e6f7420746865206f776e657260448201526064016101a0565b600080546001600160a01b038381166001600160a01b0319831681178455604051919092169283917f8be0079c531659141344cd1fd0a4f28419497f9722a3daafe3b4186f6b6457e09190a35050565b60006020828403121561042c578081fd5b81356001600160a01b0381168114610442578182fd5b9392505050565b60006020828403121561045a578081fd5b503591905056fea2646970667358221220991a7d529cf053950b01d5556045b2b23b5048fca4f365692406cad7034b88e064736f6c63430008040033",
  "linkReferences": {},
  "deployedLinkReferences": {}
}