{
  "_format": "hh-sol-artifact-1",
  "contractName": "SpacePiratesStaking",
  "sourceName": "contracts/SpacePiratesStaking.sol",
  "abi": [
    {
      "inputs": [
        {
          "internalType": "address",
          "name": "tokens",
          "type": "address"
        }
      ],
      "stateMutability": "nonpayable",
      "type": "constructor"
    },
    {
      "anonymous": false,
      "inputs": [
        {
          "indexed": true,
          "internalType": "address",
          "name": "previousOwner",
          "type": "address"
        },
        {
          "indexed": true,
          "internalType": "address",
          "name": "newOwner",
          "type": "address"
        }
      ],
      "name": "OwnershipTransferred",
      "type": "event"
    },
    {
      "anonymous": false,
      "inputs": [
        {
          "indexed": false,
          "internalType": "address",
          "name": "user",
          "type": "address"
        },
        {
          "indexed": false,
          "internalType": "address",
          "name": "newAddress",
          "type": "address"
        }
      ],
      "name": "SetFeeAddress",
      "type": "event"
    },
    {
      "anonymous": false,
      "inputs": [
        {
          "indexed": true,
          "internalType": "address",
          "name": "user",
          "type": "address"
        },
        {
          "indexed": true,
          "internalType": "uint256",
          "name": "pid",
          "type": "uint256"
        },
        {
          "indexed": false,
          "internalType": "uint256",
          "name": "amount",
          "type": "uint256"
        }
      ],
      "name": "Staked",
      "type": "event"
    },
    {
      "anonymous": false,
      "inputs": [
        {
          "indexed": true,
          "internalType": "uint256",
          "name": "pid",
          "type": "uint256"
        },
        {
          "indexed": false,
          "internalType": "uint128",
          "name": "tokenId",
          "type": "uint128"
        },
        {
          "indexed": false,
          "internalType": "uint128",
          "name": "rewardTokenId",
          "type": "uint128"
        },
        {
          "indexed": false,
          "internalType": "uint120",
          "name": "rewardRate",
          "type": "uint120"
        },
        {
          "indexed": false,
          "internalType": "uint16",
          "name": "depositFee",
          "type": "uint16"
        }
      ],
      "name": "StakingPoolCreated",
      "type": "event"
    },
    {
      "anonymous": false,
      "inputs": [
        {
          "indexed": true,
          "internalType": "uint256",
          "name": "pid",
          "type": "uint256"
        },
        {
          "indexed": false,
          "internalType": "uint120",
          "name": "rewardRate",
          "type": "uint120"
        },
        {
          "indexed": false,
          "internalType": "uint16",
          "name": "depositFee",
          "type": "uint16"
        }
      ],
      "name": "StakingPoolUpdated",
      "type": "event"
    },
    {
      "anonymous": false,
      "inputs": [
        {
          "indexed": true,
          "internalType": "address",
          "name": "user",
          "type": "address"
        },
        {
          "indexed": true,
          "internalType": "uint256",
          "name": "pid",
          "type": "uint256"
        },
        {
          "indexed": false,
          "internalType": "uint256",
          "name": "amount",
          "type": "uint256"
        }
      ],
      "name": "Unstake",
      "type": "event"
    },
    {
      "inputs": [
        {
          "internalType": "uint128",
          "name": "_stakingTokenId",
          "type": "uint128"
        },
        {
          "internalType": "uint128",
          "name": "_rewardTokenId",
          "type": "uint128"
        },
        {
          "internalType": "uint120",
          "name": "_rewardRate",
          "type": "uint120"
        },
        {
          "internalType": "uint16",
          "name": "_depositFee",
          "type": "uint16"
        }
      ],
      "name": "createStakingPool",
      "outputs": [],
      "stateMutability": "nonpayable",
      "type": "function"
    },
    {
      "inputs": [],
      "name": "feeAddress",
      "outputs": [
        {
          "internalType": "address",
          "name": "",
          "type": "address"
        }
      ],
      "stateMutability": "view",
      "type": "function"
    },
    {
      "inputs": [
        {
          "internalType": "uint256",
          "name": "_pid",
          "type": "uint256"
        }
      ],
      "name": "getReward",
      "outputs": [],
      "stateMutability": "nonpayable",
      "type": "function"
    },
    {
      "inputs": [
        {
          "internalType": "address",
          "name": "",
          "type": "address"
        },
        {
          "internalType": "address",
          "name": "",
          "type": "address"
        },
        {
          "internalType": "uint256[]",
          "name": "",
          "type": "uint256[]"
        },
        {
          "internalType": "uint256[]",
          "name": "",
          "type": "uint256[]"
        },
        {
          "internalType": "bytes",
          "name": "",
          "type": "bytes"
        }
      ],
      "name": "onERC1155BatchReceived",
      "outputs": [
        {
          "internalType": "bytes4",
          "name": "",
          "type": "bytes4"
        }
      ],
      "stateMutability": "nonpayable",
      "type": "function"
    },
    {
      "inputs": [
        {
          "internalType": "address",
          "name": "",
          "type": "address"
        },
        {
          "internalType": "address",
          "name": "",
          "type": "address"
        },
        {
          "internalType": "uint256",
          "name": "",
          "type": "uint256"
        },
        {
          "internalType": "uint256",
          "name": "",
          "type": "uint256"
        },
        {
          "internalType": "bytes",
          "name": "",
          "type": "bytes"
        }
      ],
      "name": "onERC1155Received",
      "outputs": [
        {
          "internalType": "bytes4",
          "name": "",
          "type": "bytes4"
        }
      ],
      "stateMutability": "nonpayable",
      "type": "function"
    },
    {
      "inputs": [],
      "name": "owner",
      "outputs": [
        {
          "internalType": "address",
          "name": "",
          "type": "address"
        }
      ],
      "stateMutability": "view",
      "type": "function"
    },
    {
      "inputs": [],
      "name": "parentToken",
      "outputs": [
        {
          "internalType": "contract SpacePiratesTokens",
          "name": "",
          "type": "address"
        }
      ],
      "stateMutability": "view",
      "type": "function"
    },
    {
      "inputs": [
        {
          "internalType": "uint256",
          "name": "_pid",
          "type": "uint256"
        },
        {
          "internalType": "address",
          "name": "_user",
          "type": "address"
        }
      ],
      "name": "pendingRewards",
      "outputs": [
        {
          "internalType": "uint256",
          "name": "",
          "type": "uint256"
        }
      ],
      "stateMutability": "view",
      "type": "function"
    },
    {
      "inputs": [],
      "name": "poolLength",
      "outputs": [
        {
          "internalType": "uint256",
          "name": "",
          "type": "uint256"
        }
      ],
      "stateMutability": "view",
      "type": "function"
    },
    {
      "inputs": [],
      "name": "renounceOwnership",
      "outputs": [],
      "stateMutability": "nonpayable",
      "type": "function"
    },
    {
      "inputs": [
        {
          "internalType": "address",
          "name": "_feeAddress",
          "type": "address"
        }
      ],
      "name": "setFeeAddress",
      "outputs": [],
      "stateMutability": "nonpayable",
      "type": "function"
    },
    {
      "inputs": [
        {
          "internalType": "uint256",
          "name": "_pid",
          "type": "uint256"
        },
        {
          "internalType": "uint256",
          "name": "_amount",
          "type": "uint256"
        }
      ],
      "name": "stake",
      "outputs": [],
      "stateMutability": "nonpayable",
      "type": "function"
    },
    {
      "inputs": [
        {
          "internalType": "uint256",
          "name": "",
          "type": "uint256"
        }
      ],
      "name": "stakingPools",
      "outputs": [
        {
          "internalType": "uint256",
          "name": "tokenId",
          "type": "uint256"
        },
        {
          "internalType": "uint256",
          "name": "rewardTokenId",
          "type": "uint256"
        },
        {
          "internalType": "uint120",
          "name": "rewardRate",
          "type": "uint120"
        },
        {
          "internalType": "uint120",
          "name": "lastUpdateTime",
          "type": "uint120"
        },
        {
          "internalType": "uint16",
          "name": "depositFee",
          "type": "uint16"
        },
        {
          "internalType": "uint256",
          "name": "totalSupply",
          "type": "uint256"
        },
        {
          "internalType": "uint256",
          "name": "accRewardPerShare",
          "type": "uint256"
        }
      ],
      "stateMutability": "view",
      "type": "function"
    },
    {
      "inputs": [
        {
          "internalType": "bytes4",
          "name": "interfaceId",
          "type": "bytes4"
        }
      ],
      "name": "supportsInterface",
      "outputs": [
        {
          "internalType": "bool",
          "name": "",
          "type": "bool"
        }
      ],
      "stateMutability": "view",
      "type": "function"
    },
    {
      "inputs": [
        {
          "internalType": "address",
          "name": "newOwner",
          "type": "address"
        }
      ],
      "name": "transferOwnership",
      "outputs": [],
      "stateMutability": "nonpayable",
      "type": "function"
    },
    {
      "inputs": [
        {
          "internalType": "uint256",
          "name": "_pid",
          "type": "uint256"
        },
        {
          "internalType": "uint256",
          "name": "_amount",
          "type": "uint256"
        }
      ],
      "name": "unstake",
      "outputs": [],
      "stateMutability": "nonpayable",
      "type": "function"
    },
    {
      "inputs": [
        {
          "internalType": "uint256",
          "name": "_pid",
          "type": "uint256"
        }
      ],
      "name": "updatePool",
      "outputs": [],
      "stateMutability": "nonpayable",
      "type": "function"
    },
    {
      "inputs": [
        {
          "internalType": "uint128",
          "name": "_pid",
          "type": "uint128"
        },
        {
          "internalType": "uint120",
          "name": "_rewardRate",
          "type": "uint120"
        },
        {
          "internalType": "uint16",
          "name": "_depositFee",
          "type": "uint16"
        }
      ],
      "name": "updateStakingPool",
      "outputs": [],
      "stateMutability": "nonpayable",
      "type": "function"
    },
    {
      "inputs": [
        {
          "internalType": "uint256",
          "name": "",
          "type": "uint256"
        },
        {
          "internalType": "address",
          "name": "",
          "type": "address"
        }
      ],
      "name": "usersInfo",
      "outputs": [
        {
          "internalType": "uint256",
          "name": "rewardDebt",
          "type": "uint256"
        },
        {
          "internalType": "uint256",
          "name": "reward",
          "type": "uint256"
        },
        {
          "internalType": "uint256",
          "name": "balance",
          "type": "uint256"
        }
      ],
      "stateMutability": "view",
      "type": "function"
    }
  ],
  "bytecode": "0x608060405234801561001057600080fd5b506040516119b73803806119b783398101604081905261002f916100ad565b6100383361005d565b600180546001600160a01b0319166001600160a01b03929092169190911790556100db565b600080546001600160a01b038381166001600160a01b0319831681178455604051919092169283917f8be0079c531659141344cd1fd0a4f28419497f9722a3daafe3b4186f6b6457e09190a35050565b6000602082840312156100be578081fd5b81516001600160a01b03811681146100d4578182fd5b9392505050565b6118cd806100ea6000396000f3fe608060405234801561001057600080fd5b50600436106101215760003560e01c80638115a3bc116100ad578063bc197c8111610071578063bc197c81146102d8578063d18df53c14610310578063f23a6e6114610323578063f2fde38b14610342578063ff9ff9fd1461035557600080fd5b80638115a3bc146102395780638705fcd41461028e5780638858fd48146102a15780638da5cb5b146102b45780639e2c8a5b146102c557600080fd5b806351eb05a6116100f457806351eb05a6146101a05780635aad6cf0146101b3578063715018a61461020b5780637b0472f01461021357806380a540011461022657600080fd5b806301ffc9a714610126578063081e3eda1461014e5780631c4b774b146101605780634127535814610175575b600080fd5b610139610134366004611583565b610368565b60405190151581526020015b60405180910390f35b6003545b604051908152602001610145565b61017361016e366004611640565b61039f565b005b600254610188906001600160a01b031681565b6040516001600160a01b039091168152602001610145565b6101736101ae366004611640565b610511565b6101c66101c1366004611640565b61068e565b6040805197885260208801969096526001600160781b039485169587019590955292909116606085015261ffff16608084015260a083015260c082015260e001610145565b6101736106f1565b610173610221366004611683565b610705565b600154610188906001600160a01b031681565b610273610247366004611658565b600460209081526000928352604080842090915290825290208054600182015460029092015490919083565b60408051938452602084019290925290820152606001610145565b61017361029c366004611459565b610a44565b6101736102af3660046115ed565b610aa7565b6000546001600160a01b0316610188565b6101736102d3366004611683565b610cb2565b6102f76102e636600461147a565b63bc197c8160e01b95945050505050565b6040516001600160e01b03199091168152602001610145565b61015261031e366004611658565b610ec6565b6102f7610331366004611520565b63f23a6e6160e01b95945050505050565b610173610350366004611459565b61101c565b6101736103633660046115ab565b611095565b60006001600160e01b03198216630271189760e51b148061039957506301ffc9a760e01b6001600160e01b03198316145b92915050565b6000600382815481106103c257634e487b7160e01b600052603260045260246000fd5b600091825260208083208584526004825260408085203386529092529220600590910290910191506103f383610511565b60008160010154826000015464e8d4a5100085600401548560020154610419919061180d565b61042391906117be565b61042d9190611854565b61043791906117a6565b905060006003858154811061045c57634e487b7160e01b600052603260045260246000fd5b906000526020600020906005020160010154905064e8d4a510008460040154846002015461048a919061180d565b61049491906117be565b8355600060018085019190915554604051630ab714fb60e11b815233600482015260248101839052604481018490526001600160a01b039091169063156e29f690606401600060405180830381600087803b1580156104f257600080fd5b505af1158015610506573d6000803e3d6000fd5b505050505050505050565b600354811061053b5760405162461bcd60e51b815260040161053290611724565b60405180910390fd5b60006003828154811061055e57634e487b7160e01b600052603260045260246000fd5b6000918252602090912060059091020160028101549091504290600160781b90046001600160781b039081169082161161059757505050565b600382015415806105b3575060028201546001600160781b0316155b156105e857600290910180546001600160781b03909216600160781b02600160781b600160f01b031990921691909117905550565b6003820154600283015461060c90600160781b90046001600160781b03168361182c565b600284015461062491906001600160781b03166117de565b6106339064e8d4a510006117de565b6001600160781b031661064691906117be565b82600401600082825461065991906117a6565b9091555050600290910180546001600160781b03909216600160781b02600160781b600160f01b031990921691909117905550565b6003818154811061069e57600080fd5b60009182526020909120600590910201805460018201546002830154600384015460049094015492945090926001600160781b0380831693600160781b840490911692600160f01b900461ffff16919087565b6106f9611265565b61070360006112bf565b565b600081116107615760405162461bcd60e51b815260206004820152602360248201527f5370616365506972617465735374616b696e673a2063616e6e6f74207374616b60448201526206520360ec1b6064820152608401610532565b60035482106107825760405162461bcd60e51b815260040161053290611724565b6000600383815481106107a557634e487b7160e01b600052603260045260246000fd5b600091825260208083208684526004808352604080862033808852945294859020600154600590950290920180549551637921219560e11b815290965091946001600160a01b03949094169363f242432a936108089390923092918a91016116a4565b600060405180830381600087803b15801561082257600080fd5b505af1158015610836573d6000803e3d6000fd5b5050505061084384610511565b6002810154156108965780546004830154600283015464e8d4a51000916108699161180d565b61087391906117be565b61087d9190611854565b81600101600082825461089091906117a6565b90915550505b6002820154600160f01b900461ffff16158015906108be57506002546001600160a01b031615155b156109ab576002820154600090612710906108e490600160f01b900461ffff168661180d565b6108ee91906117be565b6001546002548554604051637921219560e11b81529394506001600160a01b039283169363f242432a9361092b93309391169187906004016116a4565b600060405180830381600087803b15801561094557600080fd5b505af1158015610959573d6000803e3d6000fd5b5050505080846109699190611854565b83600301600082825461097c91906117a6565b9091555061098c90508185611854565b82600201600082825461099f91906117a6565b909155506109e0915050565b828260030160008282546109bf91906117a6565b92505081905550828160020160008282546109da91906117a6565b90915550505b64e8d4a51000826004015482600201546109fa919061180d565b610a0491906117be565b8155604051848152839033907f1449c6dd7851abc30abf37f57715f492010519147cc2652fbc38202c18a6ee90906020015b60405180910390a350505050565b610a4c611265565b600280546001600160a01b0319166001600160a01b0383169081179091556040805133815260208101929092527fd44190acf9d04bdb5d3a1aafff7e6dee8b40b93dfb8c5d3f0eea4b9f4539c3f7910160405180910390a150565b610aaf611265565b6127108161ffff161115610ad55760405162461bcd60e51b8152600401610532906116dc565b6040805160e0810182526001600160801b0380871682528516602082019081526001600160781b03808616938301938452428181166060850190815261ffff80881660808701908152600060a0880181815260c089018281526003805460018181018355948290529a516005909b027fc2575a0e9e593c00f959f8c92f12db2869c3395a3b0502d05e2516446f71f85b81019b909b5598517fc2575a0e9e593c00f959f8c92f12db2869c3395a3b0502d05e2516446f71f85c8b015599517fc2575a0e9e593c00f959f8c92f12db2869c3395a3b0502d05e2516446f71f85d8a01805496519451909516600160f01b026001600160f01b03948916600160781b026001600160f01b031990971691909816179490941791909116949094179055517fc2575a0e9e593c00f959f8c92f12db2869c3395a3b0502d05e2516446f71f85e85015593517fc2575a0e9e593c00f959f8c92f12db2869c3395a3b0502d05e2516446f71f85f9093019290925554610c4f9190611854565b604080516001600160801b038881168252871660208201526001600160781b0386168183015261ffff8516606082015290517f833bd5697fc91fa1b1f810e3ce5741543b08fa7ff9474b4a554b9bff5e08da619181900360800190a25050505050565b60008111610d115760405162461bcd60e51b815260206004820152602660248201527f5370616365506972617465735374616b696e673a2063616e6e6f74207769746860448201526506472617720360d41b6064820152608401610532565b6003548210610d325760405162461bcd60e51b815260040161053290611724565b600060038381548110610d5557634e487b7160e01b600052603260045260246000fd5b60009182526020808320868452600482526040808520338652909252922060059091029091019150610d8684610511565b80546004830154600283015464e8d4a5100091610da29161180d565b610dac91906117be565b610db69190611854565b816001016000828254610dc991906117a6565b9250508190555082826003016000828254610de49190611854565b9250508190555082816002016000828254610dff9190611854565b90915550506001548254604051637921219560e11b81526001600160a01b039092169163f242432a91610e3a913091339189906004016116a4565b600060405180830381600087803b158015610e5457600080fd5b505af1158015610e68573d6000803e3d6000fd5b5050505064e8d4a5100082600401548260020154610e86919061180d565b610e9091906117be565b8155604051848152839033907ff960dbf9e5d0682f7a298ed974e33a28b4464914b7a2bfac12ae419a9afeb28090602001610a36565b6003546000908310610eea5760405162461bcd60e51b815260040161053290611724565b600060038481548110610f0d57634e487b7160e01b600052603260045260246000fd5b60009182526020808320878452600480835260408086206001600160a01b038a16875290935291909320600590920290920191820154600283015492935090916001600160781b03600160781b9091041642118015610f6f5750600383015415155b15610fd65760038301546002840154610f9890600160781b90046001600160781b031642611854565b6002850154610fb091906001600160781b031661180d565b610fbf9064e8d4a5100061180d565b610fc991906117be565b610fd390826117a6565b90505b60018201548254600284015464e8d4a5100090610ff490859061180d565b610ffe91906117be565b6110089190611854565b61101291906117a6565b9695505050505050565b611024611265565b6001600160a01b0381166110895760405162461bcd60e51b815260206004820152602660248201527f4f776e61626c653a206e6577206f776e657220697320746865207a65726f206160448201526564647265737360d01b6064820152608401610532565b611092816112bf565b50565b61109d611265565b6127108161ffff1611156110c35760405162461bcd60e51b8152600401610532906116dc565b6003546001600160801b038416106110ed5760405162461bcd60e51b815260040161053290611724565b816001600160781b03166003846001600160801b03168154811061112157634e487b7160e01b600052603260045260246000fd5b60009182526020909120600260059092020101546001600160781b0316146111b657611155836001600160801b0316610511565b816003846001600160801b03168154811061118057634e487b7160e01b600052603260045260246000fd5b906000526020600020906005020160020160006101000a8154816001600160781b0302191690836001600160781b031602179055505b806003846001600160801b0316815481106111e157634e487b7160e01b600052603260045260246000fd5b60009182526020918290206005919091020160020180546001600160f01b0316600160f01b61ffff94851602179055604080516001600160781b0386168152928416918301919091526001600160801b038516917fc89ba0204f89a8183dce54e458ab3b9b6d78ad5514574be4273b96746e6e5926910160405180910390a2505050565b6000546001600160a01b031633146107035760405162461bcd60e51b815260206004820181905260248201527f4f776e61626c653a2063616c6c6572206973206e6f7420746865206f776e65726044820152606401610532565b600080546001600160a01b038381166001600160a01b0319831681178455604051919092169283917f8be0079c531659141344cd1fd0a4f28419497f9722a3daafe3b4186f6b6457e09190a35050565b80356001600160a01b038116811461132657600080fd5b919050565b600082601f83011261133b578081fd5b8135602067ffffffffffffffff82111561135757611357611881565b8160051b611366828201611775565b838152828101908684018388018501891015611380578687fd5b8693505b858410156113a2578035835260019390930192918401918401611384565b50979650505050505050565b600082601f8301126113be578081fd5b813567ffffffffffffffff8111156113d8576113d8611881565b6113eb601f8201601f1916602001611775565b8181528460208386010111156113ff578283fd5b816020850160208301379081016020019190915292915050565b80356001600160781b038116811461132657600080fd5b80356001600160801b038116811461132657600080fd5b803561ffff8116811461132657600080fd5b60006020828403121561146a578081fd5b6114738261130f565b9392505050565b600080600080600060a08688031215611491578081fd5b61149a8661130f565b94506114a86020870161130f565b9350604086013567ffffffffffffffff808211156114c4578283fd5b6114d089838a0161132b565b945060608801359150808211156114e5578283fd5b6114f189838a0161132b565b93506080880135915080821115611506578283fd5b50611513888289016113ae565b9150509295509295909350565b600080600080600060a08688031215611537578081fd5b6115408661130f565b945061154e6020870161130f565b93506040860135925060608601359150608086013567ffffffffffffffff811115611577578182fd5b611513888289016113ae565b600060208284031215611594578081fd5b81356001600160e01b031981168114611473578182fd5b6000806000606084860312156115bf578283fd5b6115c884611430565b92506115d660208501611419565b91506115e460408501611447565b90509250925092565b60008060008060808587031215611602578384fd5b61160b85611430565b935061161960208601611430565b925061162760408601611419565b915061163560608601611447565b905092959194509250565b600060208284031215611651578081fd5b5035919050565b6000806040838503121561166a578182fd5b8235915061167a6020840161130f565b90509250929050565b60008060408385031215611695578182fd5b50508035926020909101359150565b6001600160a01b0394851681529290931660208301526040820152606081019190915260a06080820181905260009082015260c00190565b60208082526028908201527f5370616365506972617465735374616b696e673a20696e76616c6964206465706040820152676f7369742066656560c01b606082015260800190565b60208082526031908201527f5370616365506972617465735374616b696e673a207374616b696e6720706f6f6040820152706c20646f6573206e6f742065786973747360781b606082015260800190565b604051601f8201601f1916810167ffffffffffffffff8111828210171561179e5761179e611881565b604052919050565b600082198211156117b9576117b961186b565b500190565b6000826117d957634e487b7160e01b81526012600452602481fd5b500490565b60006001600160781b03808316818516818304811182151516156118045761180461186b565b02949350505050565b60008160001904831182151516156118275761182761186b565b500290565b60006001600160781b038381169083168181101561184c5761184c61186b565b039392505050565b6000828210156118665761186661186b565b500390565b634e487b7160e01b600052601160045260246000fd5b634e487b7160e01b600052604160045260246000fdfea26469706673582212205aa7bcc3bb64e98f030f63693bd15b8f01f72d9aee41669d2d149679edaecf7a64736f6c63430008040033",
  "linkReferences": {},
  "deployedLinkReferences": {}
}