{
  "_format": "hh-sol-artifact-1",
  "contractName": "ChainId",
  "sourceName": "contracts/utils/ChainId.sol",
  "abi": [
    {
      "inputs": [],
      "stateMutability": "nonpayable",
      "type": "constructor"
    },
    {
      "inputs": [],
      "name": "CHAIN_ID",
      "outputs": [
        {
          "internalType": "uint256",
          "name": "",
          "type": "uint256"
        }
      ],
      "stateMutability": "view",
      "type": "function"
    }
  ],
  "bytecode": "0x60a0604052348015600f57600080fd5b5046608052608051609b61002c600039600060310152609b6000f3fe6080604052348015600f57600080fd5b506004361060285760003560e01c806385e1f4d014602d575b600080fd5b60537f000000000000000000000000000000000000000000000000000000000000000081565b60405190815260200160405180910390f3fea264697066735822122059d459ff8c37b309aa9f37ffebac66da0bbb093e35a5a270a2ee13da0338056e64736f6c63430008040033",
  "linkReferences": {},
  "deployedLinkReferences": {}
}