{
  "_format": "hh-sol-artifact-1",
  "contractName": "SpacePiratesFactory",
  "sourceName": "contracts/dex/SpacePiratesFactory.sol",
  "abi": [
    {
      "inputs": [
        {
          "internalType": "address",
          "name": "_tokenContract",
          "type": "address"
        }
      ],
      "stateMutability": "nonpayable",
      "type": "constructor"
    },
    {
      "anonymous": false,
      "inputs": [
        {
          "indexed": true,
          "internalType": "address",
          "name": "previousOwner",
          "type": "address"
        },
        {
          "indexed": true,
          "internalType": "address",
          "name": "newOwner",
          "type": "address"
        }
      ],
      "name": "OwnershipTransferred",
      "type": "event"
    },
    {
      "anonymous": false,
      "inputs": [
        {
          "indexed": true,
          "internalType": "uint256",
          "name": "token0",
          "type": "uint256"
        },
        {
          "indexed": true,
          "internalType": "uint256",
          "name": "token1",
          "type": "uint256"
        },
        {
          "indexed": false,
          "internalType": "address",
          "name": "pair",
          "type": "address"
        },
        {
          "indexed": false,
          "internalType": "uint256",
          "name": "",
          "type": "uint256"
        }
      ],
      "name": "PairCreated",
      "type": "event"
    },
    {
      "inputs": [
        {
          "internalType": "uint256",
          "name": "",
          "type": "uint256"
        }
      ],
      "name": "allPairs",
      "outputs": [
        {
          "internalType": "address",
          "name": "",
          "type": "address"
        }
      ],
      "stateMutability": "view",
      "type": "function"
    },
    {
      "inputs": [],
      "name": "allPairsLength",
      "outputs": [
        {
          "internalType": "uint256",
          "name": "",
          "type": "uint256"
        }
      ],
      "stateMutability": "view",
      "type": "function"
    },
    {
      "inputs": [
        {
          "internalType": "uint128",
          "name": "tokenA",
          "type": "uint128"
        },
        {
          "internalType": "uint128",
          "name": "tokenB",
          "type": "uint128"
        }
      ],
      "name": "createPair",
      "outputs": [
        {
          "internalType": "address",
          "name": "pair",
          "type": "address"
        }
      ],
      "stateMutability": "nonpayable",
      "type": "function"
    },
    {
      "inputs": [],
      "name": "feeTo",
      "outputs": [
        {
          "internalType": "address",
          "name": "",
          "type": "address"
        }
      ],
      "stateMutability": "view",
      "type": "function"
    },
    {
      "inputs": [
        {
          "internalType": "uint256",
          "name": "",
          "type": "uint256"
        },
        {
          "internalType": "uint256",
          "name": "",
          "type": "uint256"
        }
      ],
      "name": "getPair",
      "outputs": [
        {
          "internalType": "address",
          "name": "",
          "type": "address"
        }
      ],
      "stateMutability": "view",
      "type": "function"
    },
    {
      "inputs": [],
      "name": "owner",
      "outputs": [
        {
          "internalType": "address",
          "name": "",
          "type": "address"
        }
      ],
      "stateMutability": "view",
      "type": "function"
    },
    {
      "inputs": [],
      "name": "renounceOwnership",
      "outputs": [],
      "stateMutability": "nonpayable",
      "type": "function"
    },
    {
      "inputs": [
        {
          "internalType": "address",
          "name": "_feeTo",
          "type": "address"
        }
      ],
      "name": "setFeeTo",
      "outputs": [],
      "stateMutability": "nonpayable",
      "type": "function"
    },
    {
      "inputs": [],
      "name": "tokenContract",
      "outputs": [
        {
          "internalType": "address",
          "name": "",
          "type": "address"
        }
      ],
      "stateMutability": "view",
      "type": "function"
    },
    {
      "inputs": [
        {
          "internalType": "address",
          "name": "newOwner",
          "type": "address"
        }
      ],
      "name": "transferOwnership",
      "outputs": [],
      "stateMutability": "nonpayable",
      "type": "function"
    }
  ],
  "bytecode": "0x60a060405234801561001057600080fd5b506040516129a03803806129a083398101604081905261002f9161009d565b6100383361004d565b60601b6001600160601b0319166080526100cb565b600080546001600160a01b038381166001600160a01b0319831681178455604051919092169283917f8be0079c531659141344cd1fd0a4f28419497f9722a3daafe3b4186f6b6457e09190a35050565b6000602082840312156100ae578081fd5b81516001600160a01b03811681146100c4578182fd5b9392505050565b60805160601c6128b16100ef6000396000818160eb015261039d01526128b16000f3fe608060405234801561001057600080fd5b506004361061009e5760003560e01c80638da5cb5b116100665780638da5cb5b14610128578063915c7c6614610139578063c623bb6e1461016d578063f2fde38b14610180578063f46901ed1461019357600080fd5b8063017e7e58146100a35780631e3dd18b146100d357806355a373d6146100e6578063574f2ba31461010d578063715018a61461011e575b600080fd5b6001546100b6906001600160a01b031681565b6040516001600160a01b0390911681526020015b60405180910390f35b6100b66100e13660046106b2565b6101a6565b6100b67f000000000000000000000000000000000000000000000000000000000000000081565b6003546040519081526020016100ca565b6101266101d0565b005b6000546001600160a01b03166100b6565b6100b66101473660046106ca565b60026020908152600092835260408084209091529082529020546001600160a01b031681565b6100b661017b366004610680565b6101e4565b61012661018e366004610652565b6104dc565b6101266101a1366004610652565b610555565b600381815481106101b657600080fd5b6000918252602090912001546001600160a01b0316905081565b6101d861057f565b6101e260006105d9565b565b60006101ee61057f565b816001600160801b0316836001600160801b031614156102605760405162461bcd60e51b815260206004820152602260248201527f537061636550697261746573466163746f72793a204944454e544943414c5f49604482015261445360f01b60648201526084015b60405180910390fd5b600080836001600160801b0316856001600160801b031610610283578385610286565b84845b6001600160801b0380831660009081526002602090815260408083209385168352929052205491935091506001600160a01b0316156103075760405162461bcd60e51b815260206004820181905260248201527f537061636550697261746573466163746f72793a20504149525f4558495354536044820152606401610257565b60006040518060200161031990610629565b601f1982820381018352601f9091011660408181526001600160801b038087166020840152851690820152909150600090606001604051602081830303815290604052805190602001209050808251602084016000f560405163326fde3f60e11b81526001600160801b038681166004830152851660248201526001600160a01b037f000000000000000000000000000000000000000000000000000000000000000081166044830152919650908616906364dfbc7e90606401600060405180830381600087803b1580156103ed57600080fd5b505af1158015610401573d6000803e3d6000fd5b505050506001600160801b03848116600081815260026020818152604080842095891680855295825280842080546001600160a01b038d166001600160a01b031991821681179092559383528185208686528352818520805485168217905560038054600181018255958190527fc2575a0e9e593c00f959f8c92f12db2869c3395a3b0502d05e2516446f71f85b9095018054909416811790935592548351928352908201527fce02acd4db1a3976140c1e275fc5fd6ade5713c2b6cd400e8e63a8a91244cd4b910160405180910390a35050505092915050565b6104e461057f565b6001600160a01b0381166105495760405162461bcd60e51b815260206004820152602660248201527f4f776e61626c653a206e6577206f776e657220697320746865207a65726f206160448201526564647265737360d01b6064820152608401610257565b610552816105d9565b50565b61055d61057f565b600180546001600160a01b0319166001600160a01b0392909216919091179055565b6000546001600160a01b031633146101e25760405162461bcd60e51b815260206004820181905260248201527f4f776e61626c653a2063616c6c6572206973206e6f7420746865206f776e65726044820152606401610257565b600080546001600160a01b038381166001600160a01b0319831681178455604051919092169283917f8be0079c531659141344cd1fd0a4f28419497f9722a3daafe3b4186f6b6457e09190a35050565b612190806106ec83390190565b80356001600160801b038116811461064d57600080fd5b919050565b600060208284031215610663578081fd5b81356001600160a01b0381168114610679578182fd5b9392505050565b60008060408385031215610692578081fd5b61069b83610636565b91506106a960208401610636565b90509250929050565b6000602082840312156106c3578081fd5b5035919050565b600080604083850312156106dc578182fd5b5050803592602090910135915056fe60a0604052600160095534801561001557600080fd5b5033606081901b60805261214b6100456000396000818161040b01528181610a5a015261145d015261214b6000f3fe608060405234801561001057600080fd5b506004361061018e5760003560e01c80636a627842116100de578063ba9a7a5611610097578063c45a015511610071578063c45a015514610406578063dd62ed3e1461042d578063f23a6e6114610458578063fff6cae91461047757600080fd5b8063ba9a7a56146103b2578063bc197c81146103bb578063bc25cf77146103f357600080fd5b80636a6278421461031757806370a082311461032a5780637464fc3d1461034a57806389afcb441461035357806395d89b411461037b578063a9059cbb1461039f57600080fd5b806323b872dd1161014b5780635909c0d5116101255780635909c0d5146102c85780635a3d5493146102d157806364dfbc7e146102da57806367f718a9146102ed57600080fd5b806323b872dd14610270578063313ce5671461028357806355a373d61461029d57600080fd5b806301ffc9a714610193578063022c0d9f146101bb57806306fdde03146101d05780630902f1ac14610212578063095ea7b31461024657806318160ddd14610259575b600080fd5b6101a66101a1366004611c93565b61047f565b60405190151581526020015b60405180910390f35b6101ce6101c9366004611d01565b6104b6565b005b6102056040518060400160405280601681526020017529b830b1b2902834b930ba32b9902628102a37b5b2b760511b81525081565b6040516101b29190611f11565b61021a6109bf565b604080516001600160701b03948516815293909216602084015263ffffffff16908201526060016101b2565b6101a6610254366004611bd5565b6109e9565b61026260005481565b6040519081526020016101b2565b6101a661027e366004611b2e565b6109ff565b61028b601281565b60405160ff90911681526020016101b2565b6003546102b0906001600160a01b031681565b6040516001600160a01b0390911681526020016101b2565b61026260065481565b61026260075481565b6101ce6102e8366004611cbb565b610a4f565b600454604080516001600160801b038084168252600160801b9093049092166020830152016101b2565b610262610325366004611a14565b610afc565b610262610338366004611a14565b60016020526000908152604090205481565b61026260085481565b610366610361366004611a14565b610d16565b604080519283526020830191909152016101b2565b61020560405180604001604052806005815260200164053502d4c560dc1b81525081565b6101a66103ad366004611bd5565b610f3a565b6102626103e881565b6103da6103c9366004611a84565b63bc197c8160e01b95945050505050565b6040516001600160e01b031990911681526020016101b2565b6101ce610401366004611a14565b610f47565b6102b07f000000000000000000000000000000000000000000000000000000000000000081565b61026261043b366004611a4c565b600260209081526000928352604080842090915290825290205481565b6103da610466366004611b6e565b63f23a6e6160e01b95945050505050565b6101ce610ff6565b60006001600160e01b03198216630271189760e51b14806104b057506301ffc9a760e01b6001600160e01b03198316145b92915050565b6009546001146104e15760405162461bcd60e51b81526004016104d890611f64565b60405180910390fd5b6000600955841515806104f45750600084115b6105555760405162461bcd60e51b815260206004820152602c60248201527f537061636550697261746573506169723a20494e53554646494349454e545f4f60448201526b155514155517d05353d5539560a21b60648201526084016104d8565b6000806105606109bf565b5091509150816001600160701b0316871080156105855750806001600160701b031686105b6105e25760405162461bcd60e51b815260206004820152602860248201527f537061636550697261746573506169723a20494e53554646494349454e545f4c604482015267495155494449545960c01b60648201526084016104d8565b6000806000806106066004546001600160801b0380821692600160801b9092041690565b90925090508a1561068b57600360009054906101000a90046001600160a01b03166001600160a01b031663f242432a308b858f6040518563ffffffff1660e01b81526004016106589493929190611e24565b600060405180830381600087803b15801561067257600080fd5b505af1158015610686573d6000803e3d6000fd5b505050505b891561070b57600360009054906101000a90046001600160a01b03166001600160a01b031663f242432a308b848e6040518563ffffffff1660e01b81526004016106d89493929190611e24565b600060405180830381600087803b1580156106f257600080fd5b505af1158015610706573d6000803e3d6000fd5b505050505b86156107785760405163233c1b2160e11b81526001600160a01b038a16906346783642906107459033908f908f908e908e90600401611e65565b600060405180830381600087803b15801561075f57600080fd5b505af1158015610773573d6000803e3d6000fd5b505050505b61079530836001600160801b0316836001600160801b0316611075565b9094509250600091506107b390508a6001600160701b038716612090565b83116107c05760006107dd565b6107d38a6001600160701b038716612090565b6107dd9084612090565b905060006107f48a6001600160701b038716612090565b831161080157600061081e565b6108148a6001600160701b038716612090565b61081e9084612090565b9050600082118061082f5750600081115b61088f5760405162461bcd60e51b815260206004820152602b60248201527f537061636550697261746573506169723a20494e53554646494349454e545f4960448201526a1394155517d05353d5539560aa1b60648201526084016104d8565b600061089c836003612071565b6108a8866103e8612071565b6108b29190612090565b905060006108c1836003612071565b6108cd866103e8612071565b6108d79190612090565b90506108ef6001600160701b03808916908a16612071565b6108fc90620f4240612071565b6109068284612071565b101561094a5760405162461bcd60e51b8152602060048201526013602482015272537061636550697261746573506169723a204b60681b60448201526064016104d8565b505061095884848888611193565b60408051838152602081018390529081018c9052606081018b90526001600160a01b038a169033907fd78ad95fa46c994b6551d0da85fc275fe613ce37657fb8d5e3d130840159d8229060800160405180910390a350506001600955505050505050505050565b6005546001600160701b0380821692600160701b830490911691600160e01b900463ffffffff1690565b60006109f6338484611355565b50600192915050565b6001600160a01b0383166000908152600260209081526040808320338452909152812080548391908390610a34908490612090565b90915550610a4590508484846113b7565b5060019392505050565b336001600160a01b037f00000000000000000000000000000000000000000000000000000000000000001614610ac75760405162461bcd60e51b815260206004820152601b60248201527f537061636550697261746573506169723a20464f5242494444454e000000000060448201526064016104d8565b600380546001600160a01b0319166001600160a01b038316179055506001600160801b03908116600160801b02911617600455565b6000600954600114610b205760405162461bcd60e51b81526004016104d890611f64565b6000600981905580610b306109bf565b5060045491935091506000908190610b5d9030906001600160801b0380821691600160801b900416611075565b90925090506000610b776001600160701b03861684612090565b90506000610b8e6001600160701b03861684612090565b90506000610b9c8787611458565b60005490915080610bda576103e8610bbc610bb78587612071565b6115b1565b610bc69190612090565b9850610bd560006103e8611621565b610c21565b610c1e6001600160701b038916610bf18387612071565b610bfb919061202e565b6001600160701b038916610c0f8487612071565b610c19919061202e565b6116aa565b98505b60008911610c895760405162461bcd60e51b815260206004820152602f60248201527f537061636550697261746573506169723a20494e53554646494349454e545f4c60448201526e125455525112551657d35253951151608a1b60648201526084016104d8565b610c938a8a611621565b610c9f86868a8a611193565b8115610cc857600554610cc4906001600160701b03600160701b820481169116612071565b6008555b604080518581526020810185905233917f4c209b5fc8ad50758f13e2e1088ba56a560dff690a1c6fef26394f4c03821c4f910160405180910390a25050600160095550949695505050505050565b600080600954600114610d3b5760405162461bcd60e51b81526004016104d890611f64565b6000600981905580610d4b6109bf565b5091509150600080610d716004546001600160801b0380821692600160801b9092041690565b91509150600080610d9530856001600160801b0316856001600160801b0316611075565b30600090815260016020526040812054929450909250610db58888611458565b60005490915080610dc68685612071565b610dd0919061202e565b9a5080610ddd8585612071565b610de7919061202e565b995060008b118015610df9575060008a115b610e5d5760405162461bcd60e51b815260206004820152602f60248201527f537061636550697261746573506169723a20494e53554646494349454e545f4c60448201526e125455525112551657d09554939151608a1b60648201526084016104d8565b610e6730846116c2565b610e87308d896001600160801b0316896001600160801b03168f8f611745565b610ea430886001600160801b0316886001600160801b0316611075565b9095509350610eb585858b8b611193565b8115610ede57600554610eda906001600160701b03600160701b820481169116612071565b6008555b604080518c8152602081018c90526001600160a01b038e169133917fdccd412f0b1252819cb1fd330b93224ca42612892bb3f4f789976e6d81936496910160405180910390a35050505050505050506001600981905550915091565b60006109f63384846113b7565b600954600114610f695760405162461bcd60e51b81526004016104d890611f64565b600060098190556004546001600160801b0380821692600160801b909204169080610f95308585611075565b6005549193509150610fea90309087906001600160801b038089169190881690610fc8906001600160701b031688612090565b600554610fe590600160701b90046001600160701b031688612090565b611745565b50506001600955505050565b6009546001146110185760405162461bcd60e51b81526004016104d890611f64565b6000600981905560045481906110439030906001600160801b0380821691600160801b900416611075565b600554919350915061106c90839083906001600160701b0380821691600160701b900416611193565b50506001600955565b6040805160028082526060820183526000928392839290916020830190803683375050600354919250506001600160a01b0316634e1273f46110b788806117c5565b6110c1888861186e565b6040518363ffffffff1660e01b81526004016110de929190611eb1565b60006040518083038186803b1580156110f657600080fd5b505afa15801561110a573d6000803e3d6000fd5b505050506040513d6000823e601f3d908101601f191682016040526111329190810190611c00565b90508060008151811061115557634e487b7160e01b600052603260045260246000fd5b602002602001015192508060018151811061118057634e487b7160e01b600052603260045260246000fd5b6020026020010151915050935093915050565b6001600160701b0384118015906111b157506001600160701b038311155b6111fd5760405162461bcd60e51b815260206004820152601a60248201527f537061636550697261746573506169723a204f564552464c4f5700000000000060448201526064016104d8565b600061120e640100000000426120a7565b60055490915063ffffffff600160e01b909104811682039081161580159061123e57506001600160701b03841615155b801561125257506001600160701b03831615155b156112bd578063ffffffff1661127a8561126b866118f5565b6001600160e01b03169061190e565b600680546001600160e01b03929092169290920201905563ffffffff81166112a58461126b876118f5565b600780546001600160e01b0392909216929092020190555b6005805463ffffffff8416600160e01b026001600160e01b036001600160701b03898116600160701b9081026001600160e01b03199095168c83161794909417918216831794859055604080519382169282169290921783529290930490911660208201527f1c411e9a96e071241c2f21f7726b17ae89e3cab4c78be50e062b03a9fffbbad1910160405180910390a1505050505050565b6001600160a01b0383811660008181526002602090815260408083209487168084529482529182902085905590518481527f8c5be1e5ebec7d5bd14f71427d1e84f3dd0314c0f7b2291e5b200ac8c7c3b92591015b60405180910390a3505050565b6001600160a01b038316600090815260016020526040812080548392906113df908490612090565b90915550506001600160a01b0382166000908152600160205260408120805483929061140c908490611ff0565b92505081905550816001600160a01b0316836001600160a01b03167fddf252ad1be2c89b69c2b068fc378daa952ba7f163c4a11628f55a4df523b3ef836040516113aa91815260200190565b6000807f00000000000000000000000000000000000000000000000000000000000000006001600160a01b031663017e7e586040518163ffffffff1660e01b815260040160206040518083038186803b1580156114b457600080fd5b505afa1580156114c8573d6000803e3d6000fd5b505050506040513d601f19601f820116820180604052508101906114ec9190611a30565b6008546001600160a01b03821615801594509192509061159d578015611598576000611527610bb76001600160701b03808816908916612071565b90506000611534836115b1565b90508082111561159557600061154a8284612090565b6000546115579190612071565b9050600082611567856005612071565b6115719190611ff0565b9050600061157f828461202e565b90508015611591576115918782611621565b5050505b50505b6115a9565b80156115a95760006008555b505092915050565b6000600382111561161257508060006115cb60028361202e565b6115d6906001611ff0565b90505b8181101561160c579050806002816115f1818661202e565b6115fb9190611ff0565b611605919061202e565b90506115d9565b50919050565b811561161c575060015b919050565b806000808282546116329190611ff0565b90915550506001600160a01b0382166000908152600160205260408120805483929061165f908490611ff0565b90915550506040518181526001600160a01b038316906000907fddf252ad1be2c89b69c2b068fc378daa952ba7f163c4a11628f55a4df523b3ef906020015b60405180910390a35050565b60008183106116b957816116bb565b825b9392505050565b6001600160a01b038216600090815260016020526040812080548392906116ea908490612090565b92505081905550806000808282546117029190612090565b90915550506040518181526000906001600160a01b038416907fddf252ad1be2c89b69c2b068fc378daa952ba7f163c4a11628f55a4df523b3ef9060200161169e565b6003546001600160a01b0316632eb2c2d68787611762888861186e565b61176c878761186e565b6040518563ffffffff1660e01b815260040161178b9493929190611dcc565b600060405180830381600087803b1580156117a557600080fd5b505af11580156117b9573d6000803e3d6000fd5b50505050505050505050565b60408051600280825260608083018452926000929190602083019080368337019050509050838160008151811061180c57634e487b7160e01b600052603260045260246000fd5b60200260200101906001600160a01b031690816001600160a01b031681525050828160018151811061184e57634e487b7160e01b600052603260045260246000fd5b6001600160a01b0390921660209283029190910190910152905092915050565b6040805160028082526060808301845292600092919060208301908036833701905050905083816000815181106118b557634e487b7160e01b600052603260045260246000fd5b60200260200101818152505082816001815181106118e357634e487b7160e01b600052603260045260246000fd5b60209081029190910101529392505050565b60006104b0600160701b6001600160701b038416612042565b60006116bb6001600160701b03831684612008565b600082601f830112611933578081fd5b8135602061194861194383611fcc565b611f9b565b80838252828201915082860187848660051b8901011115611967578586fd5b855b8581101561198557813584529284019290840190600101611969565b5090979650505050505050565b600082601f8301126119a2578081fd5b813567ffffffffffffffff8111156119bc576119bc6120e7565b6119cf601f8201601f1916602001611f9b565b8181528460208386010111156119e3578283fd5b816020850160208301379081016020019190915292915050565b80356001600160801b038116811461161c57600080fd5b600060208284031215611a25578081fd5b81356116bb816120fd565b600060208284031215611a41578081fd5b81516116bb816120fd565b60008060408385031215611a5e578081fd5b8235611a69816120fd565b91506020830135611a79816120fd565b809150509250929050565b600080600080600060a08688031215611a9b578081fd5b8535611aa6816120fd565b94506020860135611ab6816120fd565b9350604086013567ffffffffffffffff80821115611ad2578283fd5b611ade89838a01611923565b94506060880135915080821115611af3578283fd5b611aff89838a01611923565b93506080880135915080821115611b14578283fd5b50611b2188828901611992565b9150509295509295909350565b600080600060608486031215611b42578283fd5b8335611b4d816120fd565b92506020840135611b5d816120fd565b929592945050506040919091013590565b600080600080600060a08688031215611b85578081fd5b8535611b90816120fd565b94506020860135611ba0816120fd565b93506040860135925060608601359150608086013567ffffffffffffffff811115611bc9578182fd5b611b2188828901611992565b60008060408385031215611be7578182fd5b8235611bf2816120fd565b946020939093013593505050565b60006020808385031215611c12578182fd5b825167ffffffffffffffff811115611c28578283fd5b8301601f81018513611c38578283fd5b8051611c4661194382611fcc565b80828252848201915084840188868560051b8701011115611c65578687fd5b8694505b83851015611c87578051835260019490940193918501918501611c69565b50979650505050505050565b600060208284031215611ca4578081fd5b81356001600160e01b0319811681146116bb578182fd5b600080600060608486031215611ccf578081fd5b611cd8846119fd565b9250611ce6602085016119fd565b91506040840135611cf6816120fd565b809150509250925092565b600080600080600060808688031215611d18578283fd5b85359450602086013593506040860135611d31816120fd565b9250606086013567ffffffffffffffff80821115611d4d578283fd5b818801915088601f830112611d60578283fd5b813581811115611d6e578384fd5b896020828501011115611d7f578384fd5b9699959850939650602001949392505050565b6000815180845260208085019450808401835b83811015611dc157815187529582019590820190600101611da5565b509495945050505050565b6001600160a01b0385811682528416602082015260a060408201819052600090611df890830185611d92565b8281036060840152611e0a8185611d92565b838103608090940193909352508152602001949350505050565b6001600160a01b0394851681529290931660208301526001600160801b03166040820152606081019190915260a06080820181905260009082015260c00190565b60018060a01b038616815284602082015283604082015260806060820152816080820152818360a0830137600081830160a090810191909152601f909201601f19160101949350505050565b604080825283519082018190526000906020906060840190828701845b82811015611ef35781516001600160a01b031684529284019290840190600101611ece565b50505083810382850152611f078186611d92565b9695505050505050565b6000602080835283518082850152825b81811015611f3d57858101830151858201604001528201611f21565b81811115611f4e5783604083870101525b50601f01601f1916929092016040019392505050565b60208082526018908201527f537061636550697261746573506169723a204c4f434b45440000000000000000604082015260600190565b604051601f8201601f1916810167ffffffffffffffff81118282101715611fc457611fc46120e7565b604052919050565b600067ffffffffffffffff821115611fe657611fe66120e7565b5060051b60200190565b60008219821115612003576120036120bb565b500190565b60006001600160e01b0383811680612022576120226120d1565b92169190910492915050565b60008261203d5761203d6120d1565b500490565b60006001600160e01b0382811684821681151582840482111615612068576120686120bb565b02949350505050565b600081600019048311821515161561208b5761208b6120bb565b500290565b6000828210156120a2576120a26120bb565b500390565b6000826120b6576120b66120d1565b500690565b634e487b7160e01b600052601160045260246000fd5b634e487b7160e01b600052601260045260246000fd5b634e487b7160e01b600052604160045260246000fd5b6001600160a01b038116811461211257600080fd5b5056fea2646970667358221220e2fbdc9a920c1dfcbc882410bc65b6cce944c789eaa1cd1bb8f06d1832537e5464736f6c63430008040033a26469706673582212207672e1c8aa8d4593dcbcd57f1d3307224ee5569dbe72d3dec9c89e86371ec29264736f6c63430008040033",
  "linkReferences": {},
  "deployedLinkReferences": {}
}