{
  "_format": "hh-sol-artifact-1",
  "contractName": "SpacePiratesItemsMarketPlace",
  "sourceName": "contracts/SpacePiratesItemsMarketPlace.sol",
  "abi": [
    {
      "inputs": [
        {
          "internalType": "contract SpacePiratesTokens",
          "name": "_tokenContract",
          "type": "address"
        }
      ],
      "stateMutability": "nonpayable",
      "type": "constructor"
    },
    {
      "anonymous": false,
      "inputs": [
        {
          "indexed": true,
          "internalType": "uint256[]",
          "name": "itemsIds",
          "type": "uint256[]"
        },
        {
          "indexed": false,
          "internalType": "uint256[]",
          "name": "itemsQuantities",
          "type": "uint256[]"
        },
        {
          "indexed": false,
          "internalType": "uint128",
          "name": "paymentId",
          "type": "uint128"
        },
        {
          "indexed": false,
          "internalType": "uint128",
          "name": "price",
          "type": "uint128"
        },
        {
          "indexed": false,
          "internalType": "uint120",
          "name": "saleEnd",
          "type": "uint120"
        },
        {
          "indexed": false,
          "internalType": "uint120",
          "name": "available",
          "type": "uint120"
        },
        {
          "indexed": false,
          "internalType": "uint16",
          "name": "maxBuyPerAddress",
          "type": "uint16"
        }
      ],
      "name": "AddItems",
      "type": "event"
    },
    {
      "anonymous": false,
      "inputs": [
        {
          "indexed": true,
          "internalType": "uint256[]",
          "name": "itemsIds",
          "type": "uint256[]"
        },
        {
          "indexed": false,
          "internalType": "uint128",
          "name": "paymentId",
          "type": "uint128"
        },
        {
          "indexed": false,
          "internalType": "uint128",
          "name": "price",
          "type": "uint128"
        },
        {
          "indexed": false,
          "internalType": "uint64",
          "name": "quantity",
          "type": "uint64"
        }
      ],
      "name": "BuyItem",
      "type": "event"
    },
    {
      "anonymous": false,
      "inputs": [
        {
          "indexed": true,
          "internalType": "address",
          "name": "previousOwner",
          "type": "address"
        },
        {
          "indexed": true,
          "internalType": "address",
          "name": "newOwner",
          "type": "address"
        }
      ],
      "name": "OwnershipTransferred",
      "type": "event"
    },
    {
      "inputs": [
        {
          "internalType": "uint256",
          "name": "saleIndex",
          "type": "uint256"
        },
        {
          "internalType": "uint16",
          "name": "quantity",
          "type": "uint16"
        }
      ],
      "name": "buyItem",
      "outputs": [],
      "stateMutability": "nonpayable",
      "type": "function"
    },
    {
      "inputs": [
        {
          "internalType": "uint256[]",
          "name": "itemsIds",
          "type": "uint256[]"
        },
        {
          "internalType": "uint256[]",
          "name": "itemsQuantities",
          "type": "uint256[]"
        },
        {
          "internalType": "uint128",
          "name": "paymentId",
          "type": "uint128"
        },
        {
          "internalType": "uint128",
          "name": "price",
          "type": "uint128"
        },
        {
          "internalType": "uint120",
          "name": "saleEnd",
          "type": "uint120"
        },
        {
          "internalType": "uint120",
          "name": "available",
          "type": "uint120"
        },
        {
          "internalType": "uint16",
          "name": "maxBuyPerAddress",
          "type": "uint16"
        }
      ],
      "name": "createSale",
      "outputs": [],
      "stateMutability": "nonpayable",
      "type": "function"
    },
    {
      "inputs": [
        {
          "internalType": "uint256",
          "name": "",
          "type": "uint256"
        }
      ],
      "name": "itemsOnSale",
      "outputs": [
        {
          "internalType": "uint256",
          "name": "",
          "type": "uint256"
        }
      ],
      "stateMutability": "view",
      "type": "function"
    },
    {
      "inputs": [],
      "name": "itemsOnSaleArray",
      "outputs": [
        {
          "internalType": "uint256[]",
          "name": "",
          "type": "uint256[]"
        }
      ],
      "stateMutability": "view",
      "type": "function"
    },
    {
      "inputs": [],
      "name": "owner",
      "outputs": [
        {
          "internalType": "address",
          "name": "",
          "type": "address"
        }
      ],
      "stateMutability": "view",
      "type": "function"
    },
    {
      "inputs": [],
      "name": "renounceOwnership",
      "outputs": [],
      "stateMutability": "nonpayable",
      "type": "function"
    },
    {
      "inputs": [
        {
          "internalType": "uint256",
          "name": "",
          "type": "uint256"
        },
        {
          "internalType": "uint256",
          "name": "",
          "type": "uint256"
        }
      ],
      "name": "saleIndexes",
      "outputs": [
        {
          "internalType": "uint256",
          "name": "",
          "type": "uint256"
        }
      ],
      "stateMutability": "view",
      "type": "function"
    },
    {
      "inputs": [
        {
          "internalType": "uint256",
          "name": "saleIndex",
          "type": "uint256"
        }
      ],
      "name": "saleItemsIds",
      "outputs": [
        {
          "internalType": "uint256[]",
          "name": "",
          "type": "uint256[]"
        }
      ],
      "stateMutability": "view",
      "type": "function"
    },
    {
      "inputs": [
        {
          "internalType": "uint256",
          "name": "saleIndex",
          "type": "uint256"
        }
      ],
      "name": "saleItemsQuantities",
      "outputs": [
        {
          "internalType": "uint256[]",
          "name": "",
          "type": "uint256[]"
        }
      ],
      "stateMutability": "view",
      "type": "function"
    },
    {
      "inputs": [
        {
          "internalType": "uint256",
          "name": "",
          "type": "uint256"
        }
      ],
      "name": "sales",
      "outputs": [
        {
          "internalType": "uint128",
          "name": "paymentId",
          "type": "uint128"
        },
        {
          "internalType": "uint128",
          "name": "price",
          "type": "uint128"
        },
        {
          "internalType": "uint120",
          "name": "saleEnd",
          "type": "uint120"
        },
        {
          "internalType": "uint120",
          "name": "available",
          "type": "uint120"
        },
        {
          "internalType": "uint16",
          "name": "maxBuyPerAddress",
          "type": "uint16"
        }
      ],
      "stateMutability": "view",
      "type": "function"
    },
    {
      "inputs": [],
      "name": "salesAmount",
      "outputs": [
        {
          "internalType": "uint256",
          "name": "amount",
          "type": "uint256"
        }
      ],
      "stateMutability": "view",
      "type": "function"
    },
    {
      "inputs": [
        {
          "internalType": "uint256",
          "name": "id",
          "type": "uint256"
        }
      ],
      "name": "salesIndexesFromId",
      "outputs": [
        {
          "internalType": "uint256[]",
          "name": "",
          "type": "uint256[]"
        }
      ],
      "stateMutability": "view",
      "type": "function"
    },
    {
      "inputs": [],
      "name": "tokenContract",
      "outputs": [
        {
          "internalType": "contract SpacePiratesTokens",
          "name": "",
          "type": "address"
        }
      ],
      "stateMutability": "view",
      "type": "function"
    },
    {
      "inputs": [
        {
          "internalType": "address",
          "name": "newOwner",
          "type": "address"
        }
      ],
      "name": "transferOwnership",
      "outputs": [],
      "stateMutability": "nonpayable",
      "type": "function"
    }
  ],
  "bytecode": "0x60a060405234801561001057600080fd5b506040516116cf3803806116cf83398101604081905261002f9161009d565b6100383361004d565b60601b6001600160601b0319166080526100cb565b600080546001600160a01b038381166001600160a01b0319831681178455604051919092169283917f8be0079c531659141344cd1fd0a4f28419497f9722a3daafe3b4186f6b6457e09190a35050565b6000602082840312156100ae578081fd5b81516001600160a01b03811681146100c4578182fd5b9392505050565b60805160601c6115d86100f76000396000818161015101528181610e6c0152610f3e01526115d86000f3fe608060405234801561001057600080fd5b50600436106100ea5760003560e01c8063859b91b31161008c5780639357de65116100665780639357de65146101dc578063b5f522f7146101ef578063cee8088714610245578063f2fde38b1461025857600080fd5b8063859b91b3146101b05780638da5cb5b146101b8578063929ace96146101c957600080fd5b806355a373d6116100c857806355a373d61461014c5780635748966c1461018b578063715018a61461019357806372502d3b1461019d57600080fd5b80632f6aebac146100ef5780633ce8f04d146101185780633fcab61914610139575b600080fd5b6101026100fd36600461131d565b61026b565b60405161010f91906114d0565b60405180910390f35b61012b61012636600461131d565b6103bc565b60405190815260200161010f565b61010261014736600461131d565b6103dd565b6101737f000000000000000000000000000000000000000000000000000000000000000081565b6040516001600160a01b03909116815260200161010f565b60015461012b565b61019b61043f565b005b6101026101ab36600461131d565b610453565b61010261059f565b6000546001600160a01b0316610173565b61019b6101d736600461125e565b6105f7565b61012b6101ea366004611360565b6109b1565b6102026101fd36600461131d565b6109e2565b604080516001600160801b0396871681529590941660208601526001600160781b039283169385019390935216606083015261ffff16608082015260a00161010f565b61019b610253366004611335565b610a4b565b61019b610266366004611230565b61101e565b606060006001838154811061029057634e487b7160e01b600052603260045260246000fd5b90600052602060002090600402016040518060e0016040529081600082018054806020026020016040519081016040528092919081815260200182805480156102f857602002820191906000526020600020905b8154815260200190600101908083116102e4575b505050505081526020016001820180548060200260200160405190810160405280929190818152602001828054801561035057602002820191906000526020600020905b81548152602001906001019080831161033c575b505050918352505060028201546001600160801b03808216602080850191909152600160801b9092041660408301526003909201546001600160781b038082166060840152600160781b8204166080830152600160f01b900461ffff1660a09091015201519392505050565b600481815481106103cc57600080fd5b600091825260209091200154905081565b60008181526003602090815260409182902080548351818402810184019094528084526060939283018282801561043357602002820191906000526020600020905b81548152602001906001019080831161041f575b50505050509050919050565b610447611097565b61045160006110f1565b565b606060006001838154811061047857634e487b7160e01b600052603260045260246000fd5b90600052602060002090600402016040518060e0016040529081600082018054806020026020016040519081016040528092919081815260200182805480156104e057602002820191906000526020600020905b8154815260200190600101908083116104cc575b505050505081526020016001820180548060200260200160405190810160405280929190818152602001828054801561053857602002820191906000526020600020905b815481526020019060010190808311610524575b505050918352505060028201546001600160801b038082166020840152600160801b9091041660408201526003909101546001600160781b038082166060840152600160781b8204166080830152600160f01b900461ffff1660a090910152519392505050565b606060048054806020026020016040519081016040528092919081815260200182805480156105ed57602002820191906000526020600020905b8154815260200190600101908083116105d9575b5050505050905090565b6105ff611097565b8786146106795760405162461bcd60e51b815260206004820152603860248201527f5370616365506972617465734974656d734d61726b6574506c6163653a20617260448201527f726179207769746820646966666572656e742073697a6573000000000000000060648201526084015b60405180910390fd5b60015460005b898110156107d65760008b8b838181106106a957634e487b7160e01b600052603260045260246000fd5b905060200201359050614e2081101580156106c757506201869f8111155b806106e157506103e881101580156106e1575061270f8111155b806106fd5750620186a081101580156106fd575062030d3f8111155b61075a5760405162461bcd60e51b815260206004820152602860248201527f5370616365506972617465734974656d734d61726b6574506c6163653a20696e6044820152671d985b1a59081a5960c21b6064820152608401610670565b6000818152600360205260409020546107a357600480546001810182556000919091527f8a35acfbc15ff81a39ae7d344fd709f28e8600b4aa8c65c6b64bfe7fe36bd19b018190555b600090815260036020908152604082208054600181018255908352912001829055806107ce81611571565b91505061067f565b506040805161010060208c02808301820190935260e082018c815260019383928f918f918291908601908490808284376000920191909152505050908252506040805160208c810282810182019093528c82529283019290918d918d91829185019084908082843760009201829052509385525050506001600160801b03808b16602080850191909152908a1660408401526001600160781b03808a1660608501528816608084015261ffff871660a0909301929092528354600181018555938152819020825180519394600402909101926108b59284920190611141565b5060208281015180516108ce9260018501920190611141565b5060408281015160608401516001600160801b03908116600160801b02911617600283015560808301516003909201805460a085015160c09095015161ffff16600160f01b026001600160f01b036001600160781b03968716600160781b026001600160f01b0319909316969095169590951717929092169290921790555161095a908b908b906113bb565b60405180910390207f78c95d9715811ba8c31d9a40c16bb5fa7a26cc1fc741d1ca2012eee127fa1b4e8989898989898960405161099d979695949392919061145b565b60405180910390a250505050505050505050565b600360205281600052604060002081815481106109cd57600080fd5b90600052602060002001600091509150505481565b600181815481106109f257600080fd5b6000918252602090912060049091020160028101546003909101546001600160801b038083169350600160801b909204909116906001600160781b0380821691600160781b810490911690600160f01b900461ffff1685565b600060018381548110610a6e57634e487b7160e01b600052603260045260246000fd5b90600052602060002090600402016040518060e001604052908160008201805480602002602001604051908101604052809291908181526020018280548015610ad657602002820191906000526020600020905b815481526020019060010190808311610ac2575b5050505050815260200160018201805480602002602001604051908101604052809291908181526020018280548015610b2e57602002820191906000526020600020905b815481526020019060010190808311610b1a575b505050918352505060028201546001600160801b038082166020840152600160801b9091041660408201526003909101546001600160781b038082166060840152600160781b82048116608080850191909152600160f01b90920461ffff1660a090930192909252820151919250161580610bb657504281608001516001600160781b031610155b610c135760405162461bcd60e51b815260206004820152602860248201527f5370616365506972617465734974656d734d61726b6574506c6163653a2073616044820152671b1948195b99195960c21b6064820152608401610670565b60a08101516001600160781b0390811614610d2c578060a001516001600160781b03168261ffff161115610caf5760405162461bcd60e51b815260206004820152603b60248201527f5370616365506972617465734974656d734d61726b6574506c6163653a20627560448201527f792065786365656420617661696c61626c65207175616e7469747900000000006064820152608401610670565b8161ffff1660018481548110610cd557634e487b7160e01b600052603260045260246000fd5b9060005260206000209060040201600301600f8282829054906101000a90046001600160781b0316610d079190611549565b92506101000a8154816001600160781b0302191690836001600160781b031602179055505b60c081015161ffff1615610e095760c0810151600084815260026020908152604080832033845290915290205461ffff91821691610d6d91908516906114e3565b1115610dd65760405162461bcd60e51b815260206004820152603260248201527f5370616365506972617465734974656d734d61726b6574506c6163653a20657860448201527118d95959081d5cd95c881b585e081b5a5b9d60721b6064820152608401610670565b60008381526002602090815260408083203384529091528120805461ffff85169290610e039084906114e3565b90915550505b60005b816020015151811015610e69578261ffff1682602001518281518110610e4257634e487b7160e01b600052603260045260246000fd5b60200260200101818151610e56919061152a565b905250610e6281611571565b9050610e0c565b507f00000000000000000000000000000000000000000000000000000000000000006001600160a01b031663f5298aca33836040015184606001518661ffff16610eb391906114fb565b6040516001600160e01b031960e086901b1681526001600160a01b0390931660048401526001600160801b039182166024840152166044820152606401600060405180830381600087803b158015610f0a57600080fd5b505af1158015610f1e573d6000803e3d6000fd5b50508251602084015160405163d81d0a1560e01b81526001600160a01b037f000000000000000000000000000000000000000000000000000000000000000016945063d81d0a159350610f77923392909160040161141b565b600060405180830381600087803b158015610f9157600080fd5b505af1158015610fa5573d6000803e3d6000fd5b50508251604051610fb993509091506113e5565b60408051918290038220838201516060808601516001600160801b03928316865291909116602085015261ffff861684840152915190927f7fb1a40cec4405e7339d5d284136ff7a8368422a91f1523b5b530d18bc56264992908290030190a2505050565b611026611097565b6001600160a01b03811661108b5760405162461bcd60e51b815260206004820152602660248201527f4f776e61626c653a206e6577206f776e657220697320746865207a65726f206160448201526564647265737360d01b6064820152608401610670565b611094816110f1565b50565b6000546001600160a01b031633146104515760405162461bcd60e51b815260206004820181905260248201527f4f776e61626c653a2063616c6c6572206973206e6f7420746865206f776e65726044820152606401610670565b600080546001600160a01b038381166001600160a01b0319831681178455604051919092169283917f8be0079c531659141344cd1fd0a4f28419497f9722a3daafe3b4186f6b6457e09190a35050565b82805482825590600052602060002090810192821561117c579160200282015b8281111561117c578251825591602001919060010190611161565b5061118892915061118c565b5090565b5b80821115611188576000815560010161118d565b60008083601f8401126111b2578182fd5b50813567ffffffffffffffff8111156111c9578182fd5b6020830191508360208260051b85010111156111e457600080fd5b9250929050565b80356001600160781b038116811461120257600080fd5b919050565b80356001600160801b038116811461120257600080fd5b803561ffff8116811461120257600080fd5b600060208284031215611241578081fd5b81356001600160a01b0381168114611257578182fd5b9392505050565b600080600080600080600080600060e08a8c03121561127b578485fd5b893567ffffffffffffffff80821115611292578687fd5b61129e8d838e016111a1565b909b50995060208c01359150808211156112b6578687fd5b506112c38c828d016111a1565b90985096506112d6905060408b01611207565b94506112e460608b01611207565b93506112f260808b016111eb565b925061130060a08b016111eb565b915061130e60c08b0161121e565b90509295985092959850929598565b60006020828403121561132e578081fd5b5035919050565b60008060408385031215611347578182fd5b823591506113576020840161121e565b90509250929050565b60008060408385031215611372578182fd5b50508035926020909101359150565b6000815180845260208085019450808401835b838110156113b057815187529582019590820190600101611394565b509495945050505050565b60006001600160fb1b038311156113d0578081fd5b8260051b808584379190910190815292915050565b815160009082906020808601845b8381101561140f578151855293820193908201906001016113f3565b50929695505050505050565b6001600160a01b038416815260606020820181905260009061143f90830185611381565b82810360408401526114518185611381565b9695505050505050565b60c0808252810187905260006001600160fb1b0388111561147a578081fd5b8760051b808a60e0850137820160e0019081526001600160801b0396871660208301529490951660408601526001600160781b0392831660608601529116608084015261ffff1660a09092019190915292915050565b6020815260006112576020830184611381565b600082198211156114f6576114f661158c565b500190565b60006001600160801b03808316818516818304811182151516156115215761152161158c565b02949350505050565b60008160001904831182151516156115445761154461158c565b500290565b60006001600160781b03838116908316818110156115695761156961158c565b039392505050565b60006000198214156115855761158561158c565b5060010190565b634e487b7160e01b600052601160045260246000fdfea2646970667358221220a4dba2692f2d66f9f393b64da0327debe471d930ec6ac0a980b5d58685733a5564736f6c63430008040033",
  "linkReferences": {},
  "deployedLinkReferences": {}
}