{
  "_format": "hh-sol-artifact-1",
  "contractName": "BattleFieldFirstCollection",
  "sourceName": "contracts/BattleFieldFirstCollection.sol",
  "abi": [
    {
      "inputs": [
        {
          "internalType": "contract SpacePiratesTokens",
          "name": "_tokenContract",
          "type": "address"
        },
        {
          "internalType": "uint256",
          "name": "_startTime",
          "type": "uint256"
        },
        {
          "internalType": "uint256",
          "name": "_duration",
          "type": "uint256"
        }
      ],
      "stateMutability": "nonpayable",
      "type": "constructor"
    },
    {
      "anonymous": false,
      "inputs": [
        {
          "indexed": true,
          "internalType": "address",
          "name": "user",
          "type": "address"
        },
        {
          "indexed": false,
          "internalType": "uint256",
          "name": "id",
          "type": "uint256"
        }
      ],
      "name": "Mint",
      "type": "event"
    },
    {
      "inputs": [],
      "name": "MAX_MINT_PER_ADDRESS",
      "outputs": [
        {
          "internalType": "uint256",
          "name": "",
          "type": "uint256"
        }
      ],
      "stateMutability": "view",
      "type": "function"
    },
    {
      "inputs": [],
      "name": "MAX_SUPPLY",
      "outputs": [
        {
          "internalType": "uint256",
          "name": "",
          "type": "uint256"
        }
      ],
      "stateMutability": "view",
      "type": "function"
    },
    {
      "inputs": [],
      "name": "PAYING_ID",
      "outputs": [
        {
          "internalType": "uint256",
          "name": "",
          "type": "uint256"
        }
      ],
      "stateMutability": "view",
      "type": "function"
    },
    {
      "inputs": [],
      "name": "PRICE",
      "outputs": [
        {
          "internalType": "uint256",
          "name": "",
          "type": "uint256"
        }
      ],
      "stateMutability": "view",
      "type": "function"
    },
    {
      "inputs": [],
      "name": "duration",
      "outputs": [
        {
          "internalType": "uint256",
          "name": "",
          "type": "uint256"
        }
      ],
      "stateMutability": "view",
      "type": "function"
    },
    {
      "inputs": [
        {
          "internalType": "uint256",
          "name": "_quantity",
          "type": "uint256"
        }
      ],
      "name": "mint",
      "outputs": [],
      "stateMutability": "nonpayable",
      "type": "function"
    },
    {
      "inputs": [],
      "name": "mintId",
      "outputs": [
        {
          "internalType": "uint256",
          "name": "",
          "type": "uint256"
        }
      ],
      "stateMutability": "view",
      "type": "function"
    },
    {
      "inputs": [
        {
          "internalType": "address",
          "name": "",
          "type": "address"
        }
      ],
      "name": "nbOfBFsMintedBy",
      "outputs": [
        {
          "internalType": "uint256",
          "name": "",
          "type": "uint256"
        }
      ],
      "stateMutability": "view",
      "type": "function"
    },
    {
      "inputs": [],
      "name": "startTime",
      "outputs": [
        {
          "internalType": "uint256",
          "name": "",
          "type": "uint256"
        }
      ],
      "stateMutability": "view",
      "type": "function"
    },
    {
      "inputs": [],
      "name": "tokenContract",
      "outputs": [
        {
          "internalType": "contract SpacePiratesTokens",
          "name": "",
          "type": "address"
        }
      ],
      "stateMutability": "view",
      "type": "function"
    },
    {
      "inputs": [],
      "name": "totalSupply",
      "outputs": [
        {
          "internalType": "uint256",
          "name": "",
          "type": "uint256"
        }
      ],
      "stateMutability": "view",
      "type": "function"
    }
  ],
  "bytecode": "0x60e06040526201869f60005534801561001757600080fd5b506040516108ac3803806108ac83398101604081905261003691610054565b60609290921b6001600160601b03191660805260a05260c052610095565b600080600060608486031215610068578283fd5b83516001600160a01b038116811461007e578384fd5b602085015160409095015190969495509392505050565b60805160601c60a05160c0516107c36100e96000396000818160b301526102a501526000818161016c0152818161022b01526102c601526000818161012d015281816104df01526105b401526107c36000f3fe608060405234801561001057600080fd5b50600436106100a95760003560e01c80634b4d36ce116100715780634b4d36ce1461010857806355a373d61461012857806378e97925146101675780638d859f3e1461018e578063a0712d681461019f578063fe90e5bc146101b457600080fd5b80630fb5a6b4146100ae57806318160ddd146100e8578063295c526f146100f057806332cb6b0c146100f85780633acd6cb214610100575b600080fd5b6100d57f000000000000000000000000000000000000000000000000000000000000000081565b6040519081526020015b60405180910390f35b6100d56101bd565b6100d5600181565b6100d5606481565b6100d5600281565b6100d56101163660046106a8565b60016020526000908152604090205481565b61014f7f000000000000000000000000000000000000000000000000000000000000000081565b6040516001600160a01b0390911681526020016100df565b6100d57f000000000000000000000000000000000000000000000000000000000000000081565b6100d569152d02c7e14af680000081565b6101b26101ad3660046106d6565b6101d5565b005b6100d560005481565b60006201869f6000546101d09190610725565b905090565b3233146102295760405162461bcd60e51b815260206004820152601e60248201527f5468652063616c6c657220697320616e6f7468657220636f6e7472616374000060448201526064015b60405180910390fd5b7f00000000000000000000000000000000000000000000000000000000000000004210156102a05760405162461bcd60e51b8152602060048201526030602482015260008051602061076e83398151915260448201526f081b9bdd081cdd185c9d1959081e595d60821b6064820152608401610220565b6102ea7f00000000000000000000000000000000000000000000000000000000000000007f00000000000000000000000000000000000000000000000000000000000000006106ee565b42111561033e5760405162461bcd60e51b815260206004820152602e602482015260008051602061076e83398151915260448201526d08185b1c9958591e48195b99195960921b6064820152608401610220565b6064816201869f6000546103529190610725565b61035c91906106ee565b11156103be5760405162461bcd60e51b815260206004820152603c602482015260008051602061076e83398151915260448201527f207175616e746974792065786365656473206d617820737570706c79000000006064820152608401610220565b336000908152600160205260409020546002906103dc9083906106ee565b11156104535760405162461bcd60e51b815260206004820152604c602482015260008051602061076e83398151915260448201527f207175616e74697479206578636565647320616c6c6f77616e636520666f722060648201526b74686973206164647265737360a01b608482015260a401610220565b600081116104c95760405162461bcd60e51b815260206004820152603760248201527f426174746c654669656c644669727374436f6c6c656374696f6e3a206e65656460448201527f20746f206d696e74206174206c656173742031204e46540000000000000000006064820152608401610220565b6104d2816104d5565b50565b6001600160a01b037f00000000000000000000000000000000000000000000000000000000000000001663f5298aca33600161051b69152d02c7e14af680000086610706565b6040516001600160e01b031960e086901b1681526001600160a01b03909316600484015260248301919091526044820152606401600060405180830381600087803b15801561056957600080fd5b505af115801561057d573d6000803e3d6000fd5b505033600090815260016020526040812080548594509092506105a19084906106ee565b90915550600090505b818110156106a4577f00000000000000000000000000000000000000000000000000000000000000006001600160a01b031663156e29f63360008081546105f09061073c565b91829055506040516001600160e01b031960e085901b1681526001600160a01b039092166004830152602482015260016044820152606401600060405180830381600087803b15801561064257600080fd5b505af1158015610656573d6000803e3d6000fd5b50506000546040519081523392507f0f6798a560793a54c3bcfe86a93cde1e73087d944c0ea20544137d4121396885915060200160405180910390a28061069c8161073c565b9150506105aa565b5050565b6000602082840312156106b9578081fd5b81356001600160a01b03811681146106cf578182fd5b9392505050565b6000602082840312156106e7578081fd5b5035919050565b6000821982111561070157610701610757565b500190565b600081600019048311821515161561072057610720610757565b500290565b60008282101561073757610737610757565b500390565b600060001982141561075057610750610757565b5060010190565b634e487b7160e01b600052601160045260246000fdfe426174746c654669656c644669727374436f6c6c656374696f6e3a206d696e74a2646970667358221220c84924f7a80da45462a566856f8ea99ef499a7aefce284e2e26716ea5c771cbf64736f6c63430008040033",
  "linkReferences": {},
  "deployedLinkReferences": {}
}