{
  "_format": "hh-sol-artifact-1",
  "contractName": "SpacePiratesRouter",
  "sourceName": "contracts/dex/SpacePiratesRouter.sol",
  "abi": [
    {
      "inputs": [
        {
          "internalType": "address",
          "name": "_factory",
          "type": "address"
        },
        {
          "internalType": "address",
          "name": "_tokenContract",
          "type": "address"
        },
        {
          "internalType": "contract ISpacePiratesWrapper",
          "name": "_wrapper",
          "type": "address"
        }
      ],
      "stateMutability": "nonpayable",
      "type": "constructor"
    },
    {
      "inputs": [],
      "name": "SPACE_ETH_ID",
      "outputs": [
        {
          "internalType": "uint256",
          "name": "",
          "type": "uint256"
        }
      ],
      "stateMutability": "view",
      "type": "function"
    },
    {
      "inputs": [
        {
          "internalType": "uint256",
          "name": "tokenA",
          "type": "uint256"
        },
        {
          "internalType": "uint256",
          "name": "tokenB",
          "type": "uint256"
        },
        {
          "internalType": "uint256",
          "name": "amountADesired",
          "type": "uint256"
        },
        {
          "internalType": "uint256",
          "name": "amountBDesired",
          "type": "uint256"
        },
        {
          "internalType": "uint256",
          "name": "amountAMin",
          "type": "uint256"
        },
        {
          "internalType": "uint256",
          "name": "amountBMin",
          "type": "uint256"
        },
        {
          "internalType": "address",
          "name": "to",
          "type": "address"
        },
        {
          "internalType": "uint256",
          "name": "deadline",
          "type": "uint256"
        }
      ],
      "name": "addLiquidity",
      "outputs": [
        {
          "internalType": "uint256",
          "name": "amountA",
          "type": "uint256"
        },
        {
          "internalType": "uint256",
          "name": "amountB",
          "type": "uint256"
        },
        {
          "internalType": "uint256",
          "name": "liquidity",
          "type": "uint256"
        }
      ],
      "stateMutability": "nonpayable",
      "type": "function"
    },
    {
      "inputs": [
        {
          "internalType": "address",
          "name": "erc20Contract",
          "type": "address"
        },
        {
          "internalType": "uint256",
          "name": "token",
          "type": "uint256"
        },
        {
          "internalType": "uint256",
          "name": "amountTokenDesired",
          "type": "uint256"
        },
        {
          "internalType": "uint256",
          "name": "amountERC20Desired",
          "type": "uint256"
        },
        {
          "internalType": "uint256",
          "name": "amountTokenMin",
          "type": "uint256"
        },
        {
          "internalType": "uint256",
          "name": "amountERC20Min",
          "type": "uint256"
        },
        {
          "internalType": "address",
          "name": "to",
          "type": "address"
        },
        {
          "internalType": "uint256",
          "name": "deadline",
          "type": "uint256"
        }
      ],
      "name": "addLiquidityERC20",
      "outputs": [
        {
          "internalType": "uint256",
          "name": "amountToken",
          "type": "uint256"
        },
        {
          "internalType": "uint256",
          "name": "amountERC20",
          "type": "uint256"
        },
        {
          "internalType": "uint256",
          "name": "liquidityAndId",
          "type": "uint256"
        }
      ],
      "stateMutability": "nonpayable",
      "type": "function"
    },
    {
      "inputs": [
        {
          "internalType": "uint256",
          "name": "token",
          "type": "uint256"
        },
        {
          "internalType": "uint256",
          "name": "amountTokenDesired",
          "type": "uint256"
        },
        {
          "internalType": "uint256",
          "name": "amountTokenMin",
          "type": "uint256"
        },
        {
          "internalType": "uint256",
          "name": "amountETHMin",
          "type": "uint256"
        },
        {
          "internalType": "address",
          "name": "to",
          "type": "address"
        },
        {
          "internalType": "uint256",
          "name": "deadline",
          "type": "uint256"
        }
      ],
      "name": "addLiquidityETH",
      "outputs": [
        {
          "internalType": "uint256",
          "name": "amountToken",
          "type": "uint256"
        },
        {
          "internalType": "uint256",
          "name": "amountETH",
          "type": "uint256"
        },
        {
          "internalType": "uint256",
          "name": "liquidity",
          "type": "uint256"
        }
      ],
      "stateMutability": "payable",
      "type": "function"
    },
    {
      "inputs": [],
      "name": "factory",
      "outputs": [
        {
          "internalType": "address",
          "name": "",
          "type": "address"
        }
      ],
      "stateMutability": "view",
      "type": "function"
    },
    {
      "inputs": [
        {
          "internalType": "uint256",
          "name": "amountOut",
          "type": "uint256"
        },
        {
          "internalType": "uint256",
          "name": "reserveIn",
          "type": "uint256"
        },
        {
          "internalType": "uint256",
          "name": "reserveOut",
          "type": "uint256"
        }
      ],
      "name": "getAmountIn",
      "outputs": [
        {
          "internalType": "uint256",
          "name": "amountIn",
          "type": "uint256"
        }
      ],
      "stateMutability": "pure",
      "type": "function"
    },
    {
      "inputs": [
        {
          "internalType": "uint256",
          "name": "amountIn",
          "type": "uint256"
        },
        {
          "internalType": "uint256",
          "name": "reserveIn",
          "type": "uint256"
        },
        {
          "internalType": "uint256",
          "name": "reserveOut",
          "type": "uint256"
        }
      ],
      "name": "getAmountOut",
      "outputs": [
        {
          "internalType": "uint256",
          "name": "amountOut",
          "type": "uint256"
        }
      ],
      "stateMutability": "pure",
      "type": "function"
    },
    {
      "inputs": [
        {
          "internalType": "uint256",
          "name": "amountOut",
          "type": "uint256"
        },
        {
          "internalType": "uint256[]",
          "name": "path",
          "type": "uint256[]"
        }
      ],
      "name": "getAmountsIn",
      "outputs": [
        {
          "internalType": "uint256[]",
          "name": "amounts",
          "type": "uint256[]"
        }
      ],
      "stateMutability": "view",
      "type": "function"
    },
    {
      "inputs": [
        {
          "internalType": "uint256",
          "name": "amountIn",
          "type": "uint256"
        },
        {
          "internalType": "uint256[]",
          "name": "path",
          "type": "uint256[]"
        }
      ],
      "name": "getAmountsOut",
      "outputs": [
        {
          "internalType": "uint256[]",
          "name": "amounts",
          "type": "uint256[]"
        }
      ],
      "stateMutability": "view",
      "type": "function"
    },
    {
      "inputs": [
        {
          "internalType": "address",
          "name": "",
          "type": "address"
        },
        {
          "internalType": "address",
          "name": "",
          "type": "address"
        },
        {
          "internalType": "uint256[]",
          "name": "",
          "type": "uint256[]"
        },
        {
          "internalType": "uint256[]",
          "name": "",
          "type": "uint256[]"
        },
        {
          "internalType": "bytes",
          "name": "",
          "type": "bytes"
        }
      ],
      "name": "onERC1155BatchReceived",
      "outputs": [
        {
          "internalType": "bytes4",
          "name": "",
          "type": "bytes4"
        }
      ],
      "stateMutability": "nonpayable",
      "type": "function"
    },
    {
      "inputs": [
        {
          "internalType": "address",
          "name": "",
          "type": "address"
        },
        {
          "internalType": "address",
          "name": "",
          "type": "address"
        },
        {
          "internalType": "uint256",
          "name": "",
          "type": "uint256"
        },
        {
          "internalType": "uint256",
          "name": "",
          "type": "uint256"
        },
        {
          "internalType": "bytes",
          "name": "",
          "type": "bytes"
        }
      ],
      "name": "onERC1155Received",
      "outputs": [
        {
          "internalType": "bytes4",
          "name": "",
          "type": "bytes4"
        }
      ],
      "stateMutability": "nonpayable",
      "type": "function"
    },
    {
      "inputs": [
        {
          "internalType": "uint256",
          "name": "amountA",
          "type": "uint256"
        },
        {
          "internalType": "uint256",
          "name": "reserveA",
          "type": "uint256"
        },
        {
          "internalType": "uint256",
          "name": "reserveB",
          "type": "uint256"
        }
      ],
      "name": "quote",
      "outputs": [
        {
          "internalType": "uint256",
          "name": "amountB",
          "type": "uint256"
        }
      ],
      "stateMutability": "pure",
      "type": "function"
    },
    {
      "inputs": [
        {
          "internalType": "uint256",
          "name": "tokenA",
          "type": "uint256"
        },
        {
          "internalType": "uint256",
          "name": "tokenB",
          "type": "uint256"
        },
        {
          "internalType": "uint256",
          "name": "liquidity",
          "type": "uint256"
        },
        {
          "internalType": "uint256",
          "name": "amountAMin",
          "type": "uint256"
        },
        {
          "internalType": "uint256",
          "name": "amountBMin",
          "type": "uint256"
        },
        {
          "internalType": "address",
          "name": "to",
          "type": "address"
        },
        {
          "internalType": "uint256",
          "name": "deadline",
          "type": "uint256"
        }
      ],
      "name": "removeLiquidity",
      "outputs": [
        {
          "internalType": "uint256",
          "name": "amountA",
          "type": "uint256"
        },
        {
          "internalType": "uint256",
          "name": "amountB",
          "type": "uint256"
        }
      ],
      "stateMutability": "nonpayable",
      "type": "function"
    },
    {
      "inputs": [
        {
          "internalType": "address",
          "name": "erc20Contract",
          "type": "address"
        },
        {
          "internalType": "uint256",
          "name": "token",
          "type": "uint256"
        },
        {
          "internalType": "uint256",
          "name": "liquidity",
          "type": "uint256"
        },
        {
          "internalType": "uint256",
          "name": "amountTokenMin",
          "type": "uint256"
        },
        {
          "internalType": "uint256",
          "name": "amountERC20Min",
          "type": "uint256"
        },
        {
          "internalType": "address",
          "name": "to",
          "type": "address"
        },
        {
          "internalType": "uint256",
          "name": "deadline",
          "type": "uint256"
        }
      ],
      "name": "removeLiquidityERC20",
      "outputs": [
        {
          "internalType": "uint256",
          "name": "amountToken",
          "type": "uint256"
        },
        {
          "internalType": "uint256",
          "name": "amountERC20",
          "type": "uint256"
        }
      ],
      "stateMutability": "nonpayable",
      "type": "function"
    },
    {
      "inputs": [
        {
          "internalType": "uint256",
          "name": "token",
          "type": "uint256"
        },
        {
          "internalType": "uint256",
          "name": "liquidity",
          "type": "uint256"
        },
        {
          "internalType": "uint256",
          "name": "amountTokenMin",
          "type": "uint256"
        },
        {
          "internalType": "uint256",
          "name": "amountETHMin",
          "type": "uint256"
        },
        {
          "internalType": "address",
          "name": "to",
          "type": "address"
        },
        {
          "internalType": "uint256",
          "name": "deadline",
          "type": "uint256"
        }
      ],
      "name": "removeLiquidityETH",
      "outputs": [
        {
          "internalType": "uint256",
          "name": "amountToken",
          "type": "uint256"
        },
        {
          "internalType": "uint256",
          "name": "amountETH",
          "type": "uint256"
        }
      ],
      "stateMutability": "nonpayable",
      "type": "function"
    },
    {
      "inputs": [
        {
          "internalType": "bytes4",
          "name": "interfaceId",
          "type": "bytes4"
        }
      ],
      "name": "supportsInterface",
      "outputs": [
        {
          "internalType": "bool",
          "name": "",
          "type": "bool"
        }
      ],
      "stateMutability": "view",
      "type": "function"
    },
    {
      "inputs": [
        {
          "internalType": "address",
          "name": "erc20Contract",
          "type": "address"
        },
        {
          "internalType": "uint256",
          "name": "amountIn",
          "type": "uint256"
        },
        {
          "internalType": "uint256",
          "name": "amountOut",
          "type": "uint256"
        },
        {
          "internalType": "uint256[]",
          "name": "path",
          "type": "uint256[]"
        },
        {
          "internalType": "address",
          "name": "to",
          "type": "address"
        },
        {
          "internalType": "uint256",
          "name": "deadline",
          "type": "uint256"
        }
      ],
      "name": "swapERC20ForExactTokens",
      "outputs": [
        {
          "internalType": "uint256[]",
          "name": "amounts",
          "type": "uint256[]"
        }
      ],
      "stateMutability": "nonpayable",
      "type": "function"
    },
    {
      "inputs": [
        {
          "internalType": "uint256",
          "name": "amountOut",
          "type": "uint256"
        },
        {
          "internalType": "uint256[]",
          "name": "path",
          "type": "uint256[]"
        },
        {
          "internalType": "address",
          "name": "to",
          "type": "address"
        },
        {
          "internalType": "uint256",
          "name": "deadline",
          "type": "uint256"
        }
      ],
      "name": "swapETHForExactTokens",
      "outputs": [
        {
          "internalType": "uint256[]",
          "name": "amounts",
          "type": "uint256[]"
        }
      ],
      "stateMutability": "payable",
      "type": "function"
    },
    {
      "inputs": [
        {
          "internalType": "address",
          "name": "erc20Contract",
          "type": "address"
        },
        {
          "internalType": "uint256",
          "name": "amountIn",
          "type": "uint256"
        },
        {
          "internalType": "uint256",
          "name": "amountOutMin",
          "type": "uint256"
        },
        {
          "internalType": "uint256[]",
          "name": "path",
          "type": "uint256[]"
        },
        {
          "internalType": "address",
          "name": "to",
          "type": "address"
        },
        {
          "internalType": "uint256",
          "name": "deadline",
          "type": "uint256"
        }
      ],
      "name": "swapExactERC20ForTokens",
      "outputs": [
        {
          "internalType": "uint256[]",
          "name": "amounts",
          "type": "uint256[]"
        }
      ],
      "stateMutability": "nonpayable",
      "type": "function"
    },
    {
      "inputs": [
        {
          "internalType": "uint256",
          "name": "amountOutMin",
          "type": "uint256"
        },
        {
          "internalType": "uint256[]",
          "name": "path",
          "type": "uint256[]"
        },
        {
          "internalType": "address",
          "name": "to",
          "type": "address"
        },
        {
          "internalType": "uint256",
          "name": "deadline",
          "type": "uint256"
        }
      ],
      "name": "swapExactETHForTokens",
      "outputs": [
        {
          "internalType": "uint256[]",
          "name": "amounts",
          "type": "uint256[]"
        }
      ],
      "stateMutability": "payable",
      "type": "function"
    },
    {
      "inputs": [
        {
          "internalType": "address",
          "name": "erc20Contract",
          "type": "address"
        },
        {
          "internalType": "uint256",
          "name": "amountIn",
          "type": "uint256"
        },
        {
          "internalType": "uint256",
          "name": "amountOutMin",
          "type": "uint256"
        },
        {
          "internalType": "uint256[]",
          "name": "path",
          "type": "uint256[]"
        },
        {
          "internalType": "address",
          "name": "to",
          "type": "address"
        },
        {
          "internalType": "uint256",
          "name": "deadline",
          "type": "uint256"
        }
      ],
      "name": "swapExactTokensForERC20",
      "outputs": [
        {
          "internalType": "uint256[]",
          "name": "amounts",
          "type": "uint256[]"
        }
      ],
      "stateMutability": "nonpayable",
      "type": "function"
    },
    {
      "inputs": [
        {
          "internalType": "uint256",
          "name": "amountIn",
          "type": "uint256"
        },
        {
          "internalType": "uint256",
          "name": "amountOutMin",
          "type": "uint256"
        },
        {
          "internalType": "uint256[]",
          "name": "path",
          "type": "uint256[]"
        },
        {
          "internalType": "address",
          "name": "to",
          "type": "address"
        },
        {
          "internalType": "uint256",
          "name": "deadline",
          "type": "uint256"
        }
      ],
      "name": "swapExactTokensForETH",
      "outputs": [
        {
          "internalType": "uint256[]",
          "name": "amounts",
          "type": "uint256[]"
        }
      ],
      "stateMutability": "nonpayable",
      "type": "function"
    },
    {
      "inputs": [
        {
          "internalType": "uint256",
          "name": "amountIn",
          "type": "uint256"
        },
        {
          "internalType": "uint256",
          "name": "amountOutMin",
          "type": "uint256"
        },
        {
          "internalType": "uint256[]",
          "name": "path",
          "type": "uint256[]"
        },
        {
          "internalType": "address",
          "name": "to",
          "type": "address"
        },
        {
          "internalType": "uint256",
          "name": "deadline",
          "type": "uint256"
        }
      ],
      "name": "swapExactTokensForTokens",
      "outputs": [
        {
          "internalType": "uint256[]",
          "name": "amounts",
          "type": "uint256[]"
        }
      ],
      "stateMutability": "nonpayable",
      "type": "function"
    },
    {
      "inputs": [
        {
          "internalType": "address",
          "name": "erc20Contract",
          "type": "address"
        },
        {
          "internalType": "uint256",
          "name": "amountOut",
          "type": "uint256"
        },
        {
          "internalType": "uint256",
          "name": "amountInMax",
          "type": "uint256"
        },
        {
          "internalType": "uint256[]",
          "name": "path",
          "type": "uint256[]"
        },
        {
          "internalType": "address",
          "name": "to",
          "type": "address"
        },
        {
          "internalType": "uint256",
          "name": "deadline",
          "type": "uint256"
        }
      ],
      "name": "swapTokensForExactERC20",
      "outputs": [
        {
          "internalType": "uint256[]",
          "name": "amounts",
          "type": "uint256[]"
        }
      ],
      "stateMutability": "nonpayable",
      "type": "function"
    },
    {
      "inputs": [
        {
          "internalType": "uint256",
          "name": "amountOut",
          "type": "uint256"
        },
        {
          "internalType": "uint256",
          "name": "amountInMax",
          "type": "uint256"
        },
        {
          "internalType": "uint256[]",
          "name": "path",
          "type": "uint256[]"
        },
        {
          "internalType": "address",
          "name": "to",
          "type": "address"
        },
        {
          "internalType": "uint256",
          "name": "deadline",
          "type": "uint256"
        }
      ],
      "name": "swapTokensForExactETH",
      "outputs": [
        {
          "internalType": "uint256[]",
          "name": "amounts",
          "type": "uint256[]"
        }
      ],
      "stateMutability": "nonpayable",
      "type": "function"
    },
    {
      "inputs": [
        {
          "internalType": "uint256",
          "name": "amountOut",
          "type": "uint256"
        },
        {
          "internalType": "uint256",
          "name": "amountInMax",
          "type": "uint256"
        },
        {
          "internalType": "uint256[]",
          "name": "path",
          "type": "uint256[]"
        },
        {
          "internalType": "address",
          "name": "to",
          "type": "address"
        },
        {
          "internalType": "uint256",
          "name": "deadline",
          "type": "uint256"
        }
      ],
      "name": "swapTokensForExactTokens",
      "outputs": [
        {
          "internalType": "uint256[]",
          "name": "amounts",
          "type": "uint256[]"
        }
      ],
      "stateMutability": "nonpayable",
      "type": "function"
    },
    {
      "inputs": [],
      "name": "tokenContract",
      "outputs": [
        {
          "internalType": "address",
          "name": "",
          "type": "address"
        }
      ],
      "stateMutability": "view",
      "type": "function"
    },
    {
      "inputs": [],
      "name": "wrapper",
      "outputs": [
        {
          "internalType": "contract ISpacePiratesWrapper",
          "name": "",
          "type": "address"
        }
      ],
      "stateMutability": "view",
      "type": "function"
    },
    {
      "stateMutability": "payable",
      "type": "receive"
    }
  ],
  "bytecode": "0x60c06040523480156200001157600080fd5b506040516200441738038062004417833981016040819052620000349162000072565b6001600160601b0319606084811b821660a05282901b16608052600080546001600160a01b0319166001600160a01b038416179055505050620000de565b60008060006060848603121562000087578283fd5b83516200009481620000c5565b6020850151909350620000a781620000c5565b6040850151909250620000ba81620000c5565b809150509250925092565b6001600160a01b0381168114620000db57600080fd5b50565b60805160601c60a05160601c6141e7620002306000396000818161056b015281816106f9015281816107c401528181610b0001528181610bcb01528181610ee401528181610fe50152818161121e01528181611333015281816115f9015281816116a3015281816116f4015281816119ab01528181611a8201528181611b4101528181611cdb01528181611de701528181611f4e015281816120320152818161249201528181612592015281816127890152818161287801528181612d2301528181612d810152818161310001526131d90152600081816101cb0152818161048a0152818161091a01528181610a2e01528181610d1501528181610e1b01528181610f89015281816111ad0152818161129d015281816113d401528181611527015281816118e201528181611d8c015281816120ef0152818161229a015281816123a8015261253701526141e76000f3fe6080604052600436106101bb5760003560e01c8063a70e8bad116100ec578063bfe9b3e11161008a578063e4bbe7f311610064578063e4bbe7f3146105ad578063ee462591146105c0578063f23a6e61146105e0578063ff4bd7611461060c57600080fd5b8063bfe9b3e114610544578063c45a015514610559578063c9af31e61461058d57600080fd5b8063ad615dec116100c6578063ad615dec146104ac578063b11d67de146104cc578063bc197c81146104ec578063be5744841461053157600080fd5b8063a70e8bad14610445578063aaa60a6414610465578063ac210cc71461047857600080fd5b806355a373d6116101595780639d8fcd7e116101335780639d8fcd7e146103c55780639f9890bc146103e5578063a58e16d014610405578063a61628c31461042557600080fd5b806355a373d61461033257806385f8c2591461036a57806397ca4a361461038a57600080fd5b806318e040241161019557806318e040241461029d578063419c5d21146102bd5780634ae582a2146102dd5780635342b0231461031257600080fd5b806301ffc9a71461020d578063054d50d41461024257806310f5bf6c1461027057600080fd5b3661020857336001600160a01b037f0000000000000000000000000000000000000000000000000000000000000000161461020657634e487b7160e01b600052600160045260246000fd5b005b600080fd5b34801561021957600080fd5b5061022d6102283660046139a3565b61062c565b60405190151581526020015b60405180910390f35b34801561024e57600080fd5b5061026261025d366004613b6f565b610663565b604051908152602001610239565b34801561027c57600080fd5b5061029061028b366004613afe565b610678565b6040516102399190613d90565b3480156102a957600080fd5b506102906102b8366004613824565b6109e9565b3480156102c957600080fd5b506102906102d8366004613824565b610dd6565b3480156102e957600080fd5b506102fd6102f8366004613b9a565b6110e9565b60408051928352602083019190915201610239565b34801561031e57600080fd5b5061029061032d366004613a96565b611217565b34801561033e57600080fd5b50600054610352906001600160a01b031681565b6040516001600160a01b039091168152602001610239565b34801561037657600080fd5b50610262610385366004613b6f565b61124b565b34801561039657600080fd5b506103aa6103a5366004613911565b611258565b60408051938452602084019290925290820152606001610239565b3480156103d157600080fd5b506102906103e0366004613824565b6114e2565b3480156103f157600080fd5b50610290610400366004613a96565b61169c565b34801561041157600080fd5b506102fd610420366004613bee565b6116c9565b34801561043157600080fd5b50610290610440366004613824565b61189d565b34801561045157600080fd5b50610290610460366004613afe565b611a5a565b610290610473366004613a31565b611c6c565b34801561048457600080fd5b506103527f000000000000000000000000000000000000000000000000000000000000000081565b3480156104b857600080fd5b506102626104c7366004613b6f565b611ec9565b3480156104d857600080fd5b506102906104e7366004613afe565b611ed6565b3480156104f857600080fd5b50610518610507366004613713565b63bc197c8160e01b95945050505050565b6040516001600160e01b03199091168152602001610239565b6103aa61053f366004613b9a565b611ff1565b34801561055057600080fd5b50610262606481565b34801561056557600080fd5b506103527f000000000000000000000000000000000000000000000000000000000000000081565b34801561059957600080fd5b506102fd6105a83660046138a9565b612254565b6102906105bb366004613a31565b612423565b3480156105cc57600080fd5b506102906105db366004613afe565b612761565b3480156105ec57600080fd5b506105186105fb3660046137bd565b63f23a6e6160e01b95945050505050565b34801561061857600080fd5b506103aa610627366004613c36565b612838565b60006001600160e01b03198216630271189760e51b148061065d57506301ffc9a760e01b6001600160e01b03198316145b92915050565b60006106708484846128dc565b949350505050565b606081428110156106a45760405162461bcd60e51b815260040161069b90613da3565b60405180910390fd5b606486866106b36001826140d8565b8181106106d057634e487b7160e01b600052603260045260246000fd5b90506020020135146106f45760405162461bcd60e51b815260040161069b90613f4b565b6107527f0000000000000000000000000000000000000000000000000000000000000000898888808060200260200160405190810160405280939291908181526020018383602002808284376000920191909152506129af92505050565b915086826001845161076491906140d8565b8151811061078257634e487b7160e01b600052603260045260246000fd5b602002602001015110156107a85760405162461bcd60e51b815260040161069b90613e23565b600080546001600160a01b03169063f242432a903390610837907f0000000000000000000000000000000000000000000000000000000000000000908b908b908161080357634e487b7160e01b600052603260045260246000fd5b905060200201358b8b600181811061082b57634e487b7160e01b600052603260045260246000fd5b90506020020135612b5e565b8989600081811061085857634e487b7160e01b600052603260045260246000fd5b905060200201358660008151811061088057634e487b7160e01b600052603260045260246000fd5b60200260200101516040518563ffffffff1660e01b81526004016108a79493929190613d35565b600060405180830381600087803b1580156108c157600080fd5b505af11580156108d5573d6000803e3d6000fd5b5050505061091882878780806020026020016040519081016040528093929190818152602001838360200280828437600092019190915250309250612c28915050565b7f00000000000000000000000000000000000000000000000000000000000000006001600160a01b031663d265c5dd836001855161095691906140d8565b8151811061097457634e487b7160e01b600052603260045260246000fd5b6020026020010151866040518363ffffffff1660e01b81526004016109ac9291909182526001600160a01b0316602082015260400190565b600060405180830381600087803b1580156109c657600080fd5b505af11580156109da573d6000803e3d6000fd5b50505050509695505050505050565b60608142811015610a0c5760405162461bcd60e51b815260040161069b90613da3565b604051636489e8b960e11b81526001600160a01b038a811660048301526000917f00000000000000000000000000000000000000000000000000000000000000009091169063c913d1729060240160206040518083038186803b158015610a7257600080fd5b505afa158015610a86573d6000803e3d6000fd5b505050506040513d601f19601f82011682018060405250810190610aaa9190613a19565b9050808787610aba6001826140d8565b818110610ad757634e487b7160e01b600052603260045260246000fd5b9050602002013514610afb5760405162461bcd60e51b815260040161069b90613f4b565b610b597f00000000000000000000000000000000000000000000000000000000000000008a8989808060200260200160405190810160405280939291908181526020018383602002808284376000920191909152506129af92505050565b9250878360018551610b6b91906140d8565b81518110610b8957634e487b7160e01b600052603260045260246000fd5b60200260200101511015610baf5760405162461bcd60e51b815260040161069b90613e23565b600080546001600160a01b03169063f242432a903390610c32907f0000000000000000000000000000000000000000000000000000000000000000908c908c9081610c0a57634e487b7160e01b600052603260045260246000fd5b905060200201358c8c600181811061082b57634e487b7160e01b600052603260045260246000fd5b8a8a6000818110610c5357634e487b7160e01b600052603260045260246000fd5b9050602002013587600081518110610c7b57634e487b7160e01b600052603260045260246000fd5b60200260200101516040518563ffffffff1660e01b8152600401610ca29493929190613d35565b600060405180830381600087803b158015610cbc57600080fd5b505af1158015610cd0573d6000803e3d6000fd5b50505050610d1383888880806020026020016040519081016040528093929190818152602001838360200280828437600092019190915250309250612c28915050565b7f00000000000000000000000000000000000000000000000000000000000000006001600160a01b031663b23f535e8b8560018751610d5291906140d8565b81518110610d7057634e487b7160e01b600052603260045260246000fd5b6020026020010151886040518463ffffffff1660e01b8152600401610d9793929190613d6d565b600060405180830381600087803b158015610db157600080fd5b505af1158015610dc5573d6000803e3d6000fd5b505050505050979650505050505050565b60608142811015610df95760405162461bcd60e51b815260040161069b90613da3565b604051636489e8b960e11b81526001600160a01b038a811660048301526000917f00000000000000000000000000000000000000000000000000000000000000009091169063c913d1729060240160206040518083038186803b158015610e5f57600080fd5b505afa158015610e73573d6000803e3d6000fd5b505050506040513d601f19601f82011682018060405250810190610e979190613a19565b90508087876000818110610ebb57634e487b7160e01b600052603260045260246000fd5b9050602002013514610edf5760405162461bcd60e51b815260040161069b90613f4b565b610f3d7f000000000000000000000000000000000000000000000000000000000000000089898980806020026020016040519081016040528093929190818152602001838360200280828437600092019190915250612e5692505050565b92508883600081518110610f6157634e487b7160e01b600052603260045260246000fd5b60200260200101511115610f875760405162461bcd60e51b815260040161069b90613f01565b7f00000000000000000000000000000000000000000000000000000000000000006001600160a01b03166375b74f348b85600081518110610fd857634e487b7160e01b600052603260045260246000fd5b602002602001015161104d7f00000000000000000000000000000000000000000000000000000000000000008c8c600081811061102557634e487b7160e01b600052603260045260246000fd5b905060200201358d8d600181811061082b57634e487b7160e01b600052603260045260246000fd5b6040518463ffffffff1660e01b815260040161106b93929190613d6d565b600060405180830381600087803b15801561108557600080fd5b505af1158015611099573d6000803e3d6000fd5b505050506110dc838888808060200260200160405190810160405280939291908181526020018383602002808284376000920191909152508a9250612c28915050565b5050979650505050505050565b600080824281101561110d5760405162461bcd60e51b815260040161069b90613da3565b61111d8960648a8a8a308a6116c9565b600054604051637921219560e11b81529295509093506001600160a01b03169063f242432a9061115790309089908e908990600401613d35565b600060405180830381600087803b15801561117157600080fd5b505af1158015611185573d6000803e3d6000fd5b505060405163d265c5dd60e01b8152600481018590526001600160a01b0388811660248301527f000000000000000000000000000000000000000000000000000000000000000016925063d265c5dd9150604401600060405180830381600087803b1580156111f357600080fd5b505af1158015611207573d6000803e3d6000fd5b5050505050965096945050505050565b60606112447f000000000000000000000000000000000000000000000000000000000000000084846129af565b9392505050565b6000610670848484612ffb565b6000806000834281101561127e5760405162461bcd60e51b815260040161069b90613da3565b604051636489e8b960e11b81526001600160a01b038d811660048301527f0000000000000000000000000000000000000000000000000000000000000000169063c913d1729060240160206040518083038186803b1580156112df57600080fd5b505afa1580156112f3573d6000803e3d6000fd5b505050506040513d601f19601f820116820180604052508101906113179190613a19565b91506113278b838c8c8c8c6130d4565b909450925060006113597f00000000000000000000000000000000000000000000000000000000000000008d85612b5e565b905060008054906101000a90046001600160a01b03166001600160a01b031663f242432a33838f896040518563ffffffff1660e01b81526004016113a09493929190613d35565b600060405180830381600087803b1580156113ba57600080fd5b505af11580156113ce573d6000803e3d6000fd5b505050507f00000000000000000000000000000000000000000000000000000000000000006001600160a01b03166375b74f348e86846040518463ffffffff1660e01b815260040161142293929190613d6d565b600060405180830381600087803b15801561143c57600080fd5b505af1158015611450573d6000803e3d6000fd5b50506040516335313c2160e11b81526001600160a01b038a8116600483015284169250636a62784291506024015b602060405180830381600087803b15801561149857600080fd5b505af11580156114ac573d6000803e3d6000fd5b505050506040513d601f19601f820116820180604052508101906114d09190613a19565b92505050985098509895505050505050565b606081428110156115055760405162461bcd60e51b815260040161069b90613da3565b604051636489e8b960e11b81526001600160a01b038a811660048301526000917f00000000000000000000000000000000000000000000000000000000000000009091169063c913d1729060240160206040518083038186803b15801561156b57600080fd5b505afa15801561157f573d6000803e3d6000fd5b505050506040513d601f19601f820116820180604052508101906115a39190613a19565b90508087876115b36001826140d8565b8181106115d057634e487b7160e01b600052603260045260246000fd5b90506020020135146115f45760405162461bcd60e51b815260040161069b90613f4b565b6116527f00000000000000000000000000000000000000000000000000000000000000008a898980806020026020016040519081016040528093929190818152602001838360200280828437600092019190915250612e5692505050565b9250878360008151811061167657634e487b7160e01b600052603260045260246000fd5b60200260200101511115610baf5760405162461bcd60e51b815260040161069b90613f01565b60606112447f00000000000000000000000000000000000000000000000000000000000000008484612e56565b60008082428110156116ed5760405162461bcd60e51b815260040161069b90613da3565b600061171a7f00000000000000000000000000000000000000000000000000000000000000008c8c612b5e565b6040516323b872dd60e01b81523360048201526001600160a01b03821660248201819052604482018c90529192506323b872dd90606401602060405180830381600087803b15801561176b57600080fd5b505af115801561177f573d6000803e3d6000fd5b505050506040513d601f19601f820116820180604052508101906117a39190613983565b5060405163226bf2d160e21b81526001600160a01b03878116600483015260009182918416906389afcb44906024016040805180830381600087803b1580156117eb57600080fd5b505af11580156117ff573d6000803e3d6000fd5b505050506040513d601f19601f820116820180604052508101906118239190613adb565b9150915060006118338e8e6132c4565b509050808e14611844578183611847565b82825b90975095508a87101561186c5760405162461bcd60e51b815260040161069b90613dda565b8986101561188c5760405162461bcd60e51b815260040161069b90613eb8565b505050505097509795505050505050565b606081428110156118c05760405162461bcd60e51b815260040161069b90613da3565b604051636489e8b960e11b81526001600160a01b038a811660048301526000917f00000000000000000000000000000000000000000000000000000000000000009091169063c913d1729060240160206040518083038186803b15801561192657600080fd5b505afa15801561193a573d6000803e3d6000fd5b505050506040513d601f19601f8201168201806040525081019061195e9190613a19565b9050808787600081811061198257634e487b7160e01b600052603260045260246000fd5b90506020020135146119a65760405162461bcd60e51b815260040161069b90613f4b565b611a047f00000000000000000000000000000000000000000000000000000000000000008a8989808060200260200160405190810160405280939291908181526020018383602002808284376000920191909152506129af92505050565b9250878360018551611a1691906140d8565b81518110611a3457634e487b7160e01b600052603260045260246000fd5b60200260200101511015610f875760405162461bcd60e51b815260040161069b90613e23565b60608142811015611a7d5760405162461bcd60e51b815260040161069b90613da3565b611adb7f000000000000000000000000000000000000000000000000000000000000000089888880806020026020016040519081016040528093929190818152602001838360200280828437600092019190915250612e5692505050565b91508682600081518110611aff57634e487b7160e01b600052603260045260246000fd5b60200260200101511115611b255760405162461bcd60e51b815260040161069b90613f01565b600080546001600160a01b03169063f242432a903390611b80907f0000000000000000000000000000000000000000000000000000000000000000908b908b908161080357634e487b7160e01b600052603260045260246000fd5b89896000818110611ba157634e487b7160e01b600052603260045260246000fd5b9050602002013586600081518110611bc957634e487b7160e01b600052603260045260246000fd5b60200260200101516040518563ffffffff1660e01b8152600401611bf09493929190613d35565b600060405180830381600087803b158015611c0a57600080fd5b505af1158015611c1e573d6000803e3d6000fd5b50505050611c6182878780806020026020016040519081016040528093929190818152602001838360200280828437600092019190915250899250612c28915050565b509695505050505050565b60608142811015611c8f5760405162461bcd60e51b815260040161069b90613da3565b606486866000818110611cb257634e487b7160e01b600052603260045260246000fd5b9050602002013514611cd65760405162461bcd60e51b815260040161069b90613f4b565b611d347f0000000000000000000000000000000000000000000000000000000000000000348888808060200260200160405190810160405280939291908181526020018383602002808284376000920191909152506129af92505050565b9150868260018451611d4691906140d8565b81518110611d6457634e487b7160e01b600052603260045260246000fd5b60200260200101511015611d8a5760405162461bcd60e51b815260040161069b90613e23565b7f00000000000000000000000000000000000000000000000000000000000000006001600160a01b031663cc5c7b3e83600081518110611dda57634e487b7160e01b600052603260045260246000fd5b6020026020010151611e277f00000000000000000000000000000000000000000000000000000000000000008a8a600081811061080357634e487b7160e01b600052603260045260246000fd5b6040516001600160e01b031960e085901b1681526001600160a01b0390911660048201526024016000604051808303818588803b158015611e6757600080fd5b505af1158015611e7b573d6000803e3d6000fd5b5050505050611ebf82878780806020026020016040519081016040528093929190818152602001838360200280828437600092019190915250899250612c28915050565b5095945050505050565b6000610670848484613341565b60608142811015611ef95760405162461bcd60e51b815260040161069b90613da3565b60648686611f086001826140d8565b818110611f2557634e487b7160e01b600052603260045260246000fd5b9050602002013514611f495760405162461bcd60e51b815260040161069b90613f4b565b611fa77f000000000000000000000000000000000000000000000000000000000000000089888880806020026020016040519081016040528093929190818152602001838360200280828437600092019190915250612e5692505050565b91508682600081518110611fcb57634e487b7160e01b600052603260045260246000fd5b602002602001015111156107a85760405162461bcd60e51b815260040161069b90613f01565b600080600083428110156120175760405162461bcd60e51b815260040161069b90613da3565b6120268a60648b348c8c6130d4565b909450925060006120597f00000000000000000000000000000000000000000000000000000000000000008c6064612b5e565b905060008054906101000a90046001600160a01b03166001600160a01b031663f242432a33838e896040518563ffffffff1660e01b81526004016120a09493929190613d35565b600060405180830381600087803b1580156120ba57600080fd5b505af11580156120ce573d6000803e3d6000fd5b505060405163662e3d9f60e11b81526001600160a01b0384811660048301527f000000000000000000000000000000000000000000000000000000000000000016925063cc5c7b3e915086906024016000604051808303818588803b15801561213657600080fd5b505af115801561214a573d6000803e3d6000fd5b50506040516335313c2160e11b81526001600160a01b038b8116600483015285169350636a62784292506024019050602060405180830381600087803b15801561219357600080fd5b505af11580156121a7573d6000803e3d6000fd5b505050506040513d601f19601f820116820180604052508101906121cb9190613a19565b925083341115612246576000336121e286346140d8565b604051600081818185875af1925050503d806000811461221e576040519150601f19603f3d011682016040523d82523d6000602084013e612223565b606091505b50509050806122445760405162461bcd60e51b815260040161069b90613e71565b505b505096509650969350505050565b60008082428110156122785760405162461bcd60e51b815260040161069b90613da3565b604051636489e8b960e11b81526001600160a01b038b811660048301526000917f00000000000000000000000000000000000000000000000000000000000000009091169063c913d1729060240160206040518083038186803b1580156122de57600080fd5b505afa1580156122f2573d6000803e3d6000fd5b505050506040513d601f19601f820116820180604052508101906123169190613a19565b90506123278a828b8b8b308b6116c9565b600054604051637921219560e11b81529296509094506001600160a01b03169063f242432a906123619030908a908f908a90600401613d35565b600060405180830381600087803b15801561237b57600080fd5b505af115801561238f573d6000803e3d6000fd5b505060405163591fa9af60e11b81526001600160a01b037f000000000000000000000000000000000000000000000000000000000000000016925063b23f535e91506123e3908e9087903390600401613d6d565b600060405180830381600087803b1580156123fd57600080fd5b505af1158015612411573d6000803e3d6000fd5b50505050505097509795505050505050565b606081428110156124465760405162461bcd60e51b815260040161069b90613da3565b60648686600081811061246957634e487b7160e01b600052603260045260246000fd5b905060200201351461248d5760405162461bcd60e51b815260040161069b90613f4b565b6124eb7f000000000000000000000000000000000000000000000000000000000000000088888880806020026020016040519081016040528093929190818152602001838360200280828437600092019190915250612e5692505050565b9150348260008151811061250f57634e487b7160e01b600052603260045260246000fd5b602002602001015111156125355760405162461bcd60e51b815260040161069b90613f01565b7f00000000000000000000000000000000000000000000000000000000000000006001600160a01b031663cc5c7b3e8360008151811061258557634e487b7160e01b600052603260045260246000fd5b60200260200101516125d27f00000000000000000000000000000000000000000000000000000000000000008a8a600081811061080357634e487b7160e01b600052603260045260246000fd5b6040516001600160e01b031960e085901b1681526001600160a01b0390911660048201526024016000604051808303818588803b15801561261257600080fd5b505af1158015612626573d6000803e3d6000fd5b505050505061266a82878780806020026020016040519081016040528093929190818152602001838360200280828437600092019190915250899250612c28915050565b8160008151811061268b57634e487b7160e01b600052603260045260246000fd5b6020026020010151341115611ebf576000336001600160a01b0316836000815181106126c757634e487b7160e01b600052603260045260246000fd5b6020026020010151346126da91906140d8565b604080516000815260208101918290526126f391613cc1565b60006040518083038185875af1925050503d8060008114612730576040519150601f19603f3d011682016040523d82523d6000602084013e612735565b606091505b50509050806127565760405162461bcd60e51b815260040161069b90613e71565b505095945050505050565b606081428110156127845760405162461bcd60e51b815260040161069b90613da3565b6127e27f0000000000000000000000000000000000000000000000000000000000000000898888808060200260200160405190810160405280939291908181526020018383602002808284376000920191909152506129af92505050565b91508682600184516127f491906140d8565b8151811061281257634e487b7160e01b600052603260045260246000fd5b60200260200101511015611b255760405162461bcd60e51b815260040161069b90613e23565b6000806000834281101561285e5760405162461bcd60e51b815260040161069b90613da3565b61286c8c8c8c8c8c8c6130d4565b9094509250600061289e7f00000000000000000000000000000000000000000000000000000000000000008e8e612b5e565b90506128ae33828f8f89896133d5565b6040516335313c2160e11b81526001600160a01b038881166004830152821690636a6278429060240161147e565b60008084116129355760405162461bcd60e51b815260206004820152603160248201526000805160206141928339815191526044820152701251539517d25394155517d05353d55395607a1b606482015260840161069b565b6000831180156129455750600082115b6129615760405162461bcd60e51b815260040161069b90613f80565b600061296f856103e56140b9565b9050600061297d84836140b9565b905060008261298e876103e86140b9565b6129989190614081565b90506129a48183614099565b979650505050505050565b60606002825110156129d35760405162461bcd60e51b815260040161069b90613fbc565b815167ffffffffffffffff8111156129fb57634e487b7160e01b600052604160045260246000fd5b604051908082528060200260200182016040528015612a24578160200160208202803683370190505b5090508281600081518110612a4957634e487b7160e01b600052603260045260246000fd5b60200260200101818152505060005b60018351612a6691906140d8565b811015612b5657600080612ad587868581518110612a9457634e487b7160e01b600052603260045260246000fd5b602002602001015187866001612aaa9190614081565b81518110612ac857634e487b7160e01b600052603260045260246000fd5b6020026020010151613455565b91509150612b0b848481518110612afc57634e487b7160e01b600052603260045260246000fd5b602002602001015183836128dc565b84612b17856001614081565b81518110612b3557634e487b7160e01b600052603260045260246000fd5b60200260200101818152505050508080612b4e90614132565b915050612a58565b509392505050565b6000806000612b6d85856132c4565b91509150858282604051602001612b8e929190918252602082015260400190565b60405160208183030381529060405280519060200120604051602001612c069291906001600160f81b0319815260609290921b6bffffffffffffffffffffffff1916600183015260158201527fa351fc001cc4b002bd0b5d16720fd490c335e1133f20186ae4814f59876c46dc603582015260550190565b60408051601f1981840301815291905280516020909101209695505050505050565b60005b60018351612c3991906140d8565b811015612e5057600080848381518110612c6357634e487b7160e01b600052603260045260246000fd5b602002602001015185846001612c799190614081565b81518110612c9757634e487b7160e01b600052603260045260246000fd5b6020026020010151915091506000612caf83836132c4565b509050600087612cc0866001614081565b81518110612cde57634e487b7160e01b600052603260045260246000fd5b60200260200101519050600080838614612cfa57826000612cfe565b6000835b91509150600060028a51612d1291906140d8565b8810612d1e5788612d7a565b612d7a7f0000000000000000000000000000000000000000000000000000000000000000878c612d4f8c6002614081565b81518110612d6d57634e487b7160e01b600052603260045260246000fd5b6020026020010151612b5e565b9050612da77f00000000000000000000000000000000000000000000000000000000000000008888612b5e565b6001600160a01b031663022c0d9f84848460006040519080825280601f01601f191660200182016040528015612de4576020820181803683370190505b506040518563ffffffff1660e01b8152600401612e049493929190614000565b600060405180830381600087803b158015612e1e57600080fd5b505af1158015612e32573d6000803e3d6000fd5b50505050505050505050508080612e4890614132565b915050612c2b565b50505050565b6060600282511015612e7a5760405162461bcd60e51b815260040161069b90613fbc565b815167ffffffffffffffff811115612ea257634e487b7160e01b600052604160045260246000fd5b604051908082528060200260200182016040528015612ecb578160200160208202803683370190505b509050828160018351612ede91906140d8565b81518110612efc57634e487b7160e01b600052603260045260246000fd5b602002602001018181525050600060018351612f1891906140d8565b90505b8015612b5657600080612f7a8786612f346001876140d8565b81518110612f5257634e487b7160e01b600052603260045260246000fd5b6020026020010151878681518110612ac857634e487b7160e01b600052603260045260246000fd5b91509150612fb0848481518110612fa157634e487b7160e01b600052603260045260246000fd5b60200260200101518383612ffb565b84612fbc6001866140d8565b81518110612fda57634e487b7160e01b600052603260045260246000fd5b60200260200101818152505050508080612ff39061411b565b915050612f1b565b60008084116130555760405162461bcd60e51b815260206004820152603260248201526000805160206141928339815191526044820152711251539517d3d55514155517d05353d5539560721b606482015260840161069b565b6000831180156130655750600082115b6130815760405162461bcd60e51b815260040161069b90613f80565b600061308d85856140b9565b613099906103e86140b9565b905060006130a786856140d8565b6130b3906103e56140b9565b90506130bf8183614099565b6130ca906001614081565b9695505050505050565b6040516348ae3e3360e11b81526004810187905260248101869052600090819081906001600160a01b037f0000000000000000000000000000000000000000000000000000000000000000169063915c7c669060440160206040518083038186803b15801561314257600080fd5b505afa158015613156573d6000803e3d6000fd5b505050506040513d601f19601f8201168201806040525081019061317a91906136f7565b6001600160a01b031614156131d15760405162461bcd60e51b815260206004820181905260248201527f537061636550697261746573526f757465723a204d495353494e4720504f4f4c604482015260640161069b565b6000806131ff7f00000000000000000000000000000000000000000000000000000000000000008b8b613455565b91509150816000148015613211575080155b15613221578793508692506132b7565b600061322e898484613341565b905087811161326257858110156132575760405162461bcd60e51b815260040161069b90613eb8565b8894509250826132b5565b600061326f898486613341565b90508981111561328f57634e487b7160e01b600052600160045260246000fd5b878110156132af5760405162461bcd60e51b815260040161069b90613dda565b94508793505b505b5050965096945050505050565b600080828414156133255760405162461bcd60e51b815260206004820152602560248201527f5370616365506972617465734465784c6962726172793a204944454e544943416044820152644c5f49445360d81b606482015260840161069b565b828410613333578284613336565b83835b909590945092505050565b60008084116133945760405162461bcd60e51b815260206004820152602b602482015260008051602061419283398151915260448201526a1251539517d05353d5539560aa1b606482015260840161069b565b6000831180156133a45750600082115b6133c05760405162461bcd60e51b815260040161069b90613f80565b826133cb83866140b9565b6106709190614099565b6000546001600160a01b0316632eb2c2d687876133f2888861351c565b6133fc878761351c565b6040518563ffffffff1660e01b815260040161341b9493929190613cdd565b600060405180830381600087803b15801561343557600080fd5b505af1158015613449573d6000803e3d6000fd5b50505050505050505050565b600080600061346485856132c4565b509050600080613475888888612b5e565b6001600160a01b0316630902f1ac6040518163ffffffff1660e01b815260040160606040518083038186803b1580156134ad57600080fd5b505afa1580156134c1573d6000803e3d6000fd5b505050506040513d601f19601f820116820180604052508101906134e591906139cb565b506001600160701b031691506001600160701b0316915082871461350a57808261350d565b81815b90999098509650505050505050565b60408051600280825260608083018452926000929190602083019080368337019050509050838160008151811061356357634e487b7160e01b600052603260045260246000fd5b602002602001018181525050828160018151811061359157634e487b7160e01b600052603260045260246000fd5b60209081029190910101529392505050565b60008083601f8401126135b4578182fd5b50813567ffffffffffffffff8111156135cb578182fd5b6020830191508360208260051b85010111156135e657600080fd5b9250929050565b600082601f8301126135fd578081fd5b8135602067ffffffffffffffff82111561361957613619614163565b8160051b613628828201614050565b838152828101908684018388018501891015613642578687fd5b8693505b85841015613664578035835260019390930192918401918401613646565b50979650505050505050565b600082601f830112613680578081fd5b813567ffffffffffffffff81111561369a5761369a614163565b6136ad601f8201601f1916602001614050565b8181528460208386010111156136c1578283fd5b816020850160208301379081016020019190915292915050565b80516001600160701b03811681146136f257600080fd5b919050565b600060208284031215613708578081fd5b815161124481614179565b600080600080600060a0868803121561372a578081fd5b853561373581614179565b9450602086013561374581614179565b9350604086013567ffffffffffffffff80821115613761578283fd5b61376d89838a016135ed565b94506060880135915080821115613782578283fd5b61378e89838a016135ed565b935060808801359150808211156137a3578283fd5b506137b088828901613670565b9150509295509295909350565b600080600080600060a086880312156137d4578081fd5b85356137df81614179565b945060208601356137ef81614179565b93506040860135925060608601359150608086013567ffffffffffffffff811115613818578182fd5b6137b088828901613670565b600080600080600080600060c0888a03121561383e578182fd5b873561384981614179565b96506020880135955060408801359450606088013567ffffffffffffffff811115613872578283fd5b61387e8a828b016135a3565b909550935050608088013561389281614179565b8092505060a0880135905092959891949750929550565b600080600080600080600060e0888a0312156138c3578283fd5b87356138ce81614179565b96506020880135955060408801359450606088013593506080880135925060a08801356138fa81614179565b8092505060c0880135905092959891949750929550565b600080600080600080600080610100898b03121561392d578081fd5b883561393881614179565b97506020890135965060408901359550606089013594506080890135935060a0890135925060c089013561396b81614179565b8092505060e089013590509295985092959890939650565b600060208284031215613994578081fd5b81518015158114611244578182fd5b6000602082840312156139b4578081fd5b81356001600160e01b031981168114611244578182fd5b6000806000606084860312156139df578081fd5b6139e8846136db565b92506139f6602085016136db565b9150604084015163ffffffff81168114613a0e578182fd5b809150509250925092565b600060208284031215613a2a578081fd5b5051919050565b600080600080600060808688031215613a48578283fd5b85359450602086013567ffffffffffffffff811115613a65578384fd5b613a71888289016135a3565b9095509350506040860135613a8581614179565b949793965091946060013592915050565b60008060408385031215613aa8578182fd5b82359150602083013567ffffffffffffffff811115613ac5578182fd5b613ad1858286016135ed565b9150509250929050565b60008060408385031215613aed578182fd5b505080516020909101519092909150565b60008060008060008060a08789031215613b16578384fd5b8635955060208701359450604087013567ffffffffffffffff811115613b3a578485fd5b613b4689828a016135a3565b9095509350506060870135613b5a81614179565b80925050608087013590509295509295509295565b600080600060608486031215613b83578081fd5b505081359360208301359350604090920135919050565b60008060008060008060c08789031215613bb2578384fd5b863595506020870135945060408701359350606087013592506080870135613bd981614179565b8092505060a087013590509295509295509295565b600080600080600080600060e0888a031215613c08578081fd5b873596506020880135955060408801359450606088013593506080880135925060a08801356138fa81614179565b600080600080600080600080610100898b031215613c52578182fd5b883597506020890135965060408901359550606089013594506080890135935060a0890135925060c089013561396b81614179565b6000815180845260208085019450808401835b83811015613cb657815187529582019590820190600101613c9a565b509495945050505050565b60008251613cd38184602087016140ef565b9190910192915050565b6001600160a01b0385811682528416602082015260a060408201819052600090613d0990830185613c87565b8281036060840152613d1b8185613c87565b838103608090940193909352508152602001949350505050565b6001600160a01b0394851681529290931660208301526040820152606081019190915260a06080820181905260009082015260c00190565b6001600160a01b0393841681526020810192909252909116604082015260600190565b6020815260006112446020830184613c87565b6020808252601b908201527f537061636550697261746573526f757465723a20455850495245440000000000604082015260600190565b60208082526029908201527f537061636550697261746573526f757465723a20494e53554646494349454e5460408201526817d057d05353d5539560ba1b606082015260800190565b6020808252602e908201527f537061636550697261746573526f757465723a20494e53554646494349454e5460408201526d17d3d55514155517d05353d5539560921b606082015260800190565b60208082526027908201527f537061636550697261746573526f757465723a20455448207472616e736665726040820152660819985a5b195960ca1b606082015260800190565b60208082526029908201527f537061636550697261746573526f757465723a20494e53554646494349454e5460408201526817d097d05353d5539560ba1b606082015260800190565b6020808252602a908201527f537061636550697261746573526f757465723a204558434553534956455f494e60408201526914155517d05353d5539560b21b606082015260800190565b6020808252818101527f537061636550697261746573526f757465723a20494e56414c49445f50415448604082015260600190565b6020808252602e9082015260008051602061419283398151915260408201526d49454e545f4c495155494449545960901b606082015260800190565b60208082526024908201527f5370616365506972617465734465784c6962726172793a20494e56414c49445f6040820152630a082a8960e31b606082015260800190565b84815283602082015260018060a01b038316604082015260806060820152600082518060808401526140398160a08501602087016140ef565b601f01601f19169190910160a00195945050505050565b604051601f8201601f1916810167ffffffffffffffff8111828210171561407957614079614163565b604052919050565b600082198211156140945761409461414d565b500190565b6000826140b457634e487b7160e01b81526012600452602481fd5b500490565b60008160001904831182151516156140d3576140d361414d565b500290565b6000828210156140ea576140ea61414d565b500390565b60005b8381101561410a5781810151838201526020016140f2565b83811115612e505750506000910152565b60008161412a5761412a61414d565b506000190190565b60006000198214156141465761414661414d565b5060010190565b634e487b7160e01b600052601160045260246000fd5b634e487b7160e01b600052604160045260246000fd5b6001600160a01b038116811461418e57600080fd5b5056fe5370616365506972617465734465784c6962726172793a20494e535546464943a2646970667358221220798a8c9d68272a18653f171aeefa4be7f917b7e511d4e4b6ce4d3fddd385d9e764736f6c63430008040033",
  "linkReferences": {},
  "deployedLinkReferences": {}
}