{
  "_format": "hh-sol-artifact-1",
  "contractName": "ERC1155Batch",
  "sourceName": "contracts/dex/ERC1155Batch.sol",
  "abi": [
    {
      "inputs": [],
      "name": "tokenContract",
      "outputs": [
        {
          "internalType": "address",
          "name": "",
          "type": "address"
        }
      ],
      "stateMutability": "view",
      "type": "function"
    }
  ],
  "bytecode": "0x6080604052348015600f57600080fd5b5060918061001e6000396000f3fe6080604052348015600f57600080fd5b506004361060285760003560e01c806355a373d614602d575b600080fd5b600054603f906001600160a01b031681565b6040516001600160a01b03909116815260200160405180910390f3fea26469706673582212209c27bcce50666d0502c2947987bdd7fdf7e268f9f650d6d0b38c792bd9ad37c964736f6c63430008040033",
  "linkReferences": {},
  "deployedLinkReferences": {}
}